:020000040000FA
:1000000068400020C1040000C9040000CB040000C7
:10001000CD040000CF040000D10400000000000067
:10002000000000000000000000000000D3040000F9
:10003000D504000000000000D7040000D90400002F
:10004000DB040000DB040000DB040000DB04000034
:10005000DB040000DB040000DB040000DB04000024
:10006000DB040000DB040000DB040000DB04000014
:10007000DB040000DB040000DB040000DB04000004
:10008000DB040000DB040000DB040000DB040000F4
:10009000DB040000DB040000DB040000DB040000E4
:1000A000DB040000DB040000DB040000DB040000D4
:1000B000DB040000DB040000000000000000000082
:1000C000DB040000DB040000DB040000DB040000B4
:1000D000DB040000DB040000DB0400000000000083
:1000E0000000000000000000000000000000000010
:1000F0000000000000000000000000000000000000
:1001000000000000000000000000000000000000EF
:1001100000000000000000000000000000000000DF
:1004000000F002F800F03CF80AA090E8000C8244EA
:100410008344AAF10107DA4501D100F031F8AFF2C7
:10042000090EBAE80F0013F0010F18BFFB1A43F0D2
:10043000010318477404000094040000103A24BF1C
:1004400078C878C1FAD8520724BF30C830C144BF39
:1004500004680C607047000000230024002500267B
:10046000103A28BF78C1FBD8520728BF30C148BF17
:100470000B6070471FB500F011FA1FBD10B510BD1D
:1004800000F041F81146FFF7F5FF00F075F900F0B4
:100490005FF803B4FFF7F2FF03BC00F063F800005D
:1004A000401E00BF00BF00BF00BF00BF00BF00BFB5
:1004B00000BF00BF00BF00BF00BFF1D17047000008
:1004C0000948804709480047FEE7FEE7FEE7FEE7E8
:1004D000FEE7FEE7FEE7FEE7FEE7FEE70448054924
:1004E000054A064B70470000750500000104000036
:1004F000680000206840002068200020682000205C
:10050000704770477047754600F028F8AE46050002
:100510006946534620F00700854618B020B5FFF71E
:10052000DDFFBDE820404FF000064FF000074FF020
:1005300000084FF0000B21F00701AC46ACE8C00901
:10054000ACE8C009ACE8C009ACE8C0098D4670470A
:100550000446AFF300802046FFF79BFF004870473A
:100560000400002001491820ABBEFEE7260002006F
:100570007047000070B576480023021D0178101DF9
:100580000125062907D11478240704D10478C4F37F
:100590000314032C02D0062904D00FE06E4E6D4CDC
:1005A00074670EE01478240708D10478C4F30314A8
:1005B000032C06D0042C04D0052C02D0062909D027
:1005C00010E04FF08054D4F84442644EC4F34234F7
:1005D000346002E01478240704D10478C4F30314CF
:1005E000032C02D0062906D011E05D4C266826F0C7
:1005F000807626600EE01478240708D10478C4F3CE
:100600000314032C06D0042C04D0052C02D0062998
:100610000AD011E04FF08044C4F80C31C4F8103116
:100620004E4C241F236002E01478240704D1047880
:10063000C4F30314032C02D0062905D00CE0474A6A
:100640000321643211600AE01478240704D104788D
:10065000C4F30314032C02D006290DD06AE0414AEA
:10066000052111603F4978310D603E4908310B602A
:100670003F21121D116002E0117809075AD100785C
:10068000C0F30310052855D1374800683749086082
:100690003548001D0068091D0860334808300068AF
:1006A000091D086030480C300068091D08602E489C
:1006B00010300068091D08602B4814300068091DBF
:1006C0000860294818300068284920310860264809
:1006D0001C300068091D0860234820300068091D8F
:1006E0000860214824300068091D08601E48283031
:1006F0000068091D08601C482C300068091D08604E
:1007000019483030006819494031086016483430C3
:100710000068091D0860144838300068091D086029
:1007200011483C300068091D08600F4840300068DF
:10073000091D08600A487438016841F470010160BD
:10074000BFF34F8FBFF36F8F0A490948086070BD30
:10075000E00F00F00DF0ADBA00C007403C050040CE
:10076000FCED00E0105600400404001020C50040DD
:100770000090D0030000002000F056F800F05EF872
:1007800000F074F800F036F80124A00784670D48E3
:1007900004600D480460162018210322830003F131
:1007A000A043C3F80027401C8842F7D9074D084FE3
:1007B000084EAC602C643868B070642000F00CF80F
:1007C000F7E700000090004000A0004000800040DB
:1007D000408500400405005031B540F6E85404E07F
:1007E000401E00902046FFF75BFE00980028F7D1DE
:1007F00038BD0000094908480860091D084808601C
:10080000091D084808600648001F091D08600349C3
:1008100003201039086070474091004010F50140F6
:100820000480004040A100400349012008600220EC
:10083000091D086070470000048500400949002038
:100840000860084A092108321160074A0121C2F8EC
:1008500000120449091F086002494FF6FF70383141
:10086000086070470895004000900040094900204A
:100870000860084A092108321160074A0121C2F8BC
:1008800000120449091F0860024947F6FF70383119
:100890000860704708A5004000A000404FF040707D
:1008A000E1EE100A70470000C808000000000020B8
:1008B000040000003C040000CC08000004000020FC
:0C08C00064400000580400000090D003C9
:0400000500000401F2
:00000001FF
