:020000040000FA
:1000000088200020150400001D0400001F040000CB
:10001000210400002304000025040000000000006B
:1000200000000000000000000000000027040000A5
:1000300029040000000000002B0400002D04000033
:100040002F0400002F040000110E00002F040000F8
:100050002F0400002F040000AD0400002F04000056
:100060002F0400002F0400002F0400002F040000C4
:100070002F0400002F0400002F0400002F040000B4
:100080002F0400002F0400002F0400002F040000A4
:100090002F0400002F0400002F0400002F04000094
:1000A0002F0400002F0400002F0400002F04000084
:1000B0002F0400002F0400000000000000000000DA
:1000C0002F0400002F0400002F0400002F04000064
:1000D0002F0400002F0400002F0400000000000087
:1000E0000000000000000000000000000000000010
:1000F0000000000000000000000000000000000000
:1001000000000000000000000000000000000000EF
:1001100000000000000000000000000000000000DF
:10040000DFF80CD000F040F800480047F10F000082
:10041000882000200648804706480047FEE7FEE7A0
:10042000FEE7FEE7FEE7FEE7FEE7FEE7FEE7FEE7A4
:10043000A90B00000104000040EA01039B0703D060
:1004400009E008C9121F08C0042AFAD203E011F813
:10045000013B00F8013B521EF9D2704730B50B4604
:10046000014600202022012409E021FA02F59D42E4
:1004700005D303FA02F5491B04FA02F52844151EB8
:10048000A2F10102F1DC30BD064C074D06E0E06848
:1004900040F0010394E8070098471034AC42F6D3CB
:1004A000FFF7B2FF0C1B00002C1B00002DE9FC5FC6
:1004B0000025DFF83091A8464FF4807601242F46BE
:1004C000304600F077FE38B1D9F80403204203D05B
:1004D000304600F065FE2543361D64007F1CB6B231
:1004E000082FEDD34FF4BE74204600F063FE38B100
:1004F000204600F055FE3C4845F00045D0F800800D
:100500003A4E15F0FF0F13D0012700242F420BD0D5
:10051000374800EB840108680968C0F3042056F8E6
:100520002420C1F3014190477F00641C082CEDD3C7
:10053000002D54DA4FF0000A4FF0FF3900273D46F6
:10054000701910F8501F90F9000021F0C004401CF1
:1005500037D0012000FA04FB1BEA090F31D08809CB
:100560000090204600F034FD56F82000019020B1A4
:1005700000995846032904D005E00098032820D1AB
:1005800058464AEA000A1B4951F824101BEA080F92
:10059000C1F3014102D0022902D012E0032910D197
:1005A0000098032807D1022917D00221204600F025
:1005B000D9FD7F1CFFB2019818B1DDE90012204679
:1005C00090476D1C042DBBD3002F08D0064800684F
:1005D000404504D08046D146B0E70321E6E7BDE8B8
:1005E000FC9F000000600040100500502C0000201F
:1005F000106500400007005000B5084987B0012091
:1006000008701C2206496846FFF716FF684600F08E
:1006100065F9022000F00EFA07B000BD00000020CE
:10062000D812000040F6E65303E01946491EFDD2F9
:10063000401E0028F9D1704703E00421491EFDD275
:10064000401E0028F9D1704770B506465FF00004DF
:1006500004F1B000C0B200F0FCF8012000F0F9F89D
:10066000102000F0F6F80025304600F014F96D1C5B
:10067000EDB2802DF8D3641CE4B2082CE8D370BD31
:1006800010B5042000F084FD182000F079FD18203A
:1006900000F07EFDAE2000F0DCF8002000F0D9F87C
:1006A000102000F0D6F8402000F0D3F8812000F0B0
:1006B000D0F8CF2000F0CDF8A12000F0CAF8C82073
:1006C00000F0C7F8A62000F0C4F8A82000F0C1F898
:1006D0003F2000F0BEF8D32000F0BBF8002000F06F
:1006E000B8F8D52000F0B5F8802000F0B2F8D92095
:1006F00000F0AFF8F12000F0ACF8DA2000F0A9F833
:10070000122000F0A6F8DB2000F0A3F8402000F053
:10071000A0F8202000F09DF8022000F09AF88D202B
:1007200000F097F8142000F094F8A42000F091F85D
:10073000A62000F08EF8AF2000F08BF80020FFF725
:1007400083FF0021BDE81040084600F06FB80000AC
:100750002DE9F04790468A4605460026DFF8489086
:100760001CE02038C7B27E2D04D90AF10100002513
:1007700000F0FF0A5146284600F058F807EB470002
:10078000002409EB4007385D00F085F8641CE4B2F2
:10079000062CF8D3AD1D761CEDB2F6B218F80600A3
:1007A0000028DED1BDE8F087F41200002DE9F04703
:1007B00092468946804600251B4E2FE02038C7B25E
:1007C000B8F1780F03D94FF0000809F1010909F0D9
:1007D000FF01404600F02AF85FF0000404EB071028
:1007E000305C00F058F8641CE4B2082CF6D309F130
:1007F0000100C1B2404600F019F8002404EB0710D4
:100800003044007A00F047F8641CE4B2082CF5D3B9
:1008100008F108006D1C00F0FF08EDB21AF80500A1
:100820000028CBD1BDE8F0871C15000010B50446A8
:10083000B031C8B200F00DF8102040EA141000F0FA
:1008400008F804F00F00BDE8104040F00100AFF3DD
:10085000008070B50546032000F092FC002405FAE4
:1008600004F000064FF0170002D500F091FC01E003
:1008700000F086FC042000F083FC0120FFF7DCFE82
:10088000042000F085FC0120FFF7D6FE641CE4B2D2
:10089000082CE4D370BD70B50546032000F078FC49
:1008A000002405FA04F000064FF0170002D500F00E
:1008B0006FFC01E000F064FC042000F061FC01200A
:1008C000FFF7BAFE042000F063FC0120FFF7B4FE3E
:1008D000641CE4B2082CE4D370BD000010B50146DE
:1008E0001C220348FFF7A8FD00F020F8002010BDEF
:1008F0000400002008B518B1012803D0022803D055
:10090000282002E02A2000E02C200222694600F084
:1009100049F89DF80100000201B29DF8000008436B
:10092000801108BD0F2000F069B8000010B50F4C11
:100930000F4A0321A06842F8201000F0A5FC0D49E1
:1009400020680860091F60680860091FE068086087
:100950000849A06914310860064900204431086044
:100960000449012010390860002010BD0400002057
:1009700000070050104500400149086000F002B82F
:100980001C4500404FF04020D0F808110029FBD052
:100990000021C0F8081102480068C0B2704700008A
:1009A0001845004070B515000E4604460DD011499B
:1009B0000020086000F074FC0F4944F0C00008609B
:1009C0005520FFF7D9FF012409E0022070BD552012
:1009D000FFF7D2FF3119641C01F8010CE4B2AC42FC
:1009E000F5D3FFF7CFFF311901F8010C00F04CFCF3
:1009F000002070BD084100401C45004010B50B4967
:100A000004460020086000F04BFC094924F0400037
:100A100040F0800008605520FFF7AEFFFFF7B2FFFF
:100A2000044600F031FC204610BD000008410040A3
:100A30001C45004010B504462020FFF7DFFF00F002
:100A40000F0040EA0410C1B2202000F003F800209B
:100A500010BD000070B50D4609490446002008602D
:100A600000F01EFC074924F0800008602846FFF7CC
:100A700083FFFFF787FF00F007FC002070BD000038
:100A8000084100401C45004010B5042000F058FB10
:100A9000172000F055FB182000F052FB032000F057
:100AA0004FFB162000F04CFB032000F049FB162002
:100AB00000F066FBBDE81040032000F069BB0000B9
:100AC0002DE9F0410746203A0024481C0D460C2B26
:100AD000D6B227D0782F01D90027C5B2294638468B
:100AE000FFF7A4FEDFF8688004EB061118F8010098
:100AF000FFF7D1FE641CE4B2082CF5D36D1CE9B2FB
:100B00003846FFF793FE00244FEA080504EB061071
:100B10002844007AFFF7BFFE641CE4B2082CF5D32A
:100B2000BDE8F0817E2F01D90027C5B2294638469D
:100B3000FFF77CFE074906EB460001EB4005285D08
:100B4000FFF7A9FE641CE4B2062CF8D3E8E7000026
:100B50001C150000F41200002DE9F05F0024DDF800
:100B600028801D4691468B4682460A274FEA580642
:100B700016E0281B401EC1B20A2000F0BBFAB9FBE8
:100B8000F0F0B0FBF7F107FB11003030C2B206FB0A
:100B900004A0C0B243465946FFF792FF641CE4B27A
:100BA000AC42E6D3BDE8F09F70B58A480023021D31
:100BB0000178101D0124062907D115782D0704D1CD
:100BC0000578C5F30315032D02D0062904D00FE0E4
:100BD000824E814D75670EE015782D0708D1057896
:100BE000C5F30315032D06D0042D04D0052D02D026
:100BF000062907D00EE07A4D2D687A4EC5F34235AE
:100C0000356002E015782D0704D10578C5F303158A
:100C1000032D02D0062906D011E0734D2E6826F070
:100C200080762E600EE015782D0708D10578C5F383
:100C30000315032D06D0042D04D0052D02D006295E
:100C400007D00EE0694D2B606B60664D2D1F2B6049
:100C500002E015782D0704D10578C5F30315032D9F
:100C600002D0062905D00CE05E4A032164321160EF
:100C70000AE015782D0704D10578C5F30315032D77
:100C800002D006290DD06AE0594A05211160584961
:100C900078310C60564908310B603F21121D1160FC
:100CA00002E0117809075AD10078C0F30310052833
:100CB00055D150480068504908604E48001D0068F2
:100CC000091D08604B4808300068091D0860494844
:100CD0000C300068091D0860464810300068091D86
:100CE0000860444814300068091D08604148183005
:100CF00000684149203108603E481C300068091DE9
:100D000008603C4820300068091D086039482430DC
:100D10000068091D0860374828300068091D086010
:100D200034482C300068091D0860324830300068B3
:100D30003149403108602F4834300068091D08608F
:100D40002C4838300068091D08602A483C3000688B
:100D5000091D0860274840300068091D08602248C6
:100D60007438016841F470010160BFF34F8FBFF325
:100D70006F8F4FF01021D1F80002002803DBD1F86B
:100D80000402002821DA1D4A14601D480468002C62
:100D9000FCD01524C1F800420568002DFCD0C1F834
:100DA000044201680029FCD0136001680029FCD0CE
:100DB000BFF34F8F0C48F0380168124A01F4E0612C
:100DC00011430160BFF34F8FFEE710490E480860E2
:100DD00070BD0000E00F00F00DF0ADBA00C007409C
:100DE000440200103C050040FCED00E00C01004016
:100DF000105600400404001020C5004004E50140E6
:100E000000E401400400FA050090D0032400002013
:100E100010B500F017FA03490870BDE8104000F063
:100E200023BA00002000002008B50020009008230D
:100E300007220621052000F0C5F908BD0FB4054BB7
:100E400010B503A9044A029800F018F810BC5DF828
:100E500014FB0000E10F00002800002002E008C899
:100E6000121F08C1002AFAD170477047002001E024
:100E700001C1121F002AFBD1704700002DE9FF4F6E
:100E800089B09B460446002597E0252833D10027EA
:100E9000641C4E49B84601222378203B02FA03F035
:100EA000084202D00743641CF6E720782E2819D1A7
:100EB00014F8010F47F004072A280ED06FF02F0214
:100EC0002078A0F1300109290CD808EB880102EB49
:100ED000410100EB0108641CF2E70A98641C50F819
:100EE000048B0A90207800286BD0642808D06928E9
:100EF00006D0752820D05A460B9990476D1C5BE0B0
:100F00000A994FF00A0901C90A91002804DAC0F1D0
:100F100000004FF02D0102E0390504D52B218DF89A
:100F20002010012103E0F90704D02021F7E78A46C9
:100F300008AE0EE00021FAE70A994FF00A0901C94C
:100F40000A91F7E74946FFF789FA01F1300106F8FF
:100F5000011D0028F6D1ADEB060000F1200978074D
:100F600001D44FF00108C84502DDA8EB090000E0FC
:100F700000208046002706E008A85A46C05D0B996D
:100F800090476D1C7F1C5745F6DB04E030205A4625
:100F90000B9990476D1CB8F10001A8F10108F5DC30
:100FA00005E016F8010B5A460B9990476D1CB9F1F4
:100FB0000001A9F10109F4DC641C207800287FF409
:100FC00064AF0DB02846BDE8F08F0000092801008D
:100FD0000249084490F93000704700002C000020BE
:100FE00010B50446C0B200F03FF9204610BD000025
:100FF00008B5FFF749FDFFF743FBFFF715FF00F0CA
:101000005BF9002127A20846FFF7D0FB28A20221A6
:101010000020FFF7CBFB2AA204210020FFF798FB5A
:101020002BA205210020FFF793FB2AA20621002016
:10103000FFF78EFB28A207210020FFF789FBFFF7AF
:10104000DBFA26A0FFF7FAFEFFF76CFC014627A0AB
:10105000FFF7F4FE0C244FF4FA780020FFF74AFC67
:1010600087B20120FFF746FC86B20220FFF742FC60
:1010700085B205233A4619460C200094FFF76CFD13
:101080000523324606210C200094FFF765FD052359
:101090002A4607210C200094FFF75EFD4046FFF72B
:1010A000C1FADAE74E6F726469635F4F4C454400E2
:1010B0006E52463532383332454B5F50524F000046
:1010C000472D73656E736F722064656D6F0000004D
:1010D000783D0000793D00007A3D00004F4C4544CA
:1010E0005F696E69745F6F6B210D0A0049443D258D
:1010F000640D0A000246012000E050430B00A1F1FC
:101100000101C9B2F9D1704730B541EA4201DDE9C8
:10111000034541EA8301044A41EA042141EA0541C9
:1011200042F8201030BD0000000700501CB500221E
:101130000B46009211460192FFF7E6FF1CBD00002E
:10114000024A032142F820107047000000070050B7
:101150001CB5002100910B46012201911146FFF7B9
:10116000D3FF1CBD054A02EB8000026822F4403226
:101170000260026842EA01410160704700070050C6
:101180000121814001480160704700000C050050BA
:1011900001218140014801607047000008050050AE
:1011A000034908B50844002101600068009008BDAB
:1011B0000060004002494058012800D000207047DC
:1011C000006000402DE9F04107461C4615460E46DA
:1011D0000846DDF81880FFF7BBFF00212046FFF727
:1011E000A5FF154806601448083004600124B8F1D2
:1011F000000F0FD03846FFF7ABFF00212846FFF75E
:1012000095FF0D48001D05600B48001F07600A4848
:101210006030046008490948183108600649042014
:101220000C3908600648846004600021C0F8081189
:10123000C0F81C11BDE8F0810C25004000E0D7018A
:1012400000200040064800BFD0F808110129FBD15A
:101250000021C0F8081103480068C0B270470000C0
:10126000002000401825004005490860054800BFDF
:10127000D0F81C110129FBD10021C0F81C117047C6
:101280001C2500400020004003480121007A8140D5
:10129000024801607047000004000020080500506B
:1012A00003480121007A8140024801607047000034
:1012B000040000200C050050054904200860054A80
:1012C000202111704FF0E021C1F8000170470000AB
:1012D0000423004002E400E01C00000019000000AC
:1012E0001B0000001D0000001E0000001F00000089
:1012F000000000400000000000000000002F00007F
:1013000000000700070000147F147F1400242A7FC8
:101310002A12006264081323003649552250000047
:101320000503000000001C224100000041221C00B7
:101330000014083E08140008083E0808000000A039
:101340006000000808080808000060600000002035
:1013500010080402003E5149453E0000427F400013
:10136000004261514946002141454B310018141299
:101370007F10002745454539003C4A494930000166
:101380007109050300364949493600064949291EB5
:101390000000363600000000563600000008142217
:1013A0004100001414141414000041221408000217
:1013B0000151090600324959513E007C1211127C3C
:1013C000007F49494936003E41414122007F414169
:1013D000221C007F49494941007F09090901003E5B
:1013E0004149497A007F0808087F0000417F410099
:1013F000002040413F01007F08142241007F40400F
:101400004040007F020C027F007F0408107F003EF6
:101410004141413E007F09090906003E4151215EDC
:10142000007F091929460046494949310001017FD9
:101430000101003F4040403F001F2040201F003F6F
:101440004038403F00631408146300070870080721
:1014500000615149454300007F41410000552A5534
:101460002A55000041417F000004020102040040AF
:1014700040404040000001020400002054545478D1
:10148000007F4844443800384444442000384444F1
:10149000487F00385454541800087E09010200188F
:1014A000A4A4A47C007F080404780000447D4000CC
:1014B000004080847D00007F102844000000417FB0
:1014C0004000007C04180478007C0804047800388C
:1014D0004444443800FC242424180018242418FC14
:1014E000007C0804040800485454542000043F447D
:1014F0004020003C4040207C001C2040201C003C40
:101500004030403C004428102844001CA0A0A07C8F
:10151000004464544C4414141414141400000000C7
:10152000000000000000000000000000000000F8C3
:1015300000000000000000333000000000100C0626
:10154000100C0600000000000000000040C07840C1
:10155000C0784000043F04043F040400007088FC8D
:1015600008300000001820FF211E0000F008F000E5
:10157000E018000000211C031E211E0000F0088856
:10158000700000001E2123241927211010160E00C0
:10159000000000000000000000000000000000E06B
:1015A0001804020000000007182040000002041880
:1015B000E00000000040201807000000404080F0DC
:1015C000804040000202010F01020200000000F012
:1015D000000000000101011F0101010000000000E6
:1015E0000000000080B0700000000000000000005B
:1015F00000000000000101010101010100000000E4
:10160000000000000030300000000000000000007A
:1016100080601804006018060100000000E0100857
:101620000810E000000F102020100F00001010F82C
:10163000000000000020203F20200000007008086B
:1016400008887000003028242221300000300888EB
:10165000884830000018202020110E000000C02013
:1016600010F8000000070424243F240000F8088834
:10167000880808000019212020110E0000E01088C1
:1016800088180000000F112020110E0000380808F3
:10169000C83808000000003F000000000070880803
:1016A00008887000001C222121221C0000E0100884
:1016B0000810E0000000312222110F00000000C0DD
:1016C000C00000000000003030000000000000807A
:1016D000000000000000806000000000000080406A
:1016E0002010080000010204081020004040404083
:1016F00040404000040404040404040000081020D6
:10170000408000000020100804020100007048081A
:101710000808F0000000003036010000C030C82882
:10172000E810E0000718272423140B000000C0383D
:10173000E0000000203C23020227382008F88888B7
:1017400088700000203F202020110E00C0300808C3
:1017500008083800071820202010080008F808089A
:101760000810E000203F202020100F0008F8888893
:10177000E8081000203F20202320180008F888885F
:10178000E8081000203F200003000000C0300808D7
:101790000838000007182020221E020008F8080060
:1017A0000008F808203F210101213F20000808F827
:1017B000080800000020203F20200000000008084A
:1017C000F8080800C08080807F00000008F888C00A
:1017D00028180800203F20012638200008F80800BB
:1017E00000000000203F20202020300008F8F800F2
:1017F000F8F80800203F003F003F200008F830C004
:101800000008F808203F200007183F00E0100808F3
:101810000810E0000F10202020100F0008F8080822
:101820000808F000203F210101010000E010080835
:101830000810E0000F18242438504F0008F888885A
:1018400088887000203F2000030C3020007088083A
:10185000080838000038202121221C00180808F848
:10186000080818000000203F2000000008F80800C9
:101870000008F808001F202020201F00087888009A
:1018800000C83808000007380E010000F80800F80A
:101890000008F800033C0700073C030008186880B4
:1018A0008068180820302C03032C30200838C8002A
:1018B000C83808000000203F200000001008080879
:1018C000C83808002038262120201800000000FE1B
:1018D000020202000000007F40404000000C30C0C7
:1018E00000000000000000010638C00000020202F3
:1018F000FE000000004040407F00000000000402A5
:1019000002020400000000000000000000000000CF
:1019100000000000808080808080808000020204BF
:1019200000000000000000000000000000008080B7
:10193000808000000019242222223F2008F8008025
:1019400080000000003F112020110E0000000080E8
:1019500080800000000E1120202011000000008077
:101960008088F800000E112020103F2000008080A9
:1019700080800000001F222222221300008080F0BD
:10198000888888180020203F2020000000008080E8
:1019900080808000006B94949493600008F800802D
:1019A00080800000203F210000203F200080989888
:1019B000000000000020203F2020000000000080E8
:1019C0009898000000C08080807F000008F8000028
:1019D00080808000203F24022D302000000808F87D
:1019E000000000000020203F202000008080808038
:1019F00080808000203F20003F20003F80800080CA
:101A000080800000203F210000203F2000008080D7
:101A100080800000001F202020201F008080008088
:101A20008000000080FFA12020110E000000008037
:101A300080808000000E112020A0FF808080800028
:101A40008080800020203F21200001000000808055
:101A5000808080000033242424241900008080E04A
:101A6000808000000000001F202000008080000017
:101A700000808000001F202020103F2080808000F8
:101A80000080808000010E30080601008080008008
:101A9000008080800F300C030C300F00008080002D
:101AA000808080000020312E0E3120008080800058
:101AB0000080808080818E70180601000080808008
:101AC000808080000021302C2221300000000000A6
:101AD000807C020200000000003F40400000000047
:101AE000FF00000000000000FF0000000002027C78
:101AF000800000000040403F00000000000601019F
:101B00000202040400000000000000002C1B000082
:101B1000000000202C0000005C0E0000581B00009C
:101B20002C0000205C2000006C0E00000000000073
:101B3000FFFFFFFFFFFFFFFFFFFFFFFFFFFFFFFFB5
:101B4000FFFFFFFFFFFFFFFF00000040000000005D
:081B50000090D003000000002A
:0400000500000401F2
:00000001FF
