:020000040001F9
:10C000004849002005C501000DC501000FC501000C
:10C0100011C5010013C5010015C501000000000095
:10C0200000000000000000000000000017C5010033
:10C0300019C50100000000001BC501001DC501005D
:10C040001FC501001FC5010085D301001FC50100E8
:10C050001FC501001FC5010075CB01001FC50100F0
:10C060001FC501001FC501001FC501001FC501003C
:10C070001FC501001FC501001FC501001FC501002C
:10C080001FC501009DD001001FC501001FC5010093
:10C09000F5D001001FC50100F9D001001FC5010046
:10C0A0001FC501001FC501001FC501001FC50100FC
:10C0B0001FC501001FC501000000000000000000B6
:10C0C0001FC501001FC501001FC501001FC50100DC
:10C0D0001FC501001FC501001FC5010000000000B1
:10C0E0000000000000000000000000000000000050
:10C0F0000000000000000000000000000000000040
:10C10000000000000000000000000000000000002F
:10C11000000000000000000000000000000000001F
:10C40000DFF80CD000F094FB00480047C5F50100B0
:10C4100048490020401E00BF00BF00BF00BF00BF52
:10C4200000BF00BF00BF00BF00BF00BF00BF00BF14
:10C4300000BF00BF00BF00BF00BF00BF00BF00BF04
:10C4400000BF00BF00BF00BF00BF00BF00BF00BFF4
:10C4500000BF00BF00BF00BF00BF00BF00BF00BFE4
:10C4600000BF00BF00BF00BF00BF00BF00BF00BFD4
:10C4700000BF00BF00BF00BF00BF00BF00BF00BFC4
:10C4800000BF00BF00BFC5D170470000401E00BF05
:10C4900000BF00BF00BF00BF00BF00BF00BF00BFA4
:10C4A00000BF00BF00BF00BF00BF00BF00BF00BF94
:10C4B00000BF00BF00BF00BF00BF00BF00BF00BF84
:10C4C00000BF00BF00BF00BF00BF00BF00BF00BF74
:10C4D00000BF00BF00BF00BF00BF00BF00BF00BF64
:10C4E00000BF00BF00BF00BF00BF00BF00BF00BF54
:10C4F00000BF00BF00BF00BF00BF00BF00BFC5D16D
:10C50000704700000648804706480047FEE7FEE700
:10C51000FEE7FEE7FEE7FEE7FEE7FEE7FEE7FEE7F3
:10C520001DD1010001C4010040EA01039B0703D0B3
:10C5300009E008C9121F08C0042AFAD203E011F862
:10C54000013B00F8013B521EF9D27047D2B201E024
:10C5500000F8012B491EFBD270470022F6E710B508
:10C5600013460A4604461946FFF7F0FF204610BD61
:10C570002DE9FE4F804681EA0300C00F0C46009073
:10C5800021F0004123F00045B8EB0200A94105D29B
:10C590004046214690461C460B46024623F000408A
:10C5A000104304D14046214603B0BDE8F08F270D6B
:10C5B000C7F30A00C3F30A510290401A01904028C1
:10C5C00066DAC3F3130040F4801B0098924620B152
:10C5D0000023D2EB030A63EB0B0B01985946C0F121
:10C5E0004002504600F053F906460D465046594663
:10C5F000019A00F05BF910EB08006141002487EA22
:10C60000115284EAE7731A433BD0009A3AB3019A75
:10C61000012A4FEA075210DC001B61EB02014FF0C8
:10C62000004202EA0752CDE90042001C41F58011A8
:10C6300032462B4600F08FF9B6E7001B61EB020192
:10C64000001C41F5801300185B412018A2F500176B
:10C6500047EB030140EAD570B6196D4111E06D0852
:10C660004FEA360645EAC0754FEA0752001B61EBF8
:10C670000201001C41F5801149084FEA3000001901
:10C68000514132462B4603B0BDE8F04F00F056B999
:10C690000098012240000023D0EB020263EBE0731C
:10C6A000009821464FEAE074B8EB000061EB04010A
:10C6B000E9E783F000435BE781F0004158E72DE9AB
:10C6C000FE4F81EA030404F0004421F0004100948D
:10C6D0004FF0000B23F0004350EA010402D052EA6D
:10C6E000030404D10020014603B0BDE8F08FC3F37A
:10C6F0000A54C1F30A552C44A4F2F3340194A0FB6C
:10C700000254C1F3130141F48011C3F3130343F442
:10C71000801301FB024400FB034E840A970A44EA9B
:10C72000815447EA8357A4FB076802958D0A05FBED
:10C7300007854FEA932C04FB0C542705029D4FEA12
:10C74000065847EA1637B5EB08056EEB070C870E5F
:10C75000920E47EA811742EA8312A7FB0201B6EB69
:10C760000B0164EB00042B0D43EA0C335E1844EB21
:10C770001C50DA465146E7FB0201C5F313044FEAA9
:10C780000B3343EA14534FEA0432019C43EA060395
:10C79000A4F10C040294009CCDE900B400F0DBF895
:10C7A000A2E700F0004230F000400AD0C10D01F5D0
:10C7B0006071C0F3160042EA0151C20840071143FC
:10C7C000704700200146704701F0004330B421F06B
:10C7D000004150EA010206D00A0DA2F56072C1F3D1
:10C7E0001301002A02DC30BC00207047440F44EAE9
:10C7F000C104C100E01830BC00EBC25000F068B8C2
:10C8000030B50B46014600202022012409E021FA20
:10C8100002F59D4205D303FA02F5491B04FA02F51D
:10C820002844151EA2F10102F1DC30BD2DE9F05FB4
:10C830000546002092469B4688460646814640248F
:10C840001BE0284641464746224600F083F95346FE
:10C850005A46C01A914110D311461846224600F09C
:10C8600016F82D1A67EB01084F46224601200021D9
:10C8700000F00DF817EB00094E41201EA4F1010451
:10C88000DFDC484631462A464346BDE8F09F202A71
:10C8900004DB203A00FA02F1002070479140C2F117
:10C8A000200320FA03F3194390407047202A06DB47
:10C8B000CB17203A41FA02F043EAE07306E041FA6E
:10C8C00002F3D040C2F1200291400843194670475C
:10C8D0000029A8BF7047401C490008BF20F0010094
:10C8E000704710B4B0FA80FC00FA0CF050EA010472
:10C8F00004BF10BC704749B1CCF1200421FA04F404
:10C9000011FA0CF118BF012121430843A3EB0C01DC
:10C91000CB1D0106000A002BBEBF002010BC7047D3
:10C9200000EBC35010440029A4BF10BC7047401C4A
:10C93000490008BF20F0010010BC704710B5002B63
:10C9400008DA401C41F1000192185B411A4301D101
:10C9500020F0010010BD2DE9F04D92469B4611B12B
:10C96000B1FA81F202E0B0FA80F220329046FFF78D
:10C970008EFF04460F4640EA0A0041EA0B01534687
:10C980005A46084303D120463946BDE8F08D11468A
:10C9900053EA010015D0C8F14002504600F0DAF821
:10C9A00005460E46504659464246FFF770FF08437B
:10C9B00001D0012000E00020054346EAE0762C4348
:10C9C00037430A984FEA4453A0EB08004FEAD424B7
:10C9D0000A304FF0000244EA47544FEAD72502D507
:10C9E00000200146D1E7010510196941DDE908453C
:10C9F00000196941BDE8F04DA0E72DE9F04D81EA4D
:10CA0000030404F0004B21F0004514464FF0000AE7
:10CA100023F0004150EA050220D054EA01021DD063
:10CA2000C5F30A570246C5F31303C1F31300C1F35C
:10CA30000A5640F4801543F48013A7EB0608101B38
:10CA4000D64608F2FD3873EB050002D308F1010861
:10CA500001E092185B41B8F1000F03DA00200146B3
:10CA6000BDE8F08D00204FF48011064684460EE0AC
:10CA7000171B73EB050705D3121B63EB0503064376
:10CA80004CEA010C49084FEA300092185B4150EA29
:10CA90000107EDD152EA030012D082EA040083EAD2
:10CAA0000501084303D100224FF0004308E0101BAA
:10CAB000AB4102D20122002302E06FF001025310C9
:10CAC0001AEB06004CEB085110EB0A0041EB0B018E
:10CAD000BDE8F04DFFF732BFC1F30A52C1F31301B5
:10CAE00040F2FF3341F480119A4202DA00200146FD
:10CAF000704740F233439A42A2F2334202DC524280
:10CB000000F028B8FFF7C3BE30B5002904DB4FF0B2
:10CB10000044404264EB0101002B04DB4FF0004471
:10CB2000524264EB0303994208BF904230BD0000BB
:10CB3000064C074D06E0E06840F0010394E807006A
:10CB400098471034AC42F6D3FFF75EFCCC0C0200E1
:10CB5000EC0C0200202A04DB203A21FA02F000212A
:10CB6000704721FA02F3D040C2F1200291400843FD
:10CB7000194670472DE9F84F0025DFF82491A846A3
:10CB80004FF4807701242E46384603F0FBF938B184
:10CB9000D9F80403204203D0384603F0E9F92543CD
:10CBA0003F1D6400761CBFB2082EEDD34FF4BE7457
:10CBB000204603F0E7F938B1204603F0D9F93948A7
:10CBC00045F00045D0F80080374F15F0FF0F13D027
:10CBD000012600242E420BD0344800EB8401086863
:10CBE0000968C0F3042057F82420C1F3014190479D
:10CBF0007600641C082CEDD3002D4FDA4FF0FF3087
:10CC00004FF0000A009000273C46274D291911F8E3
:10CC1000500F91F9001020F0C009491C2FD00121BC
:10CC2000009A01FA09FB1BEA020F28D08609484640
:10CC300002F008FA55F820500DB9032E1FD15946BD
:10CC4000032E01D14AEA010A194A52F829001BEAC7
:10CC5000080FC0F3014002D0022802D00FE00328E1
:10CC60000DD1032E07D1022816D00221484603F029
:10CC700069F97F1CFFB215B131464846A847641CCC
:10CC8000042CC2D3002F09D006480068404505D0C7
:10CC90008046CDF800A0B6E70321E7E7BDE8F88FAE
:10CCA0000060004010050050702700201065004013
:10CCB0000007005010B500F083F8044C84ED000A22
:10CCC00000F03EF884ED010A10BD00005C21002058
:10CCD00010B5002400F061F9802000F039F900F06F
:10CCE00088F9FE2000F034F900F083F900F06BF9C8
:10CCF0000F2002F07BFA00F050F9802000F028F9B4
:10CD000000F077F9E72000F023F900F072F900F065
:10CD10005AF9012002F077FA641CE4B2022C08D818
:10CD200000F03BF9812000F013F900F062F90028CF
:10CD3000EFD1002000F0D8F8BDE8104000F043B972
:10CD400070B500F02AF9802000F002F900F051F9E6
:10CD5000E52000F0FDF800F04CF900F034F9322045
:10CD600002F044FA00F019F9812000F0F1F800F027
:10CD700040F9012000F0B8F84FF6FF7101EA0025F4
:10CD8000012000F0B1F840EA0504002000F0ACF802
:10CD900000F019F900EE104ADFED070AB8EE400A7C
:10CDA00020EE200ADFED050A20EE200AF1EE080A47
:10CDB00030EE600A70BD00000000FA4200008037CB
:10CDC00070B500F0EAF8802000F0C2F800F011F928
:10CDD000E32000F0BDF800F00CF900F0F4F8322088
:10CDE00002F004FA00F0D9F8812000F0B1F800F068
:10CDF00000F9012000F078F84FF6FF7101EA0025F4
:10CE0000012000F071F840EA0504002000F06CF801
:10CE100000F0D9F800EE104AB8EE400A10EE100A01
:10CE2000FFF7BFFC9FED0E1B53EC112BFFF747FCE8
:10CE3000FFF7CAFC00EE100ADFED0B0A20EE200A15
:10CE400010EE100AFFF7ADFC9FED081B53EC112B01
:10CE5000FFF72FFCFFF7B8FC00EE100A70BD0000D2
:10CE6000D7A3703D0AF7654000008037CDCCCCCC0D
:10CE7000CC6C474010B50C2003F059F81A2003F091
:10CE800056F80C2003F06CF8BDE810401A2003F0AF
:10CE900067B810B500F04CF81A2003F048F800F01D
:10CEA0004FF8022002F0AFF90C2003F059F80220ED
:10CEB00002F0A9F9BDE8104000F03AB810B500F052
:10CEC00037F81A2003F033F81A2003F049F802204B
:10CED00002F099F90C2003F043F8022002F093F9D4
:10CEE000BDE8104000F024B870B50646002400F0FC
:10CEF000E1F8002500F01CF8022002F084F90C2073
:10CF000003F02EF86006040E00F0DEF808B1641C91
:10CF1000E4B2012002F077F96D1CEDB2082DE9D3DF
:10CF20001EB1FFF7B6FF204670BDFFF7C7FFFAE757
:10CF300002494FF480500860704700000C05005013
:10CF400002494FF080600860704700000C050050F7
:10CF500070B505461A2002F0EAFFFFF7E9FF00244A
:10CF6000280603D51A2002F0FBFF01E0FFF7E8FFD7
:10CF70006806050E022002F046F90C2002F0F0FFD0
:10CF8000022002F040F9FFF7D3FF022002F03BF944
:10CF9000641CE4B2082CE3D370BD10B51A2002F073
:10CFA000C6FF1A2002F0DCFF0C2002F0D9FF04209B
:10CFB00002F029F9FFF7C4FF042002F024F9BDE8CC
:10CFC0001040FFF7B5BF10B51A2002F0B0FFFFF711
:10CFD000AFFFFFF7B5FF042002F015F90C2002F0B7
:10CFE000BFFF1A2002F0BCFFBDE81040042002F091
:10CFF0000AB910B5002400F05DF81A2002F0B0FF65
:10D00000012002F000F90C2002F0AAFF012002F03A
:10D01000FAF807E0641CE4B2FA2C03D9FFF7D3FF57
:10D02000012010BD00F050F80028F3D1FFF780FF79
:10D03000002010BD00F01F020121914040094FF077
:10D04000E02202EB8000C0F88012704700F01F025F
:10D050000121914040094FF0E02202EB8000C0F82E
:10D060000011704700F01F020121914040094FF06C
:10D07000E02202EB8000C0F8001270474907090E59
:10D08000002803DA00F00F00024A00E0024A81544F
:10D090007047000014ED00E000E400E004480021C7
:10D0A000016441648164C1640160416003F082BA3B
:10D0B000001101401CB500211A20032300910A46EB
:10D0C000019102F005FF1CBD02480068C0F38060BA
:10D0D0007047000010050050002210B511461046A0
:10D0E00003F0CEF9002804D0BDE81040002003F082
:10D0F000A7B910BD03F002BA074810B5406830B1B7
:10D100008047002807D0BDE8104000F057BFBDE8B9
:10D11000104002F01BB910BD4421002070B58A48B0
:10D12000894A00230078121D111D0125062807D108
:10D130001478240704D10C78C4F30314032C02D010
:10D14000062804D00FE0824E804C74670EE01478FD
:10D15000240708D10C78C4F30314032C06D0042C44
:10D1600004D0052C02D0062807D00EE0794C2468A4
:10D17000794EC4F34234346002E01478240704D1B9
:10D180000C78C4F30314032C02D0062806D011E057
:10D19000724C266826F0807626600EE0147824070C
:10D1A00008D10C78C4F30314032C06D0042C04D04B
:10D1B000052C02D0062807D00EE0694C236063607E
:10D1C000654C241F236002E01478240704D10C78F6
:10D1D000C4F30314032C02D0062805D00CE05E4AE9
:10D1E0000320643210600AE01478240704D10C781C
:10D1F000C4F30314032C02D006280DD06AE0594A68
:10D2000005201060574878300560564808300360A4
:10D210003F20121D106002E0107800075AD10878F4
:10D22000C0F30310052855D14F4800684F490860E6
:10D230004D48001D0068091D08604B480830006813
:10D24000091D086048480C300068091D0860464800
:10D2500010300068091D0860434814300068091D3B
:10D2600008604148183000684049203108603E4855
:10D270001C300068091D08603B4820300068091D0B
:10D280000860394824300068091D08603648283095
:10D290000068091D086034482C300068091D0860CA
:10D2A0003148303000683149403108602E48343010
:10D2B0000068091D08602C4838300068091D0860A6
:10D2C00029483C300068091D086027484030006844
:10D2D000091D086021487438016841F4700101603B
:10D2E000BFF34F8FBFF36F8F4FF01024D4F80002BD
:10D2F000002803DBD4F80402002821DA1C4A156058
:10D300001C4801680029FCD01525C4F800520168AA
:10D310000029FCD0C4F8045201680029FCD0136035
:10D3200001680029FCD0BFF34F8F0C48F03801682A
:10D33000114A01F4E06111430160BFF34F8FFEE732
:10D340000F490E48086070BDE00F00F00DF0ADBA57
:10D3500000C00740440200103C050040FCED00E026
:10D360000C010040105600400404001020C500408D
:10D3700004E5014000E401400400FA050090D003F8
:10D38000A82000200348007F08B103F005BB03F08C
:10D390007DBA0000C82700200FB4054B10B503A9C3
:10D3A000044A029800F0C6F810BC5DF814FB0000B7
:10D3B000D3F201004021002002E008C8121F08C17A
:10D3C000002AFAD170477047002001E001C1121F06
:10D3D000002AFBD1704700002DE9FF5FDDE9022044
:10D3E000010DDDF838B0024310D10F9801244CA292
:10D3F000012808D0002100980F9BC0E90021C0E956
:10D400000243BDE8FF9F6FEA0B01F4E7A1F2FF3191
:10D4100044F6105041430D140F9801280ED0A5EB8F
:10D420000B00401C4FF000043E4EDFF8FC90B0F1C2
:10D43000000AA04605DACAF1000717E0CBF10000A8
:10D44000F0E7074612E0F80707D022463346404689
:10D450004946FFF734F9804689462246334610464E
:10D460001946FFF72CF904460E467F10002FEAD12B
:10D47000DDE90201BAF1000F42464B4602DAFFF73E
:10D480001EF901E0FFF7B9FA04460E460022274BC9
:10D49000FFF73AFB03D84FF0FF30014607E00022C8
:10D4A000234B20463146FFF763F8FFF715FB1024A6
:10D4B00009E0002C0ADB0A220023FFF7B7F9019BE1
:10D4C00030321A55641E50EA0102F2D1641C019AEE
:10D4D000C4F1110314440F9A012A09D00122084310
:10D4E00001D15B450FDD4FF0000205F101050DE0B4
:10D4F000084303D1A3EB0B056D1E09E000204FF09C
:10D50000110B0F9088E701DA00226D1E002A83D0EC
:10D5100000980F99C0E90231C0E9004571E70000A9
:10D5200030000000000024400000F03F0000F04305
:10D530000000E03F2DE9FF4F95B09B468946064627
:10D54000002512E2252878D10024761CF94A2746C6
:10D55000012105943378203B01FA03F0104202D0F8
:10D560000443761CF6E730782A2811D06FF02F0399
:10D570003078A0F13002092A16D8059A44F0020446
:10D5800002EB820203EB42021044761C0590EFE7A7
:10D5900059F8042B0592002A03DA504244F400544F
:10D5A000059044F00204761C30782E2816D116F827
:10D5B000010F44F004042A280DD06FF02F023078B8
:10D5C000A0F13003092B09D807EB870302EB4303D3
:10D5D000C718761CF3E759F8047B761C30786C2862
:10D5E0000FD006DC4C2817D068280DD06A2814D13B
:10D5F00004E0742810D07A280FD10DE044F4001410
:10D600000AE044F4801401E044F440147278824249
:10D6100002D1761C04F58014761C307866280BD075
:10D6200013DC582877D009DC002875D04528F6D0BF
:10D630004628F4D047281AD19FE118E0632835D056
:10D64000642879D0652812D197E1702873D008DC5E
:10D650006728F1D069286FD06E280DD06F2806D1C9
:10D66000B5E073282CD0752875D0782874D05A4628
:10D67000179990476D1C76E1C4F30250022809D037
:10D6800003280DD0D9F8001004280DD00D6009F141
:10D69000040968E1D9F80010EA17C1E90052F6E779
:10D6A000D9F800100D80F2E70D70F0E719F8041BAF
:10D6B0008DF8001000208DF80100EA46012003E0FB
:10D6C00059F804AB4FF0FF3061074FF0000102D46E
:10D6D0000DE008F101018846B9420FDA8045F8DB18
:10D6E0001AF808100029F4D108E008F10101884671
:10D6F0008142FADB1AF808100029F6D105985B463A
:10D70000A0EB080721463846179A00F09EFA2844F5
:10D7100000EB080507E04DE02BE10DE01AF8010BE6
:10D720005A4617999047B8F10108F7D25B4621464F
:10D730003846179A14E142E00A220092C4F30252DA
:10D740004FF0000A022A08D059F804CB032A4FEA06
:10D75000EC710AD00DE029E02AE009F1070121F07F
:10D760000702F2E802C1914609E00FFA8CFC4FEA89
:10D77000EC71042A03D14FFA8CFC4FEAEC710029BA
:10D7800007DA0A460021DCF1000C61EB02012D22D0
:10D7900002E0220504D52B228DF80420012203E0AB
:10D7A000E20701D02022F7E7904653E00A2102E089
:10D7B00010220DE010214FF0000A00910BE0102222
:10D7C0004FF0000A44F004040827009203E0082206
:10D7D0004FF0000A0092C4F30252022A05D059F811
:10D7E00004CB0021032A08D009E009F1070121F048
:10D7F0000702F2E802C1914605E01FFA8CFC042AF8
:10D8000001D10CF0FF0C4FF00008220722D5702840
:10D8100027D0009B83F0100353EA0A0309D15CEA86
:10D82000010206D030228DF804208DF80500022276
:10D830009046009B83F0080353EA0A030AD15CEA8E
:10D84000010201D1620705D530228DF804204FF086
:10D8500001087F1E582809D037A003900EA8029017
:10D8600013E040228DF804200122E1E737A0F4E71D
:10D8700053466046009AFEF7D9FF84460398825CBF
:10D880000298A0F10100029002705CEA0100EFD161
:10D89000029806A9A1EB000000F1200A600702D55A
:10D8A00024F4803400E00127574502DDA7EB0A008D
:10D8B00000E0002000EB0A01009005984144A0EB35
:10D8C00001000590E00306D45B462146179A0598AF
:10D8D00000F0BBF90544002706E001A85A46C05DE8
:10D8E000179990476D1C7F1C4745F6DBE0030CD56C
:10D8F0005B462146179A059800F0A7F9054404E015
:10D9000030205A46179990476D1C0099481E009088
:10D910000029F5DC08E0029802995A460078491C73
:10D920000291179990476D1CBAF10001AAF1010A02
:10D93000F1DC6BE109280100303132333435363700
:10D94000383961626364656600000000303132334B
:10D9500034353637383941424344454600000000EB
:10D9600000F060F9054406F10106307800287FF4E4
:10D97000E9AD19B02846BDE8F08F620700D406274C
:10D9800009F1070222F0070CFCE80223E14603F04C
:10D9900000485FEA080C02D00FF27C2C0DE05FEA31
:10D9A000045C02D50FF2742C07E05FEAC47C02D05D
:10D9B0000FF26C2C01E0AFF2700C4FF0FF3823F047
:10D9C0000043CDF850C065280CD006DC452809D0AE
:10D9D00046281DD047283ED13EE0662818D067284B
:10D9E00039D139E00021112F01DB112000E0781C32
:10D9F000CDE9000106A90EA8FFF7EEFCDDE90F0155
:10DA00000E9A03910021009207F1010A04914EE061
:10DA10004FF000400097CDE9011006A90EA8FFF7CE
:10DA2000DBFCDDE90F0203920E9B11990022DDF869
:10DA30000CA00093049219B907F1010100EB010A4F
:10DA4000B7EB0A0004D4C0F1FF3007F1010A0490DB
:10DA5000AAEB0700019046E0012F00DA0127002120
:10DA6000112F01DD112000E03846CDE9000106A9A3
:10DA70000EA8FFF7B1FCDDE90F010E9A039100211A
:10DA800004910092BA4621070CD40399514500DA5B
:10DA90008A46BAF1010F05DD009AAAF10101515C35
:10DAA000302908D0B84202DA10F1040F06DA012159
:10DAB000CDE9011017E0AAF10101E9E7002805DC32
:10DAC000049901440491AAEB000102E0411C514574
:10DAD00000DD8A460499A0EB010000F101000190ED
:10DAE0004FF000400290200704D40198504501DB1C
:10DAF000CDF8048000208DF84F0002980DF14F07FB
:10DB0000B0F1004F25D02B200E9002984FF0020864
:10DB100000280CDA404202902D200E9007E00A21E6
:10DB20000298FEF76DFE3031029007F8011DB8F142
:10DB30000001A8F10108F2DC02980028EFD1791E5B
:10DB40000E980870307800F0200040F0450007F88B
:10DB5000020D12A8A0EB070000F107081498007846
:10DB600000B1012000EB0A01019801EBE07105987A
:10DB70004144A0EB0100A0F101000590E00306D4B0
:10DB80005B462146179A059800F05FF80544149803
:10DB9000007820B15A461799904705F10105E00336
:10DBA00023D55B462146179A059800F04EF80544A8
:10DBB0001BE00498002807DBDDE90301884203DD50
:10DBC0000098405C179901E0179930205A46904719
:10DBD00004986D1C401C04900198401E019004D1D3
:10DBE0002E205A46179990476D1CBAF10001AAF1F0
:10DBF000010ADEDC05E017F8010B5A461799904739
:10DC00006D1CB8F10001A8F10108F4DC5B46214667
:10DC1000179A0598A4E600002D0000002B000000D4
:10DC2000200000002DE9F041044600251E4617465D
:10DC3000880405D406E039462020B04705F10105E7
:10DC4000641EF8D52846BDE8F0812DE9F041044670
:10DC500000251E469046C80301D5302700E0202746
:10DC6000880405D506E041463846B04705F1010570
:10DC7000641EF8D52846BDE8F0812DE9FC5F044616
:10DC800000201688154610800F46626B80464FF0C4
:10DC9000030B11214FF00209B2B11278032E01D209
:10DCA0000C200FE087F800902888401C80B2288064
:10DCB00039542888401C80B228803A542888401C57
:10DCC0002880002000287ED1226B4FF00C0AF2B190
:10DCD000288800F11203B34201D9504615E03954A7
:10DCE00028881021401C80B2288039542888401C84
:10DCF00028800F202B88115C401EF954298840B2DF
:10DD0000491C29800028F5DA404600285BD194F8A8
:10DD10002EC0BCF1000F07D033462A463946604674
:10DD200001F05AFB00284ED194F82D1031B1324643
:10DD30002946384600F090FD002844D1A17801B36F
:10DD40002888001DB04201D9504618E0684679DFA6
:10DD5000A8B92A8807F802B028881922401C80B286
:10DD600028803A542888401C80B22880C119BDF808
:10DD7000000002F07FFE29880844288040460028E1
:10DD800021D1E178D1B1288894F90310C21CB242A4
:10DD900001D90C2010E007F8009028880122401CCF
:10DDA00080B228803A542888401C80B22880395498
:10DDB0002888401C28800020002876D16168E1B1C5
:10DDC00091F9001000E070E02888C21CB24201D92D
:10DDD0000C2010E007F8009028880A22401C80B22E
:10DDE00028803A542888401C80B2288039542888DA
:10DDF000401C28800020002857D1218951B1CDE94D
:10DE000000563B460622022104F1080002F09AFE69
:10DE100000284AD1218A51B1CDE900563B4607225C
:10DE2000032104F1100002F08DFE00283DD1218B6A
:10DE300051B1CDE900563B461522142104F11800DA
:10DE400002F080FE002830D1D4F820C0BCF1000FD1
:10DE500007D033462A463946604601F051F900287A
:10DE600023D1D4F824C0BCF1000F07D033462A4692
:10DE70003946604601F0B0FC002816D194F82C1009
:10DE800039B133462A463946204602F03FFA002887
:10DE90000BD12178002908D002B033462A463946F2
:10DEA0002046BDE8F05F01F0C9BCBDE8FC9F10B59D
:10DEB00001220221002000F0CBFE08B1072810D17A
:10DEC00007220221012000F0C3FE08B1072808D173
:10DED00000210A22084600F0BBFE08B1072800D145
:10DEE000002010BD064800684FF40021044A814319
:10DEF000121D1160111D00F4002008607047000021
:10DF00000405005070B50024064D06E06868012144
:10DF100010F8340001F0FEFC641C28788442F5D32C
:10DF2000002070BD0C210020F8B516460C460546B1
:10DF3000052A01D20720F8BD01F0CAFD18B901F089
:10DF40009DFD0028F7D11148002145600470C0E90B
:10DF500002610F4E01610DE005EBC4017068009095
:10DF600088788DF8010008780A4A694601F024FD96
:10DF70000028E0D12000A4F10104E4B2ECD1BDE816
:10DF8000F840054A0021024800F04CB80C2100205E
:10DF9000C40C0200F5F201000DF20100BFF34F8F37
:10DFA00004480168044A01F4E06111430160BFF3D1
:10DFB0004F8FFEE70CED00E00400FA050EB50021DE
:10DFC0000091CDE901106A4644F20100FFF7E6FF37
:10DFD0000EBD10B58268C3689A1A03D001F066F9C5
:10DFE000002010BD052010BD29B112B1531E1342EF
:10DFF00003D0092070470E20704701608380002104
:10E000008160C1600846704710B58268C3689A1A7B
:10E0100083889A4203D801F053F9002010BD0420F0
:10E0200010BD0000074B9B6823B12AB120B10068E6
:10E03000037C1BB108207047072070474174426180
:10E0400000207047202100202DE9F04780469946A6
:10E0500014460D46900735D11C4F00268CB302F0B4
:10E0600043F80320C7F8149038702246BC60183477
:10E07000002105EB450302EBC100491C0670467008
:10E080008570446004EBC3040329F4DBFE607E70FA
:10E09000BE701420FEF7CEFF06211420FEF7EEFF1F
:10E0A0001420FEF7D3FF0A49C1F800800621112091
:10E0B000FEF7E4FF0648001F006838610020BDE855
:10E0C000F08701E00720FAE7BE60FBE7202100208F
:10E0D000081501402DE9F843DFF86C900D4617460E
:10E0E000D9F80810044649B344B3052D02D20720DD
:10E0F000BDE8F883606908B3607C012820D0002661
:10E1000002F0EEFCD9F80810804601EBC800694621
:10E1100002F004FDB0B1012101700C4944600968AE
:10E120000830E2C0D9F808109DF8000001EBC801E2
:10E1300048701420FEF796FF0020D9E70820D7E7A3
:10E140002E46DDE70420D3E72021002004150140FE
:10E15000F8B5124E0446B168E1B1DCB16069C8B1EE
:10E160000027277402F0BCFC0546B068694600EB46
:10E17000C50002F0D3FC78B1022101704460B068A0
:10E1800000EBC5019DF8000048701420FEF76AFFFF
:10E190003846F8BD0820F8BD0420F8BD2021002035
:10E1A00010B5044609488268C1688088891A81428E
:10E1B00006D10121064801F0DFFC08B1052010BDA1
:10E1C0002146BDE810400148FFF703BF502700205B
:10E1D000E120002070B50446234888B01E460D009B
:10E1E000426035D0A888296882B22048FFF7FCFE3B
:10E1F00000282ED1A889A96882B21C481030FFF7E8
:10E20000F3FE002825D1202219496846FEF78CF933
:10E21000A0680690207900B101208DF814008DF8D7
:10E220001C60607900B10E208DF81500E078029036
:10E23000A078039020780190607800900D4968469E
:10E2400001F050FC002804D19DF81D0018B104E035
:10E25000072008B070BD01F0D1FC03480121401C2B
:10E2600001F08AFCF5E70000E020002050270020A4
:10E27000840C0200E507020010B501460948FFF7CB
:10E28000C3FE04000CD101F0E5FD48B9064905487C
:10E29000FFF79FFE20B90121034801F053FD04461A
:10E2A000204610BD60270020E02000202DE9F0412D
:10E2B000044600781C4E012505FA00F03060206805
:10E2C00001F021FE0021606801F014FE1748184992
:10E2D000DFF85C80164A007F154F1C3108F10808F2
:10E2E0006432A0693B1D08F1040C0860607D217D4B
:10E2F00008431060D4E900011860CCF80010207DBC
:10E3000001280ED10021A06801F0F4FD207B85409A
:10E310003560E06801F0F7FDD4E902103860C8F814
:10E320000010BDE8F081000008050050C82700205B
:10E330000825004070B50D4692B01F21ADF8401081
:10E34000ADF84410002488B1C178490701D40722F0
:10E3500000E0002212B1104612B070BD10AA69464A
:10E36000FFF78BFC0028F7D16E4602E00026ADF8DF
:10E3700040406DB1E87800B107200028ECD111AA27
:10E3800008A92846FFF779FC0028E5D108AA02E091
:10E390000022ADF84440BDF84400C3B2BDF84000CF
:10E3A000C1B2304672DFD7E770B50D460499164604
:10E3B000040040D0F6B3414800224271C0E9033165
:10E3C000242231463E48FEF7AFF800F0B7F83C494A
:10E3D0003431A1F1100001602031816038215C38B6
:10E3E000FEF7BBF83649207838390870A078887075
:10E3F000E078C87060784870D4E90402C1E904028A
:10E40000D4E90202C1E90202D4E90602C1E9060226
:10E41000606AD0B101F1AC0000F10C024862826088
:10E42000636A1B880380606A4B6A8088988000203A
:10E430004B6A07E0FFE70E2070BD666AB668365C7F
:10E440001654401C9E888642F7D8A06AD8B11C4A50
:10E45000AC32A2F10C0082608862A36A9B88838040
:10E46000A06A8B6A0088188000208B6A04E0A66A84
:10E47000B668365C1654401C9E888642F7D894F8DD
:10E480002C0081F82C00206A48B10C481430086236
:10E49000226A52884280206A0A6A00881080606876
:10E4A00020B10648801D4860606848602946BDE884
:10E4B000704003483838FFF73DBF0000AC20002013
:10E4C0004826002010B501881B4C102918D00022C6
:10E4D00011291BD01B2918D1007A002815D1607989
:10E4E00001281CD0022820D0032820D004280CD1D9
:10E4F0002271E1681046002907D0BDE810400847A6
:10E50000817D012901D18088208110BD62708088C1
:10E5100021898842F9D1012002E02169EBE702203C
:10E5200000F03CF80028F8D110BD0320F8E70320E4
:10E5300020710420F4E70000AC20002002480021F4
:10E540008161818381777047AC200020114810B52C
:10E55000007801281BD1104C6078C0B9607910B1E7
:10E5600074DF002814D10B4901206070383906206F
:10E57000C870084800213838FFF7DCFE002807D1B2
:10E58000607900F00BF810B1216901B188470020D3
:10E5900010BD000048260020AC2000202DE9F04FDF
:10E5A000744C87B00026607106A8069601F08AFDBB
:10E5B0000127082801D030B903E006A800F090FE3A
:10E5C00018B9069808B12770C0E0FFF7B7FF6A4D89
:10E5D000DFF8A0814FF0020A687808F118084FF0C0
:10E5E000030B10B16079012806D0A87858B1607982
:10E5F000012801D002281FD1E16819B1E770082075
:10E60000884700E0E6706079012806D1687840B15B
:10E6100008F1010001F034FD18B16079022802D040
:10E620000AE084F805A0A87820B108F1010001F003
:10E6300027FD08B984F805B0287B4FF0040920B9FC
:10E640006079032801D184F80590287E20B960798B
:10E65000042801D166712671E16841B1607903280F
:10E6600001D0042803D1287808B16078C0B1A67021
:10E6700018216846FDF771FF8DF8006001968DF84E
:10E6800008600396607901280ED0022816D03A4E11
:10E690002436A6F15C0703281DD004284CD13AE0AB
:10E6A000A77007208847E3E7ADF81260CDF8048033
:10E6B0008DF80070ADF8106027713FE0CDF8048050
:10E6C0008DF800702889ADF81200A888ADF8100008
:10E6D00084F804A032E0A88AADF81200288AADF8C8
:10E6E00010002548243002F095FA18B1287808B1B6
:10E6F000607810B184F804B01EE01F488DF808A0BF
:10E70000039687F8039000213838FFF713FE00289E
:10E710001DD105202BE0A88BADF81000288CADF89A
:10E7200012001548243002F075FA18B1287808B1A3
:10E73000607878B184F80490607918B1684673DF26
:10E74000002804D1E16809B120798847002007B08A
:10E75000BDE8F08F08488DF808A0039687F803906D
:10E7600000213838FFF7E6FD0028F0D1062020719F
:10E77000E2E70000AC2000204826002070B50646E5
:10E7800001461C220F48FDF7CFFE0F4C00252570D7
:10E79000306830B1016861604068A060201D7ADF98
:10E7A00002E00948001D7BDF00280AD14FF6FF7008
:10E7B00060806570BDE87040044A00210448FFF79E
:10E7C00031BC70BD34270020CC200020810A02001B
:10E7D000700C020070B51E4C018800261B4BE289AC
:10E7E000102915D01B4D11291CD0122929D05029D0
:10E7F00017D130F8061F914213D14189022910D157
:10E80000007B10F0010F11D0BDE8704000F0C0BCDB
:10E81000818859808169D960C06918615E70002A59
:10E82000F2D070BD4FF6FF7058805E702868FFF719
:10E830008FFC0028F5D0A1690029F2D0BDE8704016
:10E8400008478168D960C0681861DDE7CC200020E6
:10E8500034270020700C02007CB5054608880C4661
:10E860000930904201D90C207CBD684671DF002838
:10E87000FAD121880820685420881B21401C80B2CE
:10E88000208029542088401C80B220802844DDF854
:10E8900001100160BDF8051081802088801D80B2C4
:10E8A00020809DF8001001B1012129542088401CCE
:10E8B000208000207CBD000010B50446FFF78AFFD1
:10E8C0002146074800F044F8204601F099FB204615
:10E8D000FFF7F8FD2046BDE8104000F0E7B8000063
:10E8E0008825002030B5040018480D4685B090E812
:10E8F0000E00C068CDE90012CDE9023023D015B377
:10E900004FF6FF70A0822868A0610020A075214604
:10E91000684663DF002814D120788DF812000120AA
:10E92000ADF81000A21C04A9A0DF002809D12946D7
:10E93000204601F011FC002803D12946204601F0B1
:10E940008FFE05B030BD0E20FBE70000740C020006
:10E9500000281ED000291CD00A88102A14D0112AA1
:10E9600014D0502A15D131F8062F038A9A4202D1C9
:10E970004B89022B0ED083889A420AD18369002BDF
:10E9800007D04A890C311847898801E04FF6FF719A
:10E9900081827047097B11F0010100D0012181754E
:10E9A000704707B584B068B1828AA2F57F43FF3B08
:10E9B0000AD0827D42B1BDF81820142A06D907205A
:10E9C00007B000BD0E20FBE70820F9E70022009207
:10E9D0000192029203928289039106A90291ADF8F5
:10E9E000002001218DF80210808A6946A6DFE7E742
:10E9F00000B5154887B000230068059048221349E8
:10EA000005A801F003FD08B1FFF7D8FA6A46012115
:10EA1000002001F0E5FC08B1FFF7D0FA0C4801F046
:10EA200025FC08B1FFF7CAFA684601F0CFFC08B12F
:10EA3000FFF7C4FA074801F0BFFC002801D0FFF738
:10EA4000BDFA07B000BD0000240C020064210020C4
:10EA5000E81F0020B9E801007CB50C00124D01460A
:10EA60004FF00000296017D0694600F0BDF888B962
:10EA700001A9012000F0B8F860B99DF80410002049
:10EA800009B1022103E09DF8001011B10B212170A2
:10EA900000E02070002806D16968002903D1BDE894
:10EAA0007C40FFF704BA7CBDA020002010B51B4CB1
:10EAB0000188606810290ED011292DD1401E606098
:10EAC0002AD1FFF7F4F9002826D02168002923D0A5
:10EAD000BDE810400847E0B900210122084600F0D7
:10EAE000B7F808B1072810D107220221012000F051
:10EAF000AFF808B1072808D104220221002000F055
:10EB0000A7F808B1072800D1002010B1216801B191
:10EB100088476068401C606010BD0000A020002095
:10EB200010B5032000F034FA08B1062800D1002007
:10EB300010BD00002DE9F047064600252C46DFF801
:10EB40009C80274802E0641C042C3AD250F8242010
:10EB5000B242F8D1042C34D2214BDFF88090214FFF
:10EB60000C3B09F11409D9B1012902D0022928D19D
:10EB700023E004EB44003D5C0744787860B1D8F8AA
:10EB80000400164A00EB80004100521C9868FFF711
:10EB9000A1FA08B988F80160B97809F8041010E002
:10EBA0009868FFF7D5FA04EB4400384419F80410CC
:10EBB0008078814205D1054603E004EB44003844E7
:10EBC0004578002D07D0D8F81010002903D028462A
:10EBD000BDE8F0470847BDE8F08700008820002026
:10EBE000400C0200E425002004280CD2074A1268D9
:10EBF000074B13F8203001209840904300D00120AB
:10EC00000870002070470020FAE70000100500504F
:10EC1000400C020010B5042807D0072810D00A289D
:10EC200012D1BDE8104001F0B2BB08481321408862
:10EC300076DF07E0002807D0BDE81040FFF7BEB937
:10EC4000FFF784FC0828F5D110BD000080200020CB
:10EC500030B503460020042B0DD2012A02D1012930
:10EC60000BD000220A4D03EB4304631969B101295B
:10EC700007D0022907D0072030BD03F10D02D2B220
:10EC8000F0E72A5530BD5A7030BD9A7030BD000093
:10EC9000E4250020054902460020097A11F0110FF1
:10ECA00002D0104600F058B87047000088200020BD
:10ECB00070B50E462249054600200A61C1E901658A
:10ECC00015F00D0F1BD00024012211462046FFF73E
:10ECD000BFFF641C042C02D20028F5D00FE070B9ED
:10ECE000720804211748FFF71FF940B9FFF70AF926
:10ECF00028B91448144A00211438FFF793F915F085
:10ED0000110F0AD0114A4FF4F01111600F4B00227D
:10ED10001B1D1A600D4A1032116000280FD10948DE
:10ED20000B4A00211C38FFF77DF9002807D1BDE808
:10ED3000704004480121074A1838FFF773B970BDC5
:10ED400088200020500C0200CDEF01000805005083
:10ED50002DF40100E5DE01002DE9F84F8A4FDFF8C0
:10ED600024A24FF4E012F96804468A43009100207F
:10ED700079680AF104052E1DDFF810C24FF400383F
:10ED80004FF4802B01EB810E8146182C16D2DFE860
:10ED900004F00C17173C5062778A8C958C95F4A779
:10EDA000A7A7A7A7D1D8E1E9F4F4009A4FF4F0118E
:10EDB00091432960C6F8009087F80090BDE8F88F6D
:10EDC0002A604846C6F80090DAF8002082F4F01273
:10EDD00092030AD5C5F800803060022C02D14FF4AE
:10EDE000E1600BE04FF47A6008E0C6F8008028602C
:10EDF000022C01D1C82001E04FF4C8706422B0FB9E
:10EE0000F2F041433C70002262E02A604846C6F8B6
:10EE10000090DAF8002082F4F012920305D5C5F8CC
:10EE2000008030604FF44870E8E7C6F80080286042
:10EE3000E0E72A604846C6F80090DAF8002082F43D
:10EE4000F012920303D5C5F800803060CAE7C6F817
:10EE500000802860D0E72A604846C6F80090DAF8BB
:10EE6000002082F4F012920303D5C5F800803060D0
:10EE700002E0C6F8008028603C704FEA410126E0BD
:10EE80002A604846C6F80090DAF8002082F4F012B2
:10EE9000920303D5C5F80080306002E0C6F8008018
:10EEA00028603C7013E02A604EE0DAF800002BEA9C
:10EEB00000022A6000F48020306008E0DAF80000E8
:10EEC0002BEA0001296000F48020306071460022A6
:10EED000DCF80000BDE8F84FFFF7FCB829602EE031
:10EEE000E046DCF80400FFF733F9D4F1110100D05B
:10EEF00040B1F96801F4F0112960C6F80090C7F834
:10EF00000C905BE74FF40022FA6001290BD9C8206E
:10EF100041436420B1FBF0F1786800224143D8F806
:10EF20000400FFF7D7F8F96801F4F0113160C5F873
:10EF3000009043E74FF4F0112960C6F800903C7050
:10EF40003CE74FF4E01129604946C6F80090C6F846
:10EF50000080C3E74FF4D01129604946C6F80090FD
:10EF60005A4607E04FF4C01129604946C6F80090A0
:10EF70004FF4C0223260B1E7FFE74FF4F011316087
:10EF80004946ABE70405005088200020340C0200FD
:10EF9000F0B500210B4E0C4F012556F8212007EB50
:10EFA00082031C6805FA01F2024000D0032224F417
:10EFB000403444EA02421A60491C0429EDD300207F
:10EFC000F0BD0000400C0200000700500078022154
:10EFD000FFF7B0BD05494FF0FF32082841F8202067
:10EFE00002D3084480F848207047000070270020B2
:10EFF000F0B506464FF0FF30002A02D04FF0000374
:10F0000001E04FF0080302D04FF0080501E04FF097
:10F010000C050B4C04E054F823707F1C03D05B1CE0
:10F02000AB42F8D3F0BDA51958B285F8300044F8CA
:10F030002310002AF6D1E11881F84860F0BD0000E5
:10F04000702700200249084490F930007047000002
:10F05000702700202DE9F05F2649C868F0B3DFF87B
:10F0600098B007688946DBF800400E69A01B20F0C5
:10F070007F45C878ED1CB0B9DFF880804FF4803050
:10F08000C8F84403C8F804031120FDF7D3FF11208A
:10F09000FDF7DCFF4FF0010AC8F800A02F20FDF7B4
:10F0A000B9F989F803A0BD4200D23D46124AA81919
:10F0B0003C3220F07F401060DBF800105B46091BFB
:10F0C00021F07F41001BC91C20F07F4081420FD9F5
:10F0D000186810602F20FDF79DF900E004E0BDE8FE
:10F0E000F05F1120FDF7BEBFBDE8F05F00F0FCBF90
:10F0F000BDE8F09F202100200415014000100140D0
:10F100002DE9F0410D4611880646881D14469842A7
:10F1100002D90C20BDE8F0813088062814D34FF4C2
:10F1200048674FF6FF73B84201D998420CD17288F4
:10F13000062A09D3BA4201D99A4205D1984205D08C
:10F140009A4203D0904201D9072000E00020002815
:10F15000E0D10520685420881221401C80B2208014
:10F1600029542088401C80B220804119308801F049
:10F1700081FC2188084480B220804119708801F008
:10F1800079FC2188084420800020C3E7FEF716BFE1
:10F19000F8B5134800F012F9114D0026114C0C3D42
:10F1A00030B16169B9B101208DF80000684611E005
:10F1B000287820B1616971B18DF80060F6E7687850
:10F1C00058B1A168084800220068FEF783FF10B11B
:10F1D000A16901B188472E70F8BD6168F2E70000AF
:10F1E000D820002034270020700C020031B540F2F6
:10F1F000E73404E0491E20460091FDF747F90099E5
:10F200000029F7D138BDFDF741B900002DE9F041E3
:10F2100000250126144F22E078683A6900EBC50406
:10F22000207806FA00F1114217D08A433A6100F0C3
:10F230001BFC02462078FB6806FA00F1194002FA2E
:10F2400000F3994209D16178012901D0012100E040
:10F2500000215140626802B190476D1CEDB23878D0
:10F260008542D9D3BDE8F0810C2100200E4A10B5AB
:10F27000517894780023A14212D0491CC9B2517030
:10F28000022900D1537008495378183151F82310DE
:10F2900001601069084420F07F401061012010BD1A
:10F2A0000360002010BD00002021002082688388B8
:10F2B0001A4003689A5C0A708168491C8160704733
:10F2C000C26883881A4003689954C168491CC160A8
:10F2D000704710B50446C0B2FEF7CEFF204610BD01
:10F2E00020B10349496D0160002070470320704739
:10F2F000E02800202DE9F041124E07460124BC40D1
:10F300003068FEF725FF002805D10F4D28692042FF
:10F3100003D0A0432861BDE8F081384600F0A4FB8B
:10F320000028E86801D0204300E0A043E860286995
:10F3300020432861A9683068BDE8F0410022FEF74B
:10F34000C9BE0000C40C02000C210020F8B51A4E02
:10F35000307800282ED0306928B10025F06820B11F
:10F36000002425B110E00125F8E70124F9E76846FB
:10F3700052DF052803D020B1FEF720FE04E001256E
:10F3800002E031690098884784B97088ADF80000C0
:10F390006946B06861DF052803D020B1FEF70EFE94
:10F3A00004E0012402E0D6E902018847002DD8D00C
:10F3B000002CD6D0F8BD000044210020054940882B
:10F3C0000A88904204D34988884201D801207047B6
:10F3D00000207047D020002030B51488E51C9D42E5
:10F3E00001D90C2030BD02250D5513881C245B1C4F
:10F3F0009BB21380CC5413885B1C9BB213800128F2
:10F4000007D0022807D0032807D0042807D00720F8
:10F4100030BD002004E0012002E0CD5401E00320D3
:10F42000C8541088401C1080002030BD0448017A68
:10F4300011F0110F02D00078FFF78EBC704700006A
:10F4400088200020F0B5294F4FF0000C3C78D7F809
:10F450000CE03EE0B86800EBC403197836E001EB3D
:10F4600041025868491C00EBC2009A78C9B28A422E
:10F4700000D100210278022A03D0032A26D1F8689D
:10F4800022E0FA6845681646104603E0A84203D019
:10F490000246C069D0B1F9E7C0B1824208D1F5692E
:10F4A000FD602DB9124E0125B560C7F810C03D7141
:10F4B0000568C069D06148B102682A44026005E06D
:10F4C00080F810C0C069F8600028F9D158788842E7
:10F4D000C5D12000A4F10104E4B2BBD1F8687045A5
:10F4E00001D00120F0BD0020F0BD0000202100204F
:10F4F000001001402DE9F0470546304800278046BE
:10F500000678D0F80C904BE0D8F8080000EBC60461
:10F5100040E015B12846ED691EE02078616800EBF7
:10F520004002401CC0B201EBC2012070A2789042A0
:10F5300000D127700A784868012A2DD1027C5ABB75
:10F540008A684260CA6882600A69C26049698161EA
:10F5500098F8041001B147604168D8F81020DFF82E
:10F5600060C08B1A23F07F43634502D2816819443F
:10F5700006E0511A826821F07F418A4202D9511A6D
:10F58000016000E007604760012187600174C76186
:10F5900000F0F2FF002DBCD1207861788842B8D10C
:10F5A0003000A6F10106F6B2AED1D8F80C104945EC
:10F5B00002D00120BDE8F0870020FBE720210020D9
:10F5C000FFFF7F000023A8B0664A05211846FEF71A
:10F5D0003BFD08B1FEF7F2FC634A04AB121D07CAFB
:10F5E00007C36248009062494FF48070CDE9010181
:10F5F000039006235F4A694604A8FEF7EBFD08B1B5
:10F60000FEF7DCFC5CA0FDF7C7FEFDF765FDC8203A
:10F61000FFF7ECFDFDF72EFC5BA0FDF7BDFEFDF74F
:10F6200057FBC820FFF7E2FD5C4A40F6CD411D20A4
:10F63000FFF73EFB08B1FEF7C1FC69460020FFF76B
:10F640000BFA08B1FEF7BAFC9DF8000002287CD046
:10F6500000208DF89800FFF7CBF99DF8080050A125
:10F6600020F00F00401C20F0F00010308DF8080052
:10F670000C2202A87CDF08B1FEF7A0FC0024009455
:10F680001020ADF800003C200194ADF80200ADF868
:10F6900004404FF4C870ADF8060068467ADF08B140
:10F6A000FEF78CFC4248009069464248FFF71AF981
:10F6B00008B1FEF783FC382101A8FCF74EFF0220B9
:10F6C0008DF804008DF8064005208DF807003821DC
:10F6D0000FA8FCF742FF384801251490ADF84C50B4
:10F6E00024211DA8FCF739FF40202190B42022904E
:10F6F0008DF88050314B1DAA0FA9009401A8FEF788
:10F7000053FE08B1FEF75AFC1C216846FCF725FFA2
:10F710004FF42030CDE900404FF4702002900320D8
:10F720008DF80C002648059026480690ADF80E404E
:10F730008DF810406846FFF721F808B1FEF73EFC4F
:10F7400021A0FDF729FE032000E002E0FEF726FFDE
:10F7500002E001207DE748DF0028FCD0FEF72EFC08
:10F76000F9E70000C0230020240C0200C021002083
:10F77000C022002025070200554152545F696E697E
:10F7800074210D0A000000004932435F687475322D
:10F7900031645F696E6974210D0A000015EC010087
:10F7A0004E6F726469635F48545532310000000047
:10F7B000B5FF01008825002084200020DBFF010028
:10F7C000650002008DF101005541525420537461CF
:10F7D0007274210D0A00000070B5054680880E463F
:10F7E0001446801C1188821C0A449A4201D8FE28C3
:10F7F00001D90C2070BD401C70542088FF21401C92
:10F8000080B2208031542088401C80B22080811931
:10F81000288801F02FF92188084480B22080AA8826
:10F8200042B1A96841B13044FCF77EFE2088A98826
:10F8300008442080002070BD072070BDF8B50F4639
:10F84000017814460546012901D1687830B1208835
:10F85000821C9A422DD8012902D006E00720F8BD6B
:10F8600069780144891C994223D8181A801E86B2EF
:10F87000ADF800602188B81C084469467DDF002887
:10F88000EDD12978022905D1BDF80000B04201D898
:10F8900009200AE00820012905D16978B14202D87F
:10F8A000ADF8001001E0ADF80060BDF80010FE29D1
:10F8B00001D90C20F8BD2288491CB9542188491C63
:10F8C00089B2218078542088401C2080BDF8001027
:10F8D000084420800020F8BD4907090E002804DAFA
:10F8E0000A4B00F00F021A4401E0094BC2181170D4
:10F8F00000F01F020121914042094FF0E02000EB8F
:10F900008200C0F88012C0F80011704714ED00E0CA
:10F9100000E400E02DE9F0410F46804600F0BAFB1C
:10F920000125214E0028404618D0FFF78BFB3044BC
:10F9300090F848008009032802D001280CD005E087
:10F940001A48006805FA08F5284205D00321404608
:10F95000BDE8F04100F0F6BA0221F8E700F0A6FB9E
:10F9600000281ED04046FFF76DFB04464FF4807020
:10F9700000EB84000E4A81B202EB8400026842F080
:10F9800001020260084600F0F3FA002F09D0404659
:10F99000FFF758FB56F82000002802D00548A54084
:10F9A0000560BDE8F08100007027002010050050C0
:10F9B00010650040046300402DE9FC41DFF89880A9
:10F9C000054608EB0500002790F930001346C017E4
:10F9D0000C46401C01D008273AE0E2781946284638
:10F9E000FFF706FB0646401C31D0A07838B11B4813
:10F9F00000EB8500016821F00201016007E00021B1
:10FA00006378284600910A46019100F02BFAE078CD
:10FA1000A0B11348217800EB86000268114B1A4010
:10FA200002604FF4F8524FF4403302EA052203EA31
:10FA300001410A4301680A43026009E008EB06003D
:10FA4000227810F8481F41EA8211017000E0042773
:10FA50003846BDE8FC8100007027002000070050F8
:10FA600010650040FFE0FCFF03490968C14011F048
:10FA7000010000D0012070471005005070B5124DF4
:10FA800095F8540008B1082070BD0020411E2A18C6
:10FA9000401CC0B282F830102028F8D30024204641
:10FAA000FFF798FA641CE4B20C2CF8D30621084640
:10FAB000FFF712FF05494FF000400860012085F86C
:10FAC0005400002070BD0000702700200463004037
:10FAD000034890F85400002800D00120704700002F
:10FAE000702700202DE9F0411D4D04460F46E87EA9
:10FAF00010B10820BDE8F08104B91A4C607F287766
:10FB00002046FEF7D3FB6F60206928601648002668
:10FB1000B7B1217F2A7F4AB100F58870066006617F
:10FB200046614663114AC0F8F42106E0C0F81C6142
:10FB3000C0F844610E4AC0F804230220FFF7CCFE4F
:10FB4000297F0C4809B1082100E004210160EE750D
:10FB50002E76AE750120E876AE760020CAE700006A
:10FB6000C8270020A40C020000200040100302005F
:10FB700080000200002500402DE9F0411D4D2B7F43
:10FB80003BB14FF40052B2EB104F02D01020BDE851
:10FB9000F081194E6C6800224FF404774FF4017C19
:10FBA0002CB113B1C6F8087301E0C6F808C395F884
:10FBB00017E0BEF1000F0ED02A7E42B12CB113B176
:10FBC000C6F8047301E0C6F804C31120DFE728611A
:10FBD0000122297604E0E9750024E8606C762C7631
:10FBE0001BB1BDE8F04100F063B8BDE8F04100F0A2
:10FBF00015B80000C82700200020004010B5064CB2
:10FC0000207F002806D1A07E002803D100F022FB2F
:10FC10000120A07610BD0000C82700202DE9F05F6C
:10FC2000214FB87E104301D100F014FB1F4E7868BD
:10FC300030B14FF40170C6F804030020BDE8F09F16
:10FC40004FF000094FF4A27AC6F844914FF4927B2A
:10FC50005946304600F09EF905464FF4847130460F
:10FC600000F098F980465146304600F093F904467A
:10FC700048EA04012943EBD055EA040005D100F01D
:10FC800051FAF87D797E8842E2D887F817900DB155
:10FC90000320D3E70CB10F20D0E7B97E012009B1D2
:10FCA0003060CAE77060C8E7C82700200020004025
:10FCB0002DE9F05F204E00274FF48873C6F81071CD
:10FCC0004FF4A274C6F844711C4D2860281D0160D1
:10FCD0008AB1D6F8000240F02000C6F80002DFF832
:10FCE0006080D8F8040048B14FF40470C6F80403EB
:10FCF0000020BDE8F09F01203060F0E79A46A14661
:10FD00004FF4927B5146304600F04FF90546494684
:10FD1000304600F04AF904465946304600F045F9AD
:10FD200025430543EED088F8177008B10320E0E7BB
:10FD3000002CDDD00F20DCE70020004034250040FF
:10FD4000C82700202DE9F047204E0246307F38B109
:10FD50004FF40050B0EB124F02D01020BDE8F087F6
:10FD600000F078F808B11120F8E7B1750023B2600F
:10FD7000B382307F28B3164F00244FF4907098461A
:10FD8000C7F820314FF4AC73C7F85881114D2A6081
:10FD90002A1D11600121B960716881B982469946B6
:10FDA0005146384600F001F905464946384600F00C
:10FDB000FCF80543F4D000B10F2486F816802046E5
:10FDC000CCE7BDE8F04700F007B80000C8270020E6
:10FDD00000200040442500402DE9F0471B4E4FF025
:10FDE00000084FF48E77C146C6F81C814FF0010A17
:10FDF000C6F808A000F020FC154CB515606868B185
:10FE000020E03946304600F0C5F810B9A08AA84273
:10FE1000F7D1A08AA84201D000F00EFCA08AA17DF3
:10FE20008842EED3A08AA84202D14FF00F0807E023
:10FE30003946304600F0AEF80028F9D0C6F80CA0DC
:10FE400084F816904046BDE8F0870000002000408E
:10FE5000C82700200248807D002800D0012070477C
:10FE6000C827002030B541EA4201DDE9034541EAF7
:10FE70008301044A41EA042141EA054142F8201085
:10FE800030BD00000007005030B541EA4201DDE915
:10FE9000034541EA8301044A41EA042141EA05415C
:10FEA00042F8201030BD00000007005030B541EA94
:10FEB0004201DDE9034541EA8301044A41EA0421A4
:10FEC00041EA054142F8201030BD00000007005013
:10FED00030B541EA4201DDE9034541EA8301044AC4
:10FEE00041EA042141EA054142F8201030BD0000FA
:10FEF000000700501CB500220B46009211460192EB
:10FF0000FFF7C2FF1CBD1CB5002100910B4601226A
:10FF100001911146FFF7B8FF1CBD1CB500210091EF
:10FF20000B46012201911146FFF7C0FF1CBD1CB515
:10FF3000002100910B46012201911146FFF7C8FFF5
:10FF40001CBD0000054A02EB8000026822F440322A
:10FF50000260026842EA01410160704700070050F8
:10FF600001218140014801607047000008050050F0
:10FF7000034908B50844002101600068009008BDED
:10FF80000060004002494058012800D0002070471E
:10FF9000006000404058002800D001207047D0F891
:10FFA0000403084000D0012070474058002800D0CA
:10FFB0000120704770B516460D46002405E0285D07
:10FFC000FEF75AF90028FAD1641CB442F7D30A208C
:10FFD000FEF752F90028FAD170BD10B550B10328D0
:10FFE0000CD10220FEF756FE002807D0BDE81040D5
:10FFF000FDF7E4BFBDE8104000F0C9B910BD000036
:020000040002F8
:1000000070B50188164C0546102911D0112917D05A
:100010002046132940881DD052291AD100231A46A0
:100020001946A9DF002814D0BDE87040FDF7C6BF0F
:100030000720FEF72FFE08B1FDF7C0FFA88807E0F4
:100040000020FEF727FE08B1FDF7B8FF4FF6FF705E
:10005000608070BD00231A4685217FDFE2E7000043
:10006000802000200078002807D104483B214088E8
:1000700076DF002801D0FDF7A1BF70478020002067
:100080000021425C0AB101207047491C0629F8D3BF
:10009000002070470449084490F93000082801DB2B
:1000A0000120704700207047702700200449084451
:1000B00090F93000082801D20120704700207047D5
:1000C0007027002006490979490701D408207047A4
:1000D00020B1044949780160002070470E20704724
:1000E000E8200020E827002070B501260A487104A6
:1000F00000250160094C4810C4F84803C4F80803FF
:1001000066602F20FCF786F9A660054C2F2025613C
:10011000FCF780F9E57070BD80E100E0001001405F
:1001200020210020094810B50949C47D0023094A4F
:10013000C1F808313CB11168437EC268D154417E98
:10014000491C417610BD106810BD0000C827002072
:10015000002000401825004030B58FB0002405462F
:100160000D949DF834001C2120F00F00401C20F05D
:10017000F00010308DF834009DF8350020F00F00AD
:10018000401C20F0F00010308DF835009DF836004E
:1001900020F00600801C8DF836006846FCF7DDF97B
:1001A0009DF80000019440F010008DF800000DA8AB
:1001B000CDE904400394069428788DF83A00032092
:1001C000ADF838000C949DF83000142120F00F0099
:1001D000401C20F0F00010308DF830009DF8310008
:1001E00020F00F00401C20F0F00010308DF831009E
:1001F0009DF8320020F00600801C20F0180040F02E
:1002000001008DF8320007A8FCF7A7F90EA80790A7
:100210000CA808900120ADF824001420ADF8264069
:10022000ADF82800688805F10C0307AA6946A2DF2B
:100230000FB030BD1FB501228DF8080004488DF8BD
:1002400000200191D0E90012684690471FBD0000D0
:10025000C827002004480021C0F82411C0F8081164
:1002600001210160704700000020004008B50249EC
:100270000020009108BD00008020002010B5012161
:10028000202803DA1D4A8140114004E0402805DAA5
:10029000A0F12002914001B1012131B1002807DA1B
:1002A000174A00F00F01114404E042F2010010BDB2
:1002B000144A811809784909082914D299B10129E9
:1002C00011D004290FD005290DD00F4B9C6800F0E8
:1002D0001F0201219140400944B153F820200A43F4
:1002E00043F8202008E042F2020010BD4FF0E02267
:1002F00002EB8000C0F80011002010BDFC06FFBC1E
:1003000014ED00E000E400E0382900202DE9F04180
:100310008046806A14460F46B0B300262EE0D8F817
:10032000280006EB460100EB8105A888801CFE280A
:1003300002D90C20BDE8F0812188401C7854208827
:100340001621401C80B2208039542088401C80B285
:100350002080C119288800F08DFB2188084480B2D4
:100360002080AA8842B1A96871B13844FCF7DCF852
:100370002088A98808442080761CF6B298F82C00C2
:10038000B042CCD80020D5E7FFE70720D2E710B570
:100390000020FEF77FFC08B1FDF710FEFEF7C0FB62
:1003A00008B1FDF70BFE3CDF002803D0BDE810408C
:1003B000FDF704BE10BD000018B10349C86000205D
:1003C00070470E2070470000442100201CB50349EF
:1003D00001910091694660DF1CBD00008020002073
:1003E00070B50E460546144614211046FCF7B5F8C4
:1003F000012121800020206120732672657205B1E1
:10040000A172002070BDFDF7C9BD000030B409B174
:100410008C0702D0072030BC7047074CA160628077
:100420000649636010DF0028F5D10120207030BC40
:100430001620FFF723BF000044210020070402001C
:100440001CB5002818D04FF0402411D14FF01D00EA
:10045000FFF763FD1920FFF760FD00231C200093C8
:100460001A4619460193FFF721FD0C20FFF755FDB1
:100470000120C4F800051CBD004CE6E70030004038
:1004800010B500282BD04FF0402013D14FF01D03A2
:10049000C0F808354FF01903C0F80C354FF01C03B5
:1004A000C0F81035124C4FF480532360114C4FF0BC
:1004B0000C0323604FF08053C0F8243531B101297B
:1004C0000FD002290FD003290FD000210AB141F02B
:1004D0000101C0F854150021C0F8081110BD0648EC
:1004E000D3E70221F2E70421F0E70621EEE700005E
:1004F0000805005058210020003000402DE9F84345
:100500001C4F00256846D7E90396FEF7AFFE8046EC
:10051000FEF798FF04465FEA0800A8461DD00021B8
:10052000009816E02268824202D9101A206013E077
:10053000801A1144C4F80080E269FA60E268234638
:100540003AB106EB010C2CF07F4CC4E901C2DD612D
:100550002546FC68002CE5D101242846FEF7CAFF99
:1005600000B914B14846FEF775FD87F80480BDE870
:10057000F88300002021002010B50D4CE16831B156
:1005800002680B689A4204D89A1A0A60C161E06056
:1005900010BD0C4603E00C46C969D21A21B10B68A4
:1005A0009342F8D39B1A0B600260C161E06110BDF9
:1005B000202100202DE9F0411D4FFC68002C35D092
:1005C0001C48002600683969B046401A20F07F4573
:1005D0002068A84215D822462D1A0644E469107CEA
:1005E00068B182F810807B6933B1D2E90501984780
:1005F00028B1FDF7E3FC02E0D2E905108847002CA2
:10060000E6D17978B878814206D1401CC0B2B87082
:10061000022801D187F802800548B978183040F8DF
:100620002160BDE8F0411420FCF71CBDBDE8F0815D
:1006300020210020041501400648002101600648E1
:10064000828A8168895C828A521C828203480160A6
:10065000704700001C210040C82700201C250040D6
:1006600030B58FB005461C216846FBF776FF0024A5
:100670009DF80000019440F00C008DF800000394F8
:1006800004940594069428788DF836000220ADF87D
:1006900034000C949DF83000142120F00F00401C11
:1006A00020F0F00010308DF830009DF8310020F07F
:1006B0000F00401C20F0F00010308DF831009DF844
:1006C000320020F00600801C20F0180040F00100ED
:1006D0008DF8320007A8FBF740FF0DA807900CA883
:1006E00008900120ADF824001420ADF82640ADF8A4
:1006F000280068882B1D07AA6946A2DF0FB030BD0D
:100700001FB500218DF8080005488DF8001082689B
:1007100001928175D0E90012684690471FBD000024
:10072000C827002030B52DED028B83B0017859B178
:10073000012901D002293FD1406803B0BDEC028BF2
:10074000BDE83040FDF73ABC1E4C1D4D20782844D2
:10075000FDF726FD2078401CC2B2A818227010F8C0
:10076000010C0A2801D0142A0BD3154901F5777022
:10077000FEF717F9082802D008B1FDF71FFC00208A
:1007800020702078284410F8010C312814D1FCF78F
:1007900091FA0D480068FCF704F841EC180B0B487F
:1007A0000068FBF7FEFF41EC100B8DED008B53EC66
:1007B000102B07A0FCF7F0FD03B0BDEC028B30BDA1
:1007C000AC21002080200020602100205C2100203E
:1007D000543D2530332E31462C483D2530332E31C3
:1007E000460D0A007CB50178264C012909D0022962
:1007F0002CD0002929D121462348FDF7EAFB80B3FC
:1008000034E04068017820481038FDF7FDFB1E4DAC
:10081000103D20B101218DF80010019007E0A8687B
:10082000E968081A012805D100208DF800006168E8
:1008300068468847A868E968081AA988884204D8E1
:1008400010480121401CFFF797F97CBD02218DF86B
:100850000010C06801900B480121401CFFF78CF983
:100860000CE0FFE701210748FFF76CFA06498868AA
:10087000C968081AE9D103208DF80000616868464C
:1008800088477CBDE0200020602700202DE9FF4143
:100890003E4E4FF400713046FFF781FB01273C4D7F
:1008A0004FF401780024F8B14FF492713046FFF70D
:1008B00071FBC8B1C6F82441C6F80883A87E00B908
:1008C0007760344902208DF80000086808600390C2
:1008D000E87D8DF80800E8680190EC752C76D5E984
:1008E00000126846904725E004213046FFF757FB89
:1008F00000B34FF484713046FFF74CFBD0B1FFF7E3
:1009000011FCE87D697E884214D1287E40B16A7E60
:10091000E968E8752869E8602C766C76104607E08F
:10092000A87E00B97760C6F80883EC75687EE96830
:10093000FFF780FC4FF48E713046FFF72BFB58B168
:10094000A98AA87D814202D2FFF776FE04E0C6F8AC
:100950001C4108B1FFF7D4FE4FF4A2713046FFF7F7
:1009600019FB00280FD0C6F84441A87E00B13760BB
:10097000E87D002807D0EC75687EE96804B0BDE822
:10098000F041FFF757BCBDE8FF81000000200040A8
:10099000C8270020802400402DE9FF41324E4FF44B
:1009A00092713046FFF701FB304F314C0025A8B162
:1009B000C6F824512D490220BC398DF80000086882
:1009C0000860039038688DF80800E0680190E575CC
:1009D0002576D4E90012684690471EE04FF48871EE
:1009E0003046FFF7E2FAC0B1C6F810513868E17D31
:1009F000C0B2814211D1227E5AB1E168D6F80032EC
:100A000023F02003C6F80032E2752269E260257601
:100A100001E0E575E168FFF70DFC4FF4A271304687
:100A2000FFF7C3FA48B1C6F84451E07D28B1E57537
:100A30003868E168C0B2FFF7FDFB4FF490713046B3
:100A4000FFF7B3FA00280DD0C6F82051A07D00288A
:100A500008D006481030006804B0C0B2BDE8F041CC
:100A6000FFF74EBEBDE8FF81002000403C2500405E
:100A7000C82700200870000A487002207047000054
:100A800038B5154A5088A0F57F41FF3923D05178F9
:100A9000124C491CC9B25170237B8B420AD3111DE1
:100AA00075DF002817D0A169002914D001B0BDE876
:100AB0003040084700255570217C29B13B2176DF65
:100AC00010B1A16901B188476169002903D08DF88F
:100AD00000506846884738BDCC20002034270020CD
:100AE000EFF30580C005C00D0ED0103840B20028CD
:100AF00003DA00F00F00074900E00749405C4009B5
:100B0000022803D0062803D0022070470020704737
:100B10000120704714ED00E000E400E042788378A3
:100B2000521CD2B2934200D100220378934201D1E9
:100B3000002070470A704168407800EB400001EBEC
:100B4000C00070472DE9FC411646DDE90854CDE9A7
:100B500000541F468046022200F00CF8002807D1FE
:100B6000CDE900543B4610223146404600F002F8E1
:100B7000BDE8FC812DE9FC5F0026DDE90C4E1F4637
:100B800092468B468046B4F8009035462FE0D8F860
:100B90000400002200EB850069460068019001A86E
:100BA00065DF002830D19DF8001051451ED10EB1EF
:100BB000002200E00222208811444218724522D807
:100BC00046B9401C80B2208007F800B02088401C45
:100BD0002080012680B2C219694601A865DF00287D
:100BE00012D120889DF80010084420806D1CB8F8B0
:100BF0000000A842CBDC5EB12188A1EB0900401EB9
:100C000080B2FF2802D90C20BDE8FC9F07F809003C
:100C10000020F9E7017911B9007B002800D00120FC
:100C200070470000010000070806070500000000EB
:100C300000E0D701A4250020C4250020F0250020D5
:100C40000D0000000E0000000F000000100000006A
:100C50000D00030035EB01000E00030035EB010031
:100C60000F00030035EB01001000030035EB01001D
:100C7000142700209ECADC240EE5A9E093F3A3B557
:100C80000000406E060000000800000007000000A1
:100C90000500000000000000000000000000D60178
:100CA0000600000006000000080000000700000029
:100CB0000500000000000000000000000000D60158
:100CC00006000000C028002003000000EC0C020019
:100CD00080200020E4000000B8D30100D00D020005
:100CE00064210020E4270000C8D301000000FFFFBA
:100CF00001000200000000000000000000000000F1
:100D000000000000000000000000000000000000E3
:100D1000000000000090D003000000000000000070
:100D2000FFFF0000000000000000000000000000C5
:100D300000000000000000000000000000000000B3
:100D400000000000000000000000000000000000A3
:100D50000000000000000000000000000000000093
:100D60000000000000000000000000000000000083
:100D70000000000000000000000000000000000073
:100D80000000000000000000000000000000000063
:100D90000000000000000000000000000000000053
:100DA0000000000000000000000000000000000043
:100DB0000000000000000000000000000000000033
:100DC0000000000000000000000000000000000023
:040000050001C40131
:00000001FF
