:020000040000FA
:10000000702000208D04000095040000970400007B
:10001000990400009B0400009D0400000000000003
:100020000000000000000000000000009F0400002D
:10003000A104000000000000A3040000A5040000CB
:10004000A7040000A704000009150000A704000091
:10005000A7040000A7040000CD0A0000A7040000C8
:10006000A7040000A7040000A7040000A7040000E4
:10007000A7040000A7040000A7040000A7040000D4
:10008000A7040000A7040000A7040000A7040000C4
:10009000A7040000A7040000A7040000A7040000B4
:1000A000A7040000A7040000A7040000A7040000A4
:1000B000A7040000A70400000000000000000000EA
:1000C000A7040000A7040000A7040000A704000084
:1000D000A7040000A7040000A7040000000000001F
:1000E0000000000000000000000000000000000010
:1000F0000000000000000000000000000000000000
:1001000000000000000000000000000000000000EF
:1001100000000000000000000000000000000000DF
:10040000DFF80CD000F040FB00480047851E0000DC
:1004100070200020401E00BF00BF00BF00BF00BF13
:1004200000BF00BF00BF00BF00BF00BF00BF00BFD4
:1004300000BF00BF00BF00BF00BF00BF00BF00BFC4
:1004400000BF00BF00BF00BF00BF00BF00BF00BFB4
:1004500000BF00BF00BF00BF00BF00BF00BF00BFA4
:1004600000BF00BF00BF00BF00BF00BF00BF00BF94
:1004700000BF00BF00BF00BF00BF00BF00BF00BF84
:1004800000BF00BF00BFC5D17047000006488047CD
:1004900006480047FEE7FEE7FEE7FEE7FEE7FEE769
:1004A000FEE7FEE7FEE7FEE7A11200000104000000
:1004B00010B5044604E00B7800F8013B03B1491C79
:1004C000521EF8D2204610BD2DE9FE4F804681EA2B
:1004D0000300C00F0C46009021F0004123F00045BE
:1004E000B8EB0200A94105D24046214690461C4681
:1004F0000B46024623F00040104304D140462146FB
:1005000003B0BDE8F08F270DC7F30A00C3F30A510B
:100510000290401A0190402866DAC3F3130040F4B9
:10052000801B0098924620B10023D2EB030A63EBB4
:100530000B0B01985946C0F14002504600F053F9A8
:1005400006460D4650465946019A00F05BF910EBFD
:1005500008006141002487EA115284EAE7731A43D4
:100560003BD0009A3AB3019A012A4FEA075210DCB5
:10057000001B61EB02014FF0004202EA0752CDE995
:100580000042001C41F5801132462B4600F08FF9E5
:10059000B6E7001B61EB0201001C41F58013001857
:1005A0005B412018A2F5001747EB030140EAD57024
:1005B000B6196D4111E06D084FEA360645EAC0757F
:1005C0004FEA0752001B61EB0201001C41F580114C
:1005D00049084FEA30000019514132462B4603B01A
:1005E000BDE8F04F00F056B900980122400000230A
:1005F000D0EB020263EBE073009821464FEAE0740F
:10060000B8EB000061EB0401E9E783F000435BE72E
:1006100081F0004158E72DE9FE4F81EA030404F020
:10062000004421F0004100944FF0000B23F0004300
:1006300050EA010402D052EA030404D1002001462A
:1006400003B0BDE8F08FC3F30A54C1F30A552C443C
:10065000A4F2F3340194A0FB0254C1F3130141F45A
:100660008011C3F3130343F4801301FB024400FB26
:10067000034E840A970A44EA815447EA8357A4FB4D
:10068000076802958D0A05FB07854FEA932C04FB4A
:100690000C542705029D4FEA065847EA1637B5EB7A
:1006A00008056EEB070C870E920E47EA811742EAA7
:1006B0008312A7FB0201B6EB0B0164EB00042B0DC8
:1006C00043EA0C335E1844EB1C50DA465146E7FB14
:1006D0000201C5F313044FEA0B3343EA14534FEA04
:1006E0000432019C43EA0603A4F10C040294009C2A
:1006F000CDE900B400F0DBF8A2E700F0004230F0F2
:1007000000400AD0C10D01F56071C0F3160042EA45
:100710000151C2084007114370470020014670474D
:1007200001F0004330B421F0004150EA010206D04C
:100730000A0DA2F56072C1F31301002A02DC30BC7D
:1007400000207047440F44EAC104C100E01830BCE7
:1007500000EBC25000F068B830B50B4601460020EF
:100760002022012409E021FA02F59D4205D303FA73
:1007700002F5491B04FA02F52844151EA2F10102F4
:10078000F1DC30BD2DE9F05F0546002092469B4626
:1007900088460646814640241BE028464146474697
:1007A000224600F083F953465A46C01A914110D3AD
:1007B00011461846224600F016F82D1A67EB01087C
:1007C0004F4622460120002100F00DF817EB0009EA
:1007D0004E41201EA4F10104DFDC484631462A4682
:1007E0004346BDE8F09F202A04DB203A00FA02F1DC
:1007F000002070479140C2F1200320FA03F319430F
:1008000090407047202A06DBCB17203A41FA02F0CD
:1008100043EAE07306E041FA02F3D040C2F120025D
:1008200091400843194670470029A8BF7047401CF3
:10083000490008BF20F00100704710B4B0FA80FCF6
:1008400000FA0CF050EA010404BF10BC704749B133
:10085000CCF1200421FA04F411FA0CF118BF0121A3
:1008600021430843A3EB0C01CB1D0106000A002B1A
:10087000BEBF002010BC704700EBC35010440029DD
:10088000A4BF10BC7047401C490008BF20F0010005
:1008900010BC704710B5002B08DA401C41F1000174
:1008A00092185B411A4301D120F0010010BD2DE9DF
:1008B000F04D92469B4611B1B1FA81F202E0B0FAD6
:1008C00080F220329046FFF78EFF04460F4640EA42
:1008D0000A0041EA0B0153465A46084303D1204619
:1008E0003946BDE8F08D114653EA010015D0C8F134
:1008F0004002504600F0DAF805460E46504659468A
:100900004246FFF770FF084301D0012000E00020BD
:10091000054346EAE0762C4337430A984FEA4453AE
:10092000A0EB08004FEAD4240A304FF0000244EA5A
:1009300047544FEAD72502D500200146D1E70105EB
:1009400010196941DDE9084500196941BDE8F04D1C
:10095000A0E72DE9F04D81EA030404F0004B21F0FB
:10096000004514464FF0000A23F0004150EA05020A
:1009700020D054EA01021DD0C5F30A570246C5F340
:100980001303C1F31300C1F30A5640F4801543F476
:100990008013A7EB0608101BD64608F2FD3873EB50
:1009A000050002D308F1010801E092185B41B8F19B
:1009B000000F03DA00200146BDE8F08D00204FF45F
:1009C0008011064684460EE0171B73EB050705D31E
:1009D000121B63EB050306434CEA010C49084FEA7E
:1009E000300092185B4150EA0107EDD152EA030052
:1009F00012D082EA040083EA0501084303D10022F1
:100A00004FF0004308E0101BAB4102D2012200234B
:100A100002E06FF0010253101AEB06004CEB085194
:100A200010EB0A0041EB0B01BDE8F04DFFF732BFC0
:100A3000C1F30A52C1F3130140F2FF3341F48011B4
:100A40009A4202DA00200146704740F233439A424C
:100A5000A2F2334202DC524200F028B8FFF7C3BED4
:100A600030B5002904DB4FF00044404264EB010143
:100A7000002B04DB4FF00044524264EB0303994225
:100A800008BF904230BD0000064C074D06E0E0680C
:100A900040F0010394E8070098471034AC42F6D3C5
:100AA000FFF7B2FCA4290000C4290000202A04DBBF
:100AB000203A21FA02F00021704721FA02F3D040D7
:100AC000C2F1200291400843194670472DE9FC5FAE
:100AD0000025DFF83091A8464FF4807601242F4698
:100AE000304601F0D9FA38B1D9F80403204203D0D6
:100AF000304601F0C7FA2543361D64007F1CB6B2AC
:100B0000082FEDD34FF4BE74204601F0C5FA38B17A
:100B1000204601F0B7FA3C4845F00045D0F8008087
:100B20003A4E15F0FF0F13D0012700242F420BD0AF
:100B3000374800EB840108680968C0F3042056F8C0
:100B40002420C1F3014190477F00641C082CEDD3A1
:100B5000002D54DA4FF0000A4FF0FF3900273D46D0
:100B6000701910F8501F90F9000021F0C004401CCB
:100B700037D0012000FA04FB1BEA090F31D08809A5
:100B80000090204601F060F956F82000019020B155
:100B900000995846032904D005E00098032820D185
:100BA00058464AEA000A1B4951F824101BEA080F6C
:100BB000C1F3014102D0022902D012E0032910D171
:100BC0000098032807D1022917D00221204601F0FE
:100BD00033FA7F1CFFB2019818B1DDE900122046FC
:100BE00090476D1C042DBBD3002F08D00648006829
:100BF000404504D08046D146B0E70321E6E7BDE892
:100C0000FC9F000000600040100500501400002010
:100C1000106500400007005010B500F081F8044C4A
:100C200084ED000A00F03EF884ED010A10BD0000DA
:100C30000400002010B5002400F05DF9802000F0D1
:100C400035F900F084F9FE2000F030F900F07FF96A
:100C500000F067F90F2001F0FFF800F04CF9802058
:100C600000F024F900F073F9E72000F01FF900F01C
:100C70006EF900F056F9012001F0FBF8641CE4B2B3
:100C8000022C08D800F037F9812000F00FF900F0AD
:100C90005EF90028EFD1002000F0D4F8BDE8104044
:100CA00000F03FB910B500F026F9802000F0FEF802
:100CB00000F04DF9E52000F0F9F800F048F900F0F7
:100CC00030F9322001F0C8F800F015F9812000F069
:100CD000EDF800F03CF9012000F0B4F84FF6FF7198
:100CE00001EA0024012000F0ADF80443002000F0E8
:100CF000A9F800F016F900EE104ADFED070AB8EE89
:100D0000400A20EE200ADFED050A20EE200AF1EE6F
:100D1000080A30EE600A10BD0000FA420000803779
:100D200010B500F0E8F8802000F0C0F800F00FF9EE
:100D3000E32000F0BBF800F00AF900F0F2F83220EE
:100D400001F08AF800F0D7F8812000F0AFF800F049
:100D5000FEF8012000F076F84FF6FF7101EA00245A
:100D6000012000F06FF80443002000F06BF800F061
:100D7000D8F800EE104AB8EE400A10EE100AFFF75D
:100D8000BCFC9FED0E1B53EC112BFFF744FCFFF74F
:100D9000C7FC00EE100ADFED0B0A20EE200A10EE71
:100DA000100AFFF7AAFC9FED081B53EC112BFFF76D
:100DB0002CFCFFF7B5FC00EE100A10BDD7A3703D68
:100DC0000AF7654000008037CDCCCCCCCC6C4740D6
:100DD00010B50C2001F026F91A2001F023F90C209F
:100DE00001F048F9BDE810401A2001F043B910B5F0
:100DF00000F04CF81A2001F015F900F04FF802202D
:100E000001F037F80C2001F035F9022001F031F83B
:100E1000BDE8104000F03AB810B500F037F81A20DD
:100E200001F000F91A2001F025F9022001F021F863
:100E30000C2001F01FF9022001F01BF8BDE8104062
:100E400000F024B870B50646002400F017FA00251B
:100E500000F01CF8022001F00CF80C2001F00AF957
:100E60006006040E00F014FA08B1641CE4B201201C
:100E700000F0FFFF6D1CEDB2082DE9D31EB1FFF7A6
:100E8000B6FF204670BDFFF7C7FFFAE702494FF4EF
:100E900080500860704700000C05005002494FF078
:100EA00080600860704700000C05005070B5044673
:100EB0001A2001F0B7F8FFF7E9FF0025200603D557
:100EC0001A2001F0D7F801E0FFF7E8FF6006040EF2
:100ED000022000F0CEFF0C2001F0CCF8022000F040
:100EE000C8FFFFF7D3FF022000F0C3FF6D1CEDB277
:100EF000082DE3D370BD10B51A2001F093F81A2025
:100F000001F0B8F80C2001F0B5F8042000F0B1FFB2
:100F1000FFF7C4FF042000F0ACFFBDE81040FFF76E
:100F2000B5BF10B51A2001F07DF8FFF7AFFFFFF74E
:100F3000B5FF042000F09DFF0C2001F09BF81A2063
:100F400001F098F8BDE81040042000F092BF10B501
:100F5000002400F093F91A2001F08CF8012000F031
:100F600088FF0C2001F086F8012000F082FF07E0E6
:100F7000641CE4B2FA2C03D9FFF7D3FF012010BDA3
:100F800000F086F90028F3D1FFF780FF002010BDA4
:100F900040F6E65303E01946491EFDD2401E0028E4
:100FA000F9D1704703E00421491EFDD2401E0028FC
:100FB000F9D1704770B506465FF0000404F1B00047
:100FC000C0B200F0FCF8012000F0F9F8102000F0A9
:100FD000F6F80025304600F014F96D1CEDB2802DB6
:100FE000F8D3641CE4B2082CE8D370BD10B504201B
:100FF00001F038F8182001F02DF8182001F032F82F
:10100000AE2000F0DCF8002000F0D9F8102000F04D
:10101000D6F8402000F0D3F8812000F0D0F8CF209F
:1010200000F0CDF8A12000F0CAF8C82000F0C7F801
:10103000A62000F0C4F8A82000F0C1F83F2000F07E
:10104000BEF8D32000F0BBF8002000F0B8F8D5209F
:1010500000F0B5F8802000F0B2F8D92000F0AFF829
:10106000F12000F0ACF8DA2000F0A9F8122000F02E
:10107000A6F8DB2000F0A3F8402000F0A0F8202024
:1010800000F09DF8022000F09AF88D2000F097F80B
:10109000142000F094F8A42000F091F8A62000F0AD
:1010A0008EF8AF2000F08BF80020FFF783FF0021BF
:1010B000BDE81040084600F06FB800002DE9F04789
:1010C00090468A4605460026DFF848901CE0203806
:1010D000C7B27E2D04D90AF10100002500F0FF0AF5
:1010E0005146284600F058F807EB4700002409EB6A
:1010F0004007385D00F085F8641CE4B2062CF8D394
:10110000AD1D761CEDB2F6B218F806000028DED14F
:10111000BDE8F0878C2100002DE9F0479246894612
:10112000804600251B4E2FE02038C7B2B8F1780F5B
:1011300003D94FF0000809F1010909F0FF01404609
:1011400000F02AF85FF0000404EB0710305C00F0B8
:1011500058F8641CE4B2082CF6D309F10100C1B2BE
:10116000404600F019F8002404EB07103044007AE0
:1011700000F047F8641CE4B2082CF5D308F108002D
:101180006D1C00F0FF08EDB21AF805000028CBD165
:10119000BDE8F087B423000010B50446B031C8B2F2
:1011A00000F00DF8102040EA141000F008F804F0E8
:1011B0000F00BDE8104040F00100AFF3008070B5B3
:1011C0000546032000F046FF002405FA04F000065F
:1011D0004FF0170002D500F045FF01E000F03AFFA4
:1011E000042000F037FF0120FFF7DCFE042000F0B0
:1011F00039FF0120FFF7D6FE641CE4B2082CE4D3CB
:1012000070BD70B50546032000F02CFF002405FAE0
:1012100004F000064FF0170002D500F023FF01E0B4
:1012200000F018FF042000F015FF0120FFF7BAFEC0
:10123000042000F017FF0120FFF7B4FE641CE4B2A5
:10124000082CE4D370BD10B5042000F0D9FE17209F
:1012500000F0D6FE182000F0D3FE032000F0D0FEF0
:10126000162000F0CDFE032000F0CAFE162000F08C
:10127000F1FEBDE81040032000F0F4BE1CB50021D3
:101280001A20032300910A46019100F09DFE1CBD27
:1012900002480068C0F380607047000010050050ED
:1012A00070B58A480023021D0178101D012406290B
:1012B00007D115782D0704D10578C5F30315032D43
:1012C00002D0062904D00FE0824E814D75670EE0F2
:1012D00015782D0708D10578C5F30315032D06D021
:1012E000042D04D0052D02D0062907D00EE07A4D3A
:1012F0002D687A4EC5F34235356002E015782D072A
:1013000004D10578C5F30315032D02D0062906D0B4
:1013100011E0734D2E6826F080762E600EE0157871
:101320002D0708D10578C5F30315032D06D0042D2C
:1013300004D0052D02D0062907D00EE0694D2B60A0
:101340006B60664D2D1F2B6002E015782D0704D1D0
:101350000578C5F30315032D02D0062905D00CE04E
:101360005E4A0321643211600AE015782D0704D12A
:101370000578C5F30315032D02D006290DD06AE0C8
:10138000594A05211160584978310C605649083195
:101390000B603F21121D116002E0117809075AD13C
:1013A0000078C0F30310052855D150480068504913
:1013B00008604E48001D0068091D08604B48083051
:1013C0000068091D086049480C300068091D086064
:1013D000464810300068091D086044481430006811
:1013E000091D0860414818300068414920310860F3
:1013F0003E481C300068091D08603C4820300068E9
:10140000091D0860394824300068091D0860374804
:1014100028300068091D086034482C300068091D18
:1014200008603248303000683149403108602F4848
:1014300034300068091D08602C4838300068091DE8
:1014400008602A483C300068091D08602748403081
:101450000068091D086022487438016841F4700171
:101460000160BFF34F8FBFF36F8F4FF01021D1F8A2
:101470000002002803DBD1F80402002821DA1D4A0B
:1014800014601D480468002CFCD01524C1F80042EB
:101490000568002DFCD0C1F8044201680029FCD089
:1014A000136001680029FCD0BFF34F8F0C48F0385F
:1014B0000168124A01F4E06111430160BFF34F8FEC
:1014C000FEE710490E48086070BD0000E00F00F014
:1014D0000DF0ADBA00C00740440200103C050040CA
:1014E000FCED00E00C010040105600400404001028
:1014F00020C5004004E5014000E401400400FA0575
:101500000090D0030C00002010B500F00DFE034940
:101510000870BDE8104000F019BE00000000002077
:1015200008B500200090082307220621052000F0BE
:10153000BBFD08BD0FB4054B10B503A9044A0298C2
:1015400000F0DAF810BC5DF814FB0000771E000014
:10155000100000200FB4084B10B504A902AA03988C
:1015600000F0CAF8044602A9002000F068FC2046FA
:1015700010BC5DF814FB00003F1E000002E008C82C
:10158000121F08C1002AFAD170477047002001E0FD
:1015900001C1121F002AFBD1704700002DE9FF5F37
:1015A000DDE90220010DDDF838B0024310D10F98BB
:1015B00001244CA2012808D0002100980F9BC0E90B
:1015C0000021C0E90243BDE8FF9F6FEA0B01F4E789
:1015D000A1F2FF3144F6105041430D140F98012839
:1015E0000ED0A5EB0B00401C4FF000043E4EDFF880
:1015F000FC90B0F1000AA04605DACAF1000717E036
:10160000CBF10000F0E7074612E0F80707D02246CA
:10161000334640464946FEF7FEFF8046894622464D
:10162000334610461946FEF7F6FF04460E467F1075
:10163000002FEAD1DDE90201BAF1000F42464B4624
:1016400002DAFEF7E8FF01E0FFF783F904460E46F1
:101650000022274BFFF704FA03D84FF0FF30014672
:1016600007E00022234B20463146FEF72DFFFFF70F
:10167000DFF9102409E0002C0ADB0A220023FFF71F
:1016800081F8019B30321A55641E50EA0102F2D1F2
:10169000641C019AC4F1110314440F9A012A09D061
:1016A0000122084301D15B450FDD4FF0000205F137
:1016B00001050DE0084303D1A3EB0B056D1E09E006
:1016C00000204FF0110B0F9088E701DA00226D1E09
:1016D000002A83D000980F99C0E90231C0E9004583
:1016E00071E7000030000000000024400000F03FDF
:1016F0000000F0430000E03F2DE9FF4F95B09B460E
:1017000089460646002512E2252878D10024761C59
:10171000F94A2746012105943378203B01FA03F06A
:10172000104202D00443761CF6E730782A2811D004
:101730006FF02F033078A0F13002092A16D8059AED
:1017400044F0020402EB820203EB42021044761CD6
:101750000590EFE759F8042B0592002A03DA50426E
:1017600044F40054059044F00204761C30782E288E
:1017700016D116F8010F44F004042A280DD06FF09A
:101780002F023078A0F13003092B09D807EB87032B
:1017900002EB4303C718761CF3E759F8047B761C69
:1017A00030786C280FD006DC4C2817D068280DD074
:1017B0006A2814D104E0742810D07A280FD10DE0E3
:1017C00044F400140AE044F4801401E044F44014AA
:1017D0007278824202D1761C04F58014761C30782F
:1017E00066280BD013DC582877D009DC002875D088
:1017F0004528F6D04628F4D047281AD19FE118E0B2
:10180000632835D0642879D0652812D197E17028F3
:1018100073D008DC6728F1D069286FD06E280DD00E
:101820006F2806D1B5E073282CD0752875D078289C
:1018300074D05A46179990476D1C76E1C4F3025054
:10184000022809D003280DD0D9F8001004280DD0A3
:101850000D6009F1040968E1D9F80010EA17C1E93F
:101860000052F6E7D9F800100D80F2E70D70F0E7AE
:1018700019F8041B8DF8001000208DF80100EA46CD
:10188000012003E059F804AB4FF0FF3061074FF03F
:10189000000102D40DE008F101018846B9420FDAD7
:1018A0008045F8DB1AF808100029F4D108E008F1A7
:1018B000010188468142FADB1AF808100029F6D1A6
:1018C00005985B46A0EB080721463846179A00F0BA
:1018D0009EFA284400EB080507E04DE02BE10DE0FF
:1018E0001AF8010B5A4617999047B8F10108F7D238
:1018F0005B4621463846179A14E142E00A220092DC
:10190000C4F302524FF0000A022A08D059F804CB5F
:10191000032A4FEAEC710AD00DE029E02AE009F130
:10192000070121F00702F2E802C1914609E00FFA2F
:101930008CFC4FEAEC71042A03D14FFA8CFC4FEA7D
:10194000EC71002907DA0A460021DCF1000C61EB9A
:1019500002012D2202E0220504D52B228DF804205D
:10196000012203E0E20701D02022F7E7904653E08E
:101970000A2102E010220DE010214FF0000A009130
:101980000BE010224FF0000A44F0040408270092F4
:1019900003E008224FF0000A0092C4F30252022A28
:1019A00005D059F804CB0021032A08D009E009F139
:1019B000070121F00702F2E802C1914605E01FFA93
:1019C0008CFC042A01D10CF0FF0C4FF00008220718
:1019D00022D5702827D0009B83F0100353EA0A0316
:1019E00009D15CEA010206D030228DF804208DF87E
:1019F000050002229046009B83F0080353EA0A0385
:101A00000AD15CEA010201D1620705D530228DF8C6
:101A100004204FF001087F1E582809D037A00390FA
:101A20000EA8029013E040228DF804200122E1E785
:101A300037A0F4E753466046009AFEF7A3FE8446BB
:101A40000398825C0298A0F10100029002705CEAA7
:101A50000100EFD1029806A9A1EB000000F1200AD5
:101A6000600702D524F4803400E00127574502DDE9
:101A7000A7EB0A0000E0002000EB0A0100900598A7
:101A80004144A0EB01000590E00306D45B462146EB
:101A9000179A059800F0BBF90544002706E001A855
:101AA0005A46C05D179990476D1C7F1C4745F6DB71
:101AB000E0030CD55B462146179A059800F0A7F97C
:101AC000054404E030205A46179990476D1C009950
:101AD000481E00900029F5DC08E0029802995A4659
:101AE0000078491C0291179990476D1CBAF10001CA
:101AF000AAF1010AF1DC6BE109280100303132332F
:101B00003435363738396162636465660000000039
:101B10003031323334353637383941424344454623
:101B20000000000000F060F9054406F1010630787D
:101B300000287FF4E9AD19B02846BDE8F08F6207B0
:101B400000D4062709F1070222F0070CFCE8022363
:101B5000E14603F000485FEA080C02D00FF27C2C4B
:101B60000DE05FEA045C02D50FF2742C07E05FEA37
:101B7000C47C02D00FF26C2C01E0AFF2700C4FF07D
:101B8000FF3823F00043CDF850C065280CD006DCA8
:101B9000452809D046281DD047283ED13EE066287A
:101BA00018D0672839D139E00021112F01DB11202D
:101BB00000E0781CCDE9000106A90EA8FFF7EEFCB5
:101BC000DDE90F010E9A03910021009207F1010A4D
:101BD00004914EE04FF000400097CDE9011006A9B6
:101BE0000EA8FFF7DBFCDDE90F0203920E9B1199B3
:101BF0000022DDF80CA00093049219B907F101014D
:101C000000EB010AB7EB0A0004D4C0F1FF3007F182
:101C1000010A0490AAEB0700019046E0012F00DAC8
:101C200001270021112F01DD112000E03846CDE908
:101C3000000106A90EA8FFF7B1FCDDE90F010E9A1D
:101C40000391002104910092BA4621070CD4039914
:101C5000514500DA8A46BAF1010F05DD009AAAF172
:101C60000101515C302908D0B84202DA10F1040FAA
:101C700006DA0121CDE9011017E0AAF10101E9E737
:101C8000002805DC049901440491AAEB000102E05C
:101C9000411C514500DD8A460499A0EB010000F18A
:101CA000010001904FF000400290200704D40198F9
:101CB000504501DBCDF8048000208DF84F000298DC
:101CC0000DF14F07B0F1004F25D02B200E90029858
:101CD0004FF0020800280CDA404202902D200E90AE
:101CE00007E00A210298FEF737FD3031029007F82D
:101CF000011DB8F10001A8F10108F2DC02980028EA
:101D0000EFD1791E0E980870307800F0200040F076
:101D1000450007F8020D12A8A0EB070000F1070824
:101D20001498007800B1012000EB0A01019801EB42
:101D3000E07105984144A0EB0100A0F1010005907D
:101D4000E00306D45B462146179A059800F05FF839
:101D500005441498007820B15A461799904705F128
:101D60000105E00323D55B462146179A059800F04C
:101D70004EF805441BE00498002807DBDDE9030169
:101D8000884203DD0098405C179901E017993020E4
:101D90005A46904704986D1C401C04900198401EC0
:101DA000019004D12E205A46179990476D1CBAF124
:101DB0000001AAF1010ADEDC05E017F8010B5A4622
:101DC000179990476D1CB8F10001A8F10108F4DCE7
:101DD0005B462146179A0598A4E600002D000000F6
:101DE0002B000000200000002DE9F04104460025F2
:101DF0001E461746880405D406E039462020B04721
:101E000005F10105641EF8D52846BDE8F0812DE9ED
:101E1000F041044600251E469046C80301D53027F0
:101E200000E02027880405D506E041463846B04743
:101E300005F10105641EF8D52846BDE8F0810A6861
:101E4000531C0B60107070470249084490F9300031
:101E5000704700001400002031B540F2E73404E080
:101E6000401E00902046FEF7D5FA00980028F7D1D2
:101E700038BDFEF7CFBA10B50446C0B200F066F91F
:101E8000204610BD86B0FFF7DEF9FFF7AFF8FFF789
:101E900047FB00F06BF9002125A20846FFF73CF94B
:101EA00026A202210020FFF737F928A204210020F2
:101EB000FFF704F928A0FFF73DFBFEF789FF2AA0F2
:101EC000FFF738FBFEF7B6FEC820FFF7C5FF2C4C26
:101ED0002C4D4FF47A7600BFFEF79EFE2068FEF789
:101EE0000CFC41EC100B28A153EC102B6846FFF7BB
:101EF00031FB6A4605210020FFF7E0F82868FEF76D
:101F0000FCFB41EC100B23A153EC102B6846FFF7B0
:101F100021FB6A4606210020FFF7D0F80A2220A103
:101F20006846FEF7C5FA3046FFF732F8D4E70000FE
:101F30004E6F726469635F4F4C4544006E52463584
:101F400032383332454B5F50524F000048545532BF
:101F500031442064656D6F004F4C45445F696E6984
:101F6000745F6F6B210D0A004932435F68747532EC
:101F700031645F696E69745F6F6B210D0A00000048
:101F8000040000200800002054656D703D253033AA
:101F90002E31460048756D693D2530332E3146009F
:101FA0000000000030B541EA4201DDE9034541EAA5
:101FB0008301044A41EA042141EA054142F8201024
:101FC00030BD00000007005030B541EA4201DDE9B4
:101FD000034541EA8301044A41EA042141EA0541FB
:101FE00042F8201030BD0000000700501CB5002250
:101FF0000B46009211460192FFF7D4FF1CBD000072
:10200000024A032142F820107047000000070050E8
:102010001CB5002100910B46012201911146FFF7EA
:10202000C1FF1CBD1CB5002100910B46012201918E
:102030001146FFF7C9FF1CBD054A02EB800002688C
:1020400022F440320260026842EA014101607047B6
:1020500000070050012181400148016070470000E5
:102060000C050050012181400148016070470000CB
:1020700008050050012181400148016070470000BF
:1020800008050050034908B50844002101600068B4
:10209000009008BD0060004002494058012800D06F
:1020A00000207047006000402DE9F04107461C46C3
:1020B00015460E460846DDF81880FFF7A9FF0021F7
:1020C0002046FFF793FF1548066014480830046067
:1020D0000124B8F1000F0FD03846FFF799FF002117
:1020E0002846FFF783FF0D48001D05600B48001FC1
:1020F00007600A48603004600849094818310860E0
:10210000064904200C3908600648846004600021F8
:10211000C0F80811C0F81C11BDE8F0810C25004082
:1021200000E0D70100200040064800BFD0F80811A9
:102130000129FBD10021C0F8081103480068C0B292
:102140007047000000200040182500400549086045
:10215000054800BFD0F81C110129FBD10021C0F8AF
:102160001C1170471C250040002000400549042038
:102170000860054A202111704FF0E021C1F80001EC
:10218000704700000423004002E400E0000000006B
:1021900000000000002F00000000070007000014EE
:1021A0007F147F1400242A7F2A12006264081323FC
:1021B00000364955225000000503000000001C2293
:1021C0004100000041221C000014083E08140008D1
:1021D000083E0808000000A0600000080808080881
:1021E000000060600000002010080402003E514919
:1021F000453E0000427F40000042615149460021B7
:1022000041454B31001814127F10002745454539D0
:10221000003C4A494930000171090503003649492B
:10222000493600064949291E0000363600000000E4
:10223000563600000008142241000014141414142F
:1022400000004122140800020151090600324959D8
:10225000513E007C1211127C007F49494936003EF4
:1022600041414122007F4141221C007F49494941AF
:10227000007F09090901003E4149497A007F0808A9
:10228000087F0000417F4100002040413F01007F66
:1022900008142241007F40404040007F020C027F32
:1022A000007F0408107F003E4141413E007F090944
:1022B0000906003E4151215E007F0919294600466A
:1022C000494949310001017F0101003F4040403F41
:1022D000001F2040201F003F4038403F006314088B
:1022E0001463000708700807006151494543000066
:1022F0007F41410000552A552A55000041417F0089
:10230000000402010204004040404040000001027D
:102310000400002054545478007F48444438003866
:102320004444442000384444487F003854545418EE
:1023300000087E0901020018A4A4A47C007F080400
:1023400004780000447D4000004080847D00007FD0
:10235000102844000000417F4000007C04180478ED
:10236000007C0804047800384444443800FC2424E9
:1023700024180018242418FC007C080404080048D1
:102380005454542000043F444020003C4040207CF2
:10239000001C2040201C003C4030403C00442810E1
:1023A0002844001CA0A0A07C004464544C44141495
:1023B00014141414000000000000000000000000CD
:1023C00000000000000000F80000000000000033E2
:1023D0003000000000100C06100C06000000000089
:1023E0000000000040C07840C0784000043F040472
:1023F0003F040400007088FC08300000001820FF33
:10240000211E0000F008F000E018000000211C036D
:102410001E211E0000F00888700000001E212324E9
:102420001927211010160E00000000000000000007
:1024300000000000000000E0180402000000000797
:102440001820400000020418E0000000004020189E
:1024500007000000404080F0804040000202010F71
:1024600001020200000000F0000000000101011F55
:1024700001010100000000000000000080B07000B9
:102480000000000000000000000000000001010149
:1024900001010101000000000000000000303000D8
:1024A00000000000000000008060180400601806B2
:1024B0000100000000E010080810E000000F1020EC
:1024C00020100F00001010F8000000000020203F36
:1024D00020200000007008080888700000302824C0
:1024E0002221300000300888884830000018202061
:1024F00020110E000000C02010F800000007042486
:10250000243F240000F808888808080000192120CA
:1025100020110E0000E0108888180000000F112024
:1025200020110E0000380808C83808000000003FDD
:10253000000000000070880808887000001C22213C
:1025400021221C0000E010080810E00000003122E9
:1025500022110F00000000C0C00000000000003089
:1025600030000000000000800000000000008060DB
:10257000000000000000804020100800000102045C
:102580000810200040404040404040000404040443
:1025900004040400000810204080000000201008FF
:1025A00004020100007048080808F0000000003034
:1025B00036010000C030C828E810E00007182724C2
:1025C00023140B000000C038E0000000203C230270
:1025D0000227382008F8888888700000203F2020D3
:1025E00020110E00C0300808080838000718202005
:1025F0002010080008F808080810E000203F2020FC
:1026000020100F0008F88888E8081000203F2020DC
:102610002320180008F88888E8081000203F2000D0
:1026200003000000C0300808083800000718202008
:10263000221E020008F808000008F808203F2101C7
:1026400001213F20000808F8080800000020203F72
:102650002020000000000808F8080800C0808080E2
:102660007F00000008F888C028180800203F2001DB
:102670002638200008F8080000000000203F202035
:102680002020300008F8F800F8F80800203F003F4C
:10269000003F200008F830C00008F808203F200064
:1026A00007183F00E01008080810E0000F10202075
:1026B00020100F0008F808080808F000203F21014A
:1026C00001010000E01008080810E0000F182424A1
:1026D00038504F0008F8888888887000203F200014
:1026E000030C3020007088080808380000382021CA
:1026F00021221C00180808F8080818000000203FD4
:102700002000000008F808000008F808001F20203A
:1027100020201F000878880000C83808000007380B
:102720000E010000F80800F80008F800033C07005C
:10273000073C0300081868808068180820302C03C4
:10274000032C30200838C800C83808000000203F9B
:102750002000000010080808C8380800203826218A
:1027600020201800000000FE020202000000007F8E
:1027700040404000000C30C000000000000000019C
:102780000638C00000020202FE0000000040404087
:102790007F000000000004020202040000000000AC
:1027A0000000000000000000000000008080808029
:1027B0008080808000020204000000000000000011
:1027C00000000000000080808080000000192422AA
:1027D00022223F2008F8008080000000003F1120E6
:1027E00020110E000000008080800000000E1120EB
:1027F00020201100000000808088F800000E1120C9
:1028000020103F200000808080800000001F2222D6
:1028100022221300008080F0888888180020203F42
:10282000202000000000808080808000006B949455
:102830009493600008F8008080800000203F210011
:1028400000203F2000809898000000000020203FDA
:1028500020200000000000809898000000C08080C8
:10286000807F000008F8000080808000203F240264
:102870002D302000000808F8000000000020203F54
:10288000202000008080808080808000203F200009
:102890003F20003F8080008080800000203F21009A
:1028A00000203F200000808080800000001F20204A
:1028B00020201F00808000808000000080FFA12079
:1028C00020110E000000008080808000000E11208A
:1028D00020A0FF80808080008080800020203F2119
:1028E00020000100000080808080800000332424CC
:1028F00024241900008080E0808000000000001F78
:10290000202000008080000000808000001F202028
:1029100020103F20808080000080808000010E30E9
:102920000806010080800080008080800F300C034A
:102930000C300F0000808000808080000020312E4D
:102940000E312000808080000080808080818E7029
:102950001806010000808080808080000021302CDB
:102960002221300000000000807C020200000000F4
:10297000003F404000000000FF0000000000000099
:10298000FF0000000002027C800000000040403F89
:102990000000000000060101020204040000000023
:1029A00000000000C4290000000000201400000006
:1029B0007C150000D8290000140000205C200000D5
:1029C0008C15000000000000000000000000000066
:0829D0000090D003000000009C
:0400000500000401F2
:00000001FF
