:020000040000FA
:1000000008200020350400003D0400003F040000EB
:10001000410400004304000045040000000000000B
:100020000000000000000000000000004704000085
:1000300049040000000000004B0400004D040000D3
:100040004F0400004F0400004F0400004F04000064
:100050004F0400004F0400004F0400004F04000054
:100060004F0400004F0400004F0400004F04000044
:100070004F0400004F0400004F0400004F04000034
:100080004F0400004F0400004F0400004F04000024
:100090004F0400004F0400004F0400004F04000014
:1000A0004F0400004F0400004F0400004F04000004
:1000B0004F0400004F04000000000000000000009A
:1000C0004F0400004F0400004F0400004F040000E4
:1000D0004F0400004F0400004F0400000000000027
:1000E0000000000000000000000000000000000010
:1000F0000000000000000000000000000000000000
:1001000000000000000000000000000000000000EF
:1001100000000000000000000000000000000000DF
:10040000DFF80CD000F03EF8004800470509000076
:1004100008200020401E00BF00BF00BF00BF00BF7B
:1004200000BF00BF00BF00BF00BF00BF00BFF1D1D1
:10043000704700000648804706480047FEE7FEE791
:10044000FEE7FEE7FEE7FEE7FEE7FEE7FEE7FEE784
:10045000E10400000104000030B50B460146002015
:100460002022012409E021FA02F59D4205D303FA76
:1004700002F5491B04FA02F52844151EA2F10102F7
:10048000F1DC30BD064C074D06E0E06840F00103AA
:1004900094E8070098471034AC42F6D3FFF7B4FF56
:1004A000A00A0000C00A000010200321820002F10F
:1004B000A042C2F80017401C1B28F7DD704700005F
:1004C0000121814005480068044B21EA00021B1D00
:1004D0001A600840191D08607047000004050050AC
:1004E00070B58D480023021D0178101D01240629D6
:1004F00007D115782D0704D10578C5F30315032D11
:1005000002D0062904D00FE0854E844D75670EE0B9
:1005100015782D0708D10578C5F30315032D06D0EE
:10052000042D04D0052D02D0062909D010E04FF08B
:100530008055D5F844527B4EC5F34235356002E014
:1005400015782D0704D10578C5F30315032D02D0C6
:10055000062906D011E0744D2E6826F080762E60B4
:100560000EE015782D0708D10578C5F30315032D86
:1005700006D0042D04D0052D02D006290AD011E0A2
:100580004FF08045C5F80C31C5F81031654D2D1F71
:100590002B6002E015782D0704D10578C5F303150B
:1005A000032D02D0062905D00CE05E4A03216432F7
:1005B00011600AE015782D0704D10578C5F30315FD
:1005C000032D02D006290DD06AE0584A052111609A
:1005D000564978310C60554908310B603F21121D96
:1005E000116002E0117809075AD10078C0F30310B6
:1005F000052855D14E4800684E4908604C48001DFA
:100600000068091D08604A4808300068091D086034
:1006100047480C300068091D0860454810300068E4
:10062000091D0860424814300068091D08604048F0
:10063000183000683F49203108603D481C30006890
:10064000091D08603A4820300068091D08603848D4
:1006500024300068091D0860354828300068091DED
:10066000086033482C300068091D0860304830307D
:1006700000683049403108602D4834300068091D59
:1006800008602B4838300068091D086028483C3055
:100690000068091D0860264840300068091D086090
:1006A00021487438016841F470010160BFF34F8F35
:1006B000BFF36F8F4FF01021D1F80002002803DB49
:1006C000D1F80402002822DA1B4A14601B4804688F
:1006D000002CFCD01524C1F800420568002DFCD088
:1006E000C1F8044201680029FCD0136001680029A8
:1006F000FCD0BFF34F8F0C48F0380168104A01F46A
:10070000E06111430160BFF34F8F00BFFDE70E4969
:100710000C48086070BD0000E00F00F00DF0ADBAAD
:1007200000C007403C050040FCED00E010560040D2
:100730000404001020C5004004E5014000E401402D
:100740000400FA050090D0030000002008B5002046
:1007500000900C2307220D21052000F051F908BD5F
:100760000FB4054B10B503A9044A029800F018F81D
:1007700010BC5DF814FB0000F50800000400002028
:1007800002E008C8121F08C1002AFAD1704770475A
:10079000002001E001C1121F002AFBD170470000B8
:1007A0002DE9FF4F89B09B460446002506E0252829
:1007B0000BD05A460B999047641C6D1C207800287A
:1007C000F5D10DB02846BDE8F08F0027B8460122CC
:1007D000474900E0074314F8013F203B02FA03F0C9
:1007E0000842F7D120782E2819D114F8010F47F0CC
:1007F00004072A280ED06FF02F022078A0F13001D4
:1008000009290CD808EB880102EB410100EB010833
:10081000641CF2E70A98641C50F8048B0A90207854
:100820000028CED0642808D0692806D075281ED0AC
:100830005A460B9990476D1C58E00A994FF00A09E7
:1008400001C90A91002802DA40422D2102E039054F
:1008500004D52B218DF82010012103E0F90704D0E5
:100860002021F7E78A4608AE0DE00021FAE70A9951
:100870004FF00A0901C90A91F7E74946FFF7ECFD75
:10088000303106F8011D0028F7D1ADEB060000F16C
:100890002009780701D44FF00108C84502DDA8EB14
:1008A000090000E000208046002706E008A85A461C
:1008B000C05D0B9990476D1C7F1C5745F6DB04E02B
:1008C00030205A460B9990476D1CB8F10001A8F1F1
:1008D0000108F5DC05E016F8010B5A460B99904724
:1008E0006D1CB9F10001A9F10109F4DC641C65E794
:1008F0000928010010B50446C0B200F0C1F8204636
:1009000010BD000008B5184800260660FFF7CCFDB2
:10091000FFF71CFF144DDFF854802D1D144C0127E8
:100920004FF4FA79C4F80070D4F800010028FBD025
:10093000C4F8006128688005286801D540EA0800ED
:10094000C11700EB917080100090676009A0FFF75D
:1009500007FF0EA00099FFF703FF1720FFF7B0FD78
:10096000484600F01BF8DDE704C5004000FCFFFF2F
:1009700000C0004020323031362E30362E31352046
:10098000D0C7BBE3BFC6BCBC210D0A00CEC2B6C8EF
:10099000B2C9D1F93A202575200D0A0031B540F6CB
:1009A000E85404E0401E00902046FFF733FD009815
:1009B0000028F7D138BD30B541EA4201DDE90345F1
:1009C00041EA8301800041EA042100F1A04041EAAC
:1009D0000541C0F8001730BD1CB500220B4600923F
:1009E00011460192FFF7E7FF1CBD1CB500210091E5
:1009F0000B46012201911146FFF7DDFF1CBD0000EF
:100A00002DE9F04107461C4615460E460846DDF81E
:100A10001880FFF7EAFF00212046FFF7DDFF1548A9
:100A200006601448083004600124B8F1000F0FD0AC
:100A30003846FFF7DAFF00212846FFF7CDFF0D48C3
:100A4000001D05600B48001F07600A486030046005
:100A50000849094818310860064904200C39086023
:100A60000648846004600021C0F80811C0F81C1119
:100A7000BDE8F0810C25004000E0D70100200040D7
:100A800005490860054800BFD0F81C110129FBD1B9
:100A90000021C0F81C1170471C25004000200040B8
:100AA000C00A0000000000200800000080070000CD
:100AB000C80A000008000020002000009007000085
:080AC0000090D00300000000CB
:0400000500000401F2
:00000001FF
