:020000040001F9
:10C000006049002005C501000DC501000FC50100F4
:10C0100011C5010013C5010015C501000000000095
:10C0200000000000000000000000000017C5010033
:10C0300019C50100000000001BC501001DC501005D
:10C040001FC501001FC5010019D801001FC501004F
:10C050001FC501001FC5010075CB01001FC50100F0
:10C060001FC501001FC501001FC501001FC501003C
:10C070001FC501001FC501001FC501001FC501002C
:10C080001FC501004DD501001FC501001FC50100DE
:10C0900089D501001FC501008DD501001FC5010014
:10C0A0001FC501001FC501001FC501001FC50100FC
:10C0B0001FC501001FC501000000000000000000B6
:10C0C0001FC501001FC501001FC501001FC50100DC
:10C0D0001FC501001FC501001FC5010000000000B1
:10C0E0000000000000000000000000000000000050
:10C0F0000000000000000000000000000000000040
:10C10000000000000000000000000000000000002F
:10C11000000000000000000000000000000000001F
:10C40000DFF80CD000F094FB0048004759FA010017
:10C4100060490020401E00BF00BF00BF00BF00BF3A
:10C4200000BF00BF00BF00BF00BF00BF00BF00BF14
:10C4300000BF00BF00BF00BF00BF00BF00BF00BF04
:10C4400000BF00BF00BF00BF00BF00BF00BF00BFF4
:10C4500000BF00BF00BF00BF00BF00BF00BF00BFE4
:10C4600000BF00BF00BF00BF00BF00BF00BF00BFD4
:10C4700000BF00BF00BF00BF00BF00BF00BF00BFC4
:10C4800000BF00BF00BFC5D170470000401E00BF05
:10C4900000BF00BF00BF00BF00BF00BF00BF00BFA4
:10C4A00000BF00BF00BF00BF00BF00BF00BF00BF94
:10C4B00000BF00BF00BF00BF00BF00BF00BF00BF84
:10C4C00000BF00BF00BF00BF00BF00BF00BF00BF74
:10C4D00000BF00BF00BF00BF00BF00BF00BF00BF64
:10C4E00000BF00BF00BF00BF00BF00BF00BF00BF54
:10C4F00000BF00BF00BF00BF00BF00BF00BFC5D16D
:10C50000704700000648804706480047FEE7FEE700
:10C51000FEE7FEE7FEE7FEE7FEE7FEE7FEE7FEE7F3
:10C52000B1D5010001C4010040EA01039B0703D01B
:10C5300009E008C9121F08C0042AFAD203E011F862
:10C54000013B00F8013B521EF9D27047D2B201E024
:10C5500000F8012B491EFBD270470022F6E710B508
:10C5600013460A4604461946FFF7F0FF204610BD61
:10C570002DE9FE4F804681EA0300C00F0C46009073
:10C5800021F0004123F00045B8EB0200A94105D29B
:10C590004046214690461C460B46024623F000408A
:10C5A000104304D14046214603B0BDE8F08F270D6B
:10C5B000C7F30A00C3F30A510290401A01904028C1
:10C5C00066DAC3F3130040F4801B0098924620B152
:10C5D0000023D2EB030A63EB0B0B01985946C0F121
:10C5E0004002504600F053F906460D465046594663
:10C5F000019A00F05BF910EB08006141002487EA22
:10C60000115284EAE7731A433BD0009A3AB3019A75
:10C61000012A4FEA075210DC001B61EB02014FF0C8
:10C62000004202EA0752CDE90042001C41F58011A8
:10C6300032462B4600F08FF9B6E7001B61EB020192
:10C64000001C41F5801300185B412018A2F500176B
:10C6500047EB030140EAD570B6196D4111E06D0852
:10C660004FEA360645EAC0754FEA0752001B61EBF8
:10C670000201001C41F5801149084FEA3000001901
:10C68000514132462B4603B0BDE8F04F00F056B999
:10C690000098012240000023D0EB020263EBE0731C
:10C6A000009821464FEAE074B8EB000061EB04010A
:10C6B000E9E783F000435BE781F0004158E72DE9AB
:10C6C000FE4F81EA030404F0004421F0004100948D
:10C6D0004FF0000B23F0004350EA010402D052EA6D
:10C6E000030404D10020014603B0BDE8F08FC3F37A
:10C6F0000A54C1F30A552C44A4F2F3340194A0FB6C
:10C700000254C1F3130141F48011C3F3130343F442
:10C71000801301FB024400FB034E840A970A44EA9B
:10C72000815447EA8357A4FB076802958D0A05FBED
:10C7300007854FEA932C04FB0C542705029D4FEA12
:10C74000065847EA1637B5EB08056EEB070C870E5F
:10C75000920E47EA811742EA8312A7FB0201B6EB69
:10C760000B0164EB00042B0D43EA0C335E1844EB21
:10C770001C50DA465146E7FB0201C5F313044FEAA9
:10C780000B3343EA14534FEA0432019C43EA060395
:10C79000A4F10C040294009CCDE900B400F0DBF895
:10C7A000A2E700F0004230F000400AD0C10D01F5D0
:10C7B0006071C0F3160042EA0151C20840071143FC
:10C7C000704700200146704701F0004330B421F06B
:10C7D000004150EA010206D00A0DA2F56072C1F3D1
:10C7E0001301002A02DC30BC00207047440F44EAE9
:10C7F000C104C100E01830BC00EBC25000F068B8C2
:10C8000030B50B46014600202022012409E021FA20
:10C8100002F59D4205D303FA02F5491B04FA02F51D
:10C820002844151EA2F10102F1DC30BD2DE9F05FB4
:10C830000546002092469B4688460646814640248F
:10C840001BE0284641464746224600F083F95346FE
:10C850005A46C01A914110D311461846224600F09C
:10C8600016F82D1A67EB01084F46224601200021D9
:10C8700000F00DF817EB00094E41201EA4F1010451
:10C88000DFDC484631462A464346BDE8F09F202A71
:10C8900004DB203A00FA02F1002070479140C2F117
:10C8A000200320FA03F3194390407047202A06DB47
:10C8B000CB17203A41FA02F043EAE07306E041FA6E
:10C8C00002F3D040C2F1200291400843194670475C
:10C8D0000029A8BF7047401C490008BF20F0010094
:10C8E000704710B4B0FA80FC00FA0CF050EA010472
:10C8F00004BF10BC704749B1CCF1200421FA04F404
:10C9000011FA0CF118BF012121430843A3EB0C01DC
:10C91000CB1D0106000A002BBEBF002010BC7047D3
:10C9200000EBC35010440029A4BF10BC7047401C4A
:10C93000490008BF20F0010010BC704710B5002B63
:10C9400008DA401C41F1000192185B411A4301D101
:10C9500020F0010010BD2DE9F04D92469B4611B12B
:10C96000B1FA81F202E0B0FA80F220329046FFF78D
:10C970008EFF04460F4640EA0A0041EA0B01534687
:10C980005A46084303D120463946BDE8F08D11468A
:10C9900053EA010015D0C8F14002504600F0DAF821
:10C9A00005460E46504659464246FFF770FF08437B
:10C9B00001D0012000E00020054346EAE0762C4348
:10C9C00037430A984FEA4453A0EB08004FEAD424B7
:10C9D0000A304FF0000244EA47544FEAD72502D507
:10C9E00000200146D1E7010510196941DDE908453C
:10C9F00000196941BDE8F04DA0E72DE9F04D81EA4D
:10CA0000030404F0004B21F0004514464FF0000AE7
:10CA100023F0004150EA050220D054EA01021DD063
:10CA2000C5F30A570246C5F31303C1F31300C1F35C
:10CA30000A5640F4801543F48013A7EB0608101B38
:10CA4000D64608F2FD3873EB050002D308F1010861
:10CA500001E092185B41B8F1000F03DA00200146B3
:10CA6000BDE8F08D00204FF48011064684460EE0AC
:10CA7000171B73EB050705D3121B63EB0503064376
:10CA80004CEA010C49084FEA300092185B4150EA29
:10CA90000107EDD152EA030012D082EA040083EAD2
:10CAA0000501084303D100224FF0004308E0101BAA
:10CAB000AB4102D20122002302E06FF001025310C9
:10CAC0001AEB06004CEB085110EB0A0041EB0B018E
:10CAD000BDE8F04DFFF732BFC1F30A52C1F31301B5
:10CAE00040F2FF3341F480119A4202DA00200146FD
:10CAF000704740F233439A42A2F2334202DC524280
:10CB000000F028B8FFF7C3BE30B5002904DB4FF0B2
:10CB10000044404264EB0101002B04DB4FF0004471
:10CB2000524264EB0303994208BF904230BD0000BB
:10CB3000064C074D06E0E06840F0010394E807006A
:10CB400098471034AC42F6D3FFF75EFC2C1A020073
:10CB50004C1A0200202A04DB203A21FA02F00021BC
:10CB6000704721FA02F3D040C2F1200291400843FD
:10CB7000194670472DE9F84F0025DFF82491A846A3
:10CB80004FF4807701242E46384603F0ADFC38B1CF
:10CB9000D9F80403204203D0384603F09BFC254318
:10CBA0003F1D6400761CBFB2082EEDD34FF4BE7457
:10CBB000204603F099FC38B1204603F08BFC39483D
:10CBC00045F00045D0F80080374F15F0FF0F13D027
:10CBD000012600242E420BD0344800EB8401086863
:10CBE0000968C0F3042057F82420C1F3014190479D
:10CBF0007600641C082CEDD3002D4FDA4FF0FF3087
:10CC00004FF0000A009000273C46274D291911F8E3
:10CC1000500F91F9001020F0C009491C2FD00121BC
:10CC2000009A01FA09FB1BEA020F28D08609484640
:10CC300002F052FC55F820500DB9032E1FD1594671
:10CC4000032E01D14AEA010A194A52F829001BEAC7
:10CC5000080FC0F3014002D0022802D00FE00328E1
:10CC60000DD1032E07D1022816D00221484603F029
:10CC70000BFC7F1CFFB215B131464846A847641C27
:10CC8000042CC2D3002F09D006480068404505D0C7
:10CC90008046CDF800A0B6E70321E7E7BDE8F88FAE
:10CCA00000600040100500508C27002010650040F7
:10CCB0000007005000B5084987B0012008701C2209
:10CCC00006496846FFF730FC684600F017FB022073
:10CCD00000F0C0FB07B000BD60210020F811020089
:10CCE00010B500F083F8044C84ED000A00F03EF823
:10CCF00084ED010A10BD00005821002010B5002469
:10CD000000F061F9802000F039F900F088F9FE2088
:10CD100000F034F900F083F900F06BF90F2002F015
:10CD2000AFFC00F050F9802000F028F900F077F90E
:10CD3000E72000F023F900F072F900F05AF9012021
:10CD400002F0ABFC641CE4B2022C08D800F03BF902
:10CD5000812000F013F900F062F90028EFD10020E3
:10CD600000F0D8F8BDE8104000F043B970B500F00D
:10CD70002AF9802000F002F900F051F9E52000F0D6
:10CD8000FDF800F04CF900F034F9322002F078FCA4
:10CD900000F019F9812000F0F1F800F040F90120CD
:10CDA00000F0B8F84FF6FF7101EA0025012000F00D
:10CDB000B1F840EA0504002000F0ACF800F019F9E1
:10CDC00000EE104ADFED070AB8EE400A20EE200A16
:10CDD000DFED050A20EE200AF1EE080A30EE600AC7
:10CDE00070BD00000000FA420000803770B500F00E
:10CDF000EAF8802000F0C2F800F011F9E32000F01A
:10CE0000BDF800F00CF900F0F4F8322002F038FC24
:10CE100000F0D9F8812000F0B1F800F000F901200D
:10CE200000F078F84FF6FF7101EA0025012000F0CC
:10CE300071F840EA0504002000F06CF800F0D9F821
:10CE400000EE104AB8EE400A10EE100AFFF7A9FCF7
:10CE50009FED0E1B53EC112BFFF731FCFFF7B4FCD9
:10CE600000EE100ADFED0B0A20EE200A10EE100A89
:10CE7000FFF797FC9FED081B53EC112BFFF719FCF4
:10CE8000FFF7A2FC00EE100A70BD0000D7A3703DB2
:10CE90000AF7654000008037CDCCCCCCCC6C474045
:10CEA00010B50C2003F0DDFA1A2003F0DAFA0C209A
:10CEB00003F000FBBDE810401A2003F0FBBA10B5E8
:10CEC00000F04CF81A2003F0CCFA00F04FF80220E2
:10CED00002F0E3FB0C2003F0EDFA022002F0DDFB90
:10CEE000BDE8104000F03AB810B500F037F81A204D
:10CEF00003F0B7FA1A2003F0DDFA022002F0CDFBAE
:10CF00000C2003F0D7FA022002F0C7FBBDE8104066
:10CF100000F024B870B50646002400F023FB00257D
:10CF200000F01CF8022002F0B8FB0C2003F0C2FA5B
:10CF30006006040E00F020FB08B1641CE4B201207E
:10CF400002F0ABFB6D1CEDB2082DE9D31EB1FFF76B
:10CF5000B6FF204670BDFFF7C7FFFAE702494FF45E
:10CF600080500860704700000C05005002494FF0E7
:10CF700080600860704700000C05005070B50546E1
:10CF80001A2003F06EFAFFF7E9FF0024280603D504
:10CF90001A2003F08FFA01E0FFF7E8FF6806050E9C
:10CFA000022002F07AFB0C2003F084FA022002F047
:10CFB00074FBFFF7D3FF022002F06FFB641CE4B2A6
:10CFC000082CE3D370BD10B51A2003F04AFA1A20DA
:10CFD00003F070FA0C2003F06DFA042002F05DFB00
:10CFE000FFF7C4FF042002F058FBBDE81040FFF734
:10CFF000B5BF10B51A2003F034FAFFF7AFFFFFF703
:10D00000B5FF042002F049FB0C2003F053FA1A206C
:10D0100003F050FABDE81040042002F03EBB10B50A
:10D02000002400F09FFA1A2003F044FA012002F0D5
:10D0300034FB0C2003F03EFA012002F02EFB07E047
:10D04000641CE4B2FA2C03D9FFF7D3FF012010BD12
:10D0500000F092FA0028F3D1FFF780FF002010BD06
:10D0600003E00621491EFDD2401E0028F9D1704779
:10D0700070B50646002505F1B000C0B200F0F9F821
:10D08000012000F0F6F8102000F0F3F800243046FC
:10D0900000F011F9641CE4B2802CF8D36D1CEDB2E1
:10D0A000082DE8D370BD10B5042003F00BFA18204A
:10D0B00003F0F8F9182003F005FAAE2000F0D9F8D3
:10D0C000002000F0D6F8102000F0D3F8402000F047
:10D0D000D0F8812000F0CDF8CF2000F0CAF8A120D0
:10D0E00000F0C7F8C82000F0C4F8A62000F0C1F88E
:10D0F000A82000F0BEF83F2000F0BBF8D32000F0DD
:10D10000B8F8002000F0B5F8D52000F0B2F8802083
:10D1100000F0AFF8D92000F0ACF8F12000F0A9F849
:10D12000DA2000F0A6F8122000F0A3F8DB2000F0CF
:10D13000A0F8402000F09DF8202000F09AF802208E
:10D1400000F097F88D2000F094F8142000F091F88A
:10D15000A42000F08EF8A62000F08BF8AF2000F09D
:10D1600088F80020FFF784FF0021BDE81040084642
:10D1700000F06CB82DE9F047914688460546002638
:10D18000DFF848A01CE02038C7B27E2D04D908F192
:10D190000100002500F0FF084146284600F056F83F
:10D1A00007EB470000240AEB4007385D00F083F8E6
:10D1B000641CE4B2062CF8D3AD1D761CEDB2F6B2B9
:10D1C00019F806000028DED1BDE8F087141202002D
:10D1D0002DE9F04792460D4606464FF00008DFF86D
:10D1E00068902BE02038C7B2782E01D900266D1C3C
:10D1F000E9B2304600F02AF8002404EB071119F8D0
:10D20000010000F058F8641CE4B2082CF5D3681C47
:10D21000C1B2304600F01AF8002404EB071101EB0C
:10D220000900007A00F047F8641CE4B2082CF4D33B
:10D23000083608F10100F6B200F0FF081AF80800FD
:10D240000028CFD1BDE8F0873C14020010B5044699
:10D25000B031C8B200F00DF8102040EA141000F010
:10D2600008F804F00F00BDE8104040F00100AFF3F3
:10D27000008070B50546032003F014F9002405FA78
:10D2800004F000064FF0170002D503F01BF901E08F
:10D2900003F008F9042003F005F90120FFF7E0FE90
:10D2A000042003F00FF90120FFF7DAFE641CE4B25A
:10D2B000082CE4D370BD70B50546032003F002F9D5
:10D2C000002405FA04F000064FF0170002D503F021
:10D2D000F9F801E003F0E6F8042003F0E3F8012098
:10D2E000FFF7BEFE042003F0EDF80120FFF7B8FEC3
:10D2F000641CE4B2082CE4D370BD000010B50146F4
:10D300001C220348FFF710F900F020F8002010BDA0
:10D310006421002008B518B1012803D0022803D0E9
:10D32000282002E02A2000E02C200222694600F09A
:10D3300049F89DF80100000201B29DF80000084381
:10D34000801108BD0F2000F069B8000010B50F4C27
:10D350000F4A0321A06842F8201003F025FB0D4975
:10D3600020680860091F60680860091FE06808609D
:10D370000849A0691431086006490020443108605A
:10D380000449012010390860002010BD64210020EC
:10D3900000070050104500400149086000F002B845
:10D3A0001C4500404FF04020D0F808110029FBD068
:10D3B0000021C0F8081102480068C0B270470000A0
:10D3C0001845004070B515000E4604460DD01149B1
:10D3D0000020086003F0F4FA0F4944F0C000086030
:10D3E0005520FFF7D9FF012409E0022070BD552028
:10D3F000FFF7D2FF3119641C01F8010CE4B2AC4212
:10D40000F5D3FFF7CFFF311901F8010C03F0CCFA87
:10D41000002070BD084100401C45004010B50B4A7B
:10D4200000210446116003F0CBFA094924F04000C2
:10D4300040F0800008605520FFF7AEFFFFF7B2FF15
:10D44000044603F0B1FA204610BD00000841004038
:10D450001C45004010B504462020FFF7DFFF00F018
:10D460000F0040EA0410C1B2202000F003F80020B1
:10D4700010BD000070B50D46094904460020086043
:10D4800003F09EFA074924F0800008602846FFF761
:10D4900083FFFFF787FF03F087FA002070BD0000CD
:10D4A000084100401C45004000F01F02012191404E
:10D4B00040094FF0E02202EB8000C0F88012704774
:10D4C00000F01F020121914040094FF0E02202EBE1
:10D4D0008000C0F80011704700F01F020121914048
:10D4E00040094FF0E02202EB8000C0F800127047C4
:10D4F0004907090E002803DA00F00F00024A00E095
:10D50000024A81547047000014ED00E000E400E09E
:10D51000AE20FFF7AEBE10B5042002F0ADFF17201D
:10D5200002F0AAFF182002F0A7FF032002F0A4FFD8
:10D53000162002F0A1FF032002F09EFF162002F049
:10D54000B1FFBDE81040032002F0BCBF0448002139
:10D55000016441648164C1640160416003F098BA70
:10D56000001101401CB500211A20032300910A4636
:10D57000019102F051FF1CBD02480068C0F38060B9
:10D58000704700001005005003F026BA074810B598
:10D59000406830B18047002807D0BDE8104000F057
:10D5A00057BFBDE8104002F01BB910BD4421002058
:10D5B00070B58A48894A00230078121D111D012583
:10D5C000062807D11478240704D10C78C4F3031477
:10D5D000032C02D0062804D00FE0824E804C7467E2
:10D5E0000EE01478240708D10C78C4F30314032C3C
:10D5F00006D0042C04D0052C02D0062807D00EE05B
:10D60000794C2468794EC4F34234346002E01478D3
:10D61000240704D10C78C4F30314032C02D0062889
:10D6200006D011E0724C266826F0807626600EE067
:10D630001478240708D10C78C4F30314032C06D003
:10D64000042C04D0052C02D0062807D00EE0694C2B
:10D6500023606360654C241F236002E01478240774
:10D6600004D10C78C4F30314032C02D0062805D08F
:10D670000CE05E4A0320643210600AE0147824074C
:10D6800004D10C78C4F30314032C02D006280DD067
:10D690006AE0594A052010605748783005605648BE
:10D6A000083003603F20121D106002E01078000770
:10D6B0005AD10878C0F30310052855D14F480068A7
:10D6C0004F4908604D48001D0068091D08604B481F
:10D6D00008300068091D086048480C300068091DC2
:10D6E0000860464810300068091D0860434814303F
:10D6F0000068091D08604148183000684049203121
:10D7000008603E481C300068091D08603B48203016
:10D710000068091D0860394824300068091D086048
:10D72000364828300068091D086034482C300068ED
:10D73000091D0860314830300068314940310860C7
:10D740002E4834300068091D08602C4838300068C5
:10D75000091D086029483C300068091D08602748F9
:10D7600040300068091D086021487438016841F4A0
:10D7700070010160BFF34F8FBFF36F8F4FF0102424
:10D78000D4F80002002803DBD4F80402002821DAD0
:10D790001C4A15601C4801680029FCD01525C4F8F6
:10D7A000005201680029FCD0C4F804520168002925
:10D7B000FCD0136001680029FCD0BFF34F8F0C48E8
:10D7C000F0380168114A01F4E06111430160BFF3D0
:10D7D0004F8FFEE70F490E48086070BDE00F00F064
:10D7E0000DF0ADBA00C00740440200103C050040F7
:10D7F000FCED00E00C010040105600400404001055
:10D8000020C5004004E5014000E401400400FA05A1
:10D810000090D003A82000200348007F08B103F047
:10D8200051BB03F0C9BA0000E42700200FB4054B38
:10D8300010B503A9044A029800F0C6F810BC5DF8C0
:10D8400014FB000067F701004021002002E008C837
:10D85000121F08C1002AFAD170477047002001E06A
:10D8600001C1121F002AFBD1704700002DE9FF5FA4
:10D87000DDE90220010DDDF838B0024310D10F9828
:10D8800001244CA2012808D0002100980F9BC0E978
:10D890000021C0E90243BDE8FF9F6FEA0B01F4E7F6
:10D8A000A1F2FF3144F6105041430D140F980128A6
:10D8B0000ED0A5EB0B00401C4FF000043E4EDFF8ED
:10D8C000FC90B0F1000AA04605DACAF1000717E0A3
:10D8D000CBF10000F0E7074612E0F80707D0224638
:10D8E000334640464946FEF7EAFE804689462246D0
:10D8F000334610461946FEF7E2FE04460E467F10F8
:10D90000002FEAD1DDE90201BAF1000F42464B4691
:10D9100002DAFEF7D4FE01E0FFF76FF804460E4688
:10D920000022274BFFF7F0F803D84FF0FF300146F5
:10D9300007E00022234B20463146FEF719FEFFF791
:10D94000CBF8102409E0002C0ADB0A220023FEF7A2
:10D950006DFF019B30321A55641E50EA0102F2D16C
:10D96000641C019AC4F1110314440F9A012A09D0CE
:10D970000122084301D15B450FDD4FF0000205F1A4
:10D9800001050DE0084303D1A3EB0B056D1E09E073
:10D9900000204FF0110B0F9088E701DA00226D1E76
:10D9A000002A83D000980F99C0E90231C0E90045F0
:10D9B00071E7000030000000000024400000F03F4C
:10D9C0000000F0430000E03F2DE9FF4F95B09B467B
:10D9D00089460646002512E2252878D10024761CC7
:10D9E000F94A2746012105943378203B01FA03F0D8
:10D9F000104202D00443761CF6E730782A2811D072
:10DA00006FF02F033078A0F13002092A16D8059A5A
:10DA100044F0020402EB820203EB42021044761C43
:10DA20000590EFE759F8042B0592002A03DA5042DB
:10DA300044F40054059044F00204761C30782E28FB
:10DA400016D116F8010F44F004042A280DD06FF007
:10DA50002F023078A0F13003092B09D807EB870398
:10DA600002EB4303C718761CF3E759F8047B761CD6
:10DA700030786C280FD006DC4C2817D068280DD0E1
:10DA80006A2814D104E0742810D07A280FD10DE050
:10DA900044F400140AE044F4801401E044F4401417
:10DAA0007278824202D1761C04F58014761C30789C
:10DAB00066280BD013DC582877D009DC002875D0F5
:10DAC0004528F6D04628F4D047281AD19FE118E01F
:10DAD000632835D0642879D0652812D197E1702861
:10DAE00073D008DC6728F1D069286FD06E280DD07C
:10DAF0006F2806D1B5E073282CD0752875D078280A
:10DB000074D05A46179990476D1C76E1C4F30250C1
:10DB1000022809D003280DD0D9F8001004280DD010
:10DB20000D6009F1040968E1D9F80010EA17C1E9AC
:10DB30000052F6E7D9F800100D80F2E70D70F0E71B
:10DB400019F8041B8DF8001000208DF80100EA463A
:10DB5000012003E059F804AB4FF0FF3061074FF0AC
:10DB6000000102D40DE008F101018846B9420FDA44
:10DB70008045F8DB1AF808100029F4D108E008F114
:10DB8000010188468142FADB1AF808100029F6D113
:10DB900005985B46A0EB080721463846179A00F027
:10DBA0009EFA284400EB080507E04DE02BE10DE06C
:10DBB0001AF8010B5A4617999047B8F10108F7D2A5
:10DBC0005B4621463846179A14E142E00A22009249
:10DBD000C4F302524FF0000A022A08D059F804CBCD
:10DBE000032A4FEAEC710AD00DE029E02AE009F19E
:10DBF000070121F00702F2E802C1914609E00FFA9D
:10DC00008CFC4FEAEC71042A03D14FFA8CFC4FEAEA
:10DC1000EC71002907DA0A460021DCF1000C61EB07
:10DC200002012D2202E0220504D52B228DF80420CA
:10DC3000012203E0E20701D02022F7E7904653E0FB
:10DC40000A2102E010220DE010214FF0000A00919D
:10DC50000BE010224FF0000A44F004040827009261
:10DC600003E008224FF0000A0092C4F30252022A95
:10DC700005D059F804CB0021032A08D009E009F1A6
:10DC8000070121F00702F2E802C1914605E01FFA00
:10DC90008CFC042A01D10CF0FF0C4FF00008220785
:10DCA00022D5702827D0009B83F0100353EA0A0383
:10DCB00009D15CEA010206D030228DF804208DF8EB
:10DCC000050002229046009B83F0080353EA0A03F2
:10DCD0000AD15CEA010201D1620705D530228DF834
:10DCE00004204FF001087F1E582809D037A0039068
:10DCF0000EA8029013E040228DF804200122E1E7F3
:10DD000037A0F4E753466046009AFEF78FFD84463D
:10DD10000398825C0298A0F10100029002705CEA14
:10DD20000100EFD1029806A9A1EB000000F1200A42
:10DD3000600702D524F4803400E00127574502DD56
:10DD4000A7EB0A0000E0002000EB0A010090059814
:10DD50004144A0EB01000590E00306D45B46214658
:10DD6000179A059800F0BBF90544002706E001A8C2
:10DD70005A46C05D179990476D1C7F1C4745F6DBDE
:10DD8000E0030CD55B462146179A059800F0A7F9E9
:10DD9000054404E030205A46179990476D1C0099BD
:10DDA000481E00900029F5DC08E0029802995A46C6
:10DDB0000078491C0291179990476D1CBAF1000137
:10DDC000AAF1010AF1DC6BE109280100303132339C
:10DDD00034353637383961626364656600000000A7
:10DDE0003031323334353637383941424344454691
:10DDF0000000000000F060F9054406F101063078EB
:10DE000000287FF4E9AD19B02846BDE8F08F62071D
:10DE100000D4062709F1070222F0070CFCE80223D0
:10DE2000E14603F000485FEA080C02D00FF27C2CB8
:10DE30000DE05FEA045C02D50FF2742C07E05FEAA4
:10DE4000C47C02D00FF26C2C01E0AFF2700C4FF0EA
:10DE5000FF3823F00043CDF850C065280CD006DC15
:10DE6000452809D046281DD047283ED13EE06628E7
:10DE700018D0672839D139E00021112F01DB11209A
:10DE800000E0781CCDE9000106A90EA8FFF7EEFC22
:10DE9000DDE90F010E9A03910021009207F1010ABA
:10DEA00004914EE04FF000400097CDE9011006A923
:10DEB0000EA8FFF7DBFCDDE90F0203920E9B119920
:10DEC0000022DDF80CA00093049219B907F10101BA
:10DED00000EB010AB7EB0A0004D4C0F1FF3007F1F0
:10DEE000010A0490AAEB0700019046E0012F00DA36
:10DEF00001270021112F01DD112000E03846CDE976
:10DF0000000106A90EA8FFF7B1FCDDE90F010E9A8A
:10DF10000391002104910092BA4621070CD4039981
:10DF2000514500DA8A46BAF1010F05DD009AAAF1DF
:10DF30000101515C302908D0B84202DA10F1040F17
:10DF400006DA0121CDE9011017E0AAF10101E9E7A4
:10DF5000002805DC049901440491AAEB000102E0C9
:10DF6000411C514500DD8A460499A0EB010000F1F7
:10DF7000010001904FF000400290200704D4019866
:10DF8000504501DBCDF8048000208DF84F00029849
:10DF90000DF14F07B0F1004F25D02B200E900298C5
:10DFA0004FF0020800280CDA404202902D200E901B
:10DFB00007E00A210298FEF723FC3031029007F8AF
:10DFC000011DB8F10001A8F10108F2DC0298002857
:10DFD000EFD1791E0E980870307800F0200040F0E4
:10DFE000450007F8020D12A8A0EB070000F1070892
:10DFF0001498007800B1012000EB0A01019801EBB0
:10E00000E07105984144A0EB0100A0F101000590EA
:10E01000E00306D45B462146179A059800F05FF8A6
:10E0200005441498007820B15A461799904705F195
:10E030000105E00323D55B462146179A059800F0B9
:10E040004EF805441BE00498002807DBDDE90301D6
:10E05000884203DD0098405C179901E01799302051
:10E060005A46904704986D1C401C04900198401E2D
:10E07000019004D12E205A46179990476D1CBAF191
:10E080000001AAF1010ADEDC05E017F8010B5A468F
:10E09000179990476D1CB8F10001A8F10108F4DC54
:10E0A0005B462146179A0598A4E600002D00000063
:10E0B0002B000000200000002DE9F041044600255F
:10E0C0001E461746880405D406E039462020B0478E
:10E0D00005F10105641EF8D52846BDE8F0812DE95B
:10E0E000F041044600251E469046C80301D530275E
:10E0F00000E02027880405D506E041463846B047B1
:10E1000005F10105641EF8D52846BDE8F0812DE92A
:10E11000FC5F044600201688154610800F46626B8F
:10E1200080464FF0030B11214FF00209B2B1127873
:10E13000032E01D20C200FE087F800902888401CA5
:10E1400080B2288039542888401C80B228803A54F4
:10E150002888401C2880002000287ED1226B4FF0A8
:10E160000C0AF2B1288800F11203B34201D95046DB
:10E1700015E0395428881021401C80B22880395479
:10E180002888401C28800F202B88115C401EF954E1
:10E19000298840B2491C29800028F5DA4046002829
:10E1A0005BD194F82EC0BCF1000F07D033462A464D
:10E1B0003946604601F05AFB00284ED194F82D10E4
:10E1C00031B132462946384600F090FD002844D14E
:10E1D000A17801B32888001DB04201D9504618E04B
:10E1E000684679DFA8B92A8807F802B0288819227A
:10E1F000401C80B228803A542888401C80B2288075
:10E20000C119BDF8000002F0CBFE2988084428801F
:10E210004046002821D1E178D1B1288894F9031033
:10E22000C21CB24201D90C2010E007F800902888E7
:10E230000122401C80B228803A542888401C80B2B9
:10E24000288039542888401C28800020002876D156
:10E250006168E1B191F9001000E070E02888C21C0B
:10E26000B24201D90C2010E007F8009028880A2259
:10E27000401C80B228803A542888401C80B22880F4
:10E2800039542888401C28800020002857D1218933
:10E2900051B1CDE900563B460622022104F10800A7
:10E2A00002F0E6FE00284AD1218A51B1CDE900569C
:10E2B0003B460722032104F1100002F0D9FE00289A
:10E2C0003DD1218B51B1CDE900563B461522142199
:10E2D00004F1180002F0CCFE002830D1D4F820C0A0
:10E2E000BCF1000F07D033462A463946604601F09C
:10E2F00051F9002823D1D4F824C0BCF1000F07D075
:10E3000033462A463946604601F01CFD002816D1E6
:10E3100094F82C1039B133462A463946204602F08B
:10E32000A7FA00280BD12178002908D002B0334683
:10E330002A4639462046BDE8F05F01F035BDBDE80C
:10E34000FC9F10B501220221002000F0CBFE08B195
:10E35000072810D107220221012000F0C3FE08B1D6
:10E36000072808D100210A22084600F0BBFE08B1A8
:10E37000072800D1002010BD064800684FF4002196
:10E38000044A8143121D1160111D00F40020086031
:10E39000704700000405005070B50024064D06E0EB
:10E3A0006868012110F8340001F06AFD641C2878C7
:10E3B0008442F5D3002070BD0C210020F8B516462C
:10E3C0000C460546052A01D20720F8BD01F036FEAD
:10E3D00018B901F009FE0028F7D111480021456065
:10E3E0000470C0E902610F4E01610DE005EBC4014C
:10E3F0007068009088788DF8010008780A4A6946AC
:10E4000001F090FD0028E0D12000A4F10104E4B265
:10E41000ECD1BDE8F840054A0021024800F04CB8B4
:10E420000C210020F011020089F70100A1F6010083
:10E43000BFF34F8F04480168044A01F4E0611143BF
:10E440000160BFF34F8FFEE70CED00E00400FA051A
:10E450000EB500210091CDE901106A4644F2010099
:10E46000FFF7E6FF0EBD10B58268C3689A1A03D0A5
:10E4700001F066F9002010BD052010BD29B112B1D0
:10E48000531E134203D0092070470E2070470160CD
:10E49000838000218160C1600846704710B58268A2
:10E4A000C3689A1A83889A4203D801F053F900206E
:10E4B00010BD042010BD0000074B9B6823B12AB19A
:10E4C00020B10068037C1BB108207047072070470B
:10E4D0004174426100207047202100202DE9F0475F
:10E4E0008046994614460D46900735D11C4F0026AC
:10E4F0008CB302F0ABF80320C7F8149038702246B2
:10E50000BC601834002105EB450302EBC100491C37
:10E51000067046708570446004EBC3040329F4DB85
:10E52000FE607E70BE701420FEF7BEFF0621142030
:10E53000FEF7DEFF1420FEF7C3FF0A49C1F8008092
:10E5400006211120FEF7D4FF0648001F006838613D
:10E550000020BDE8F08701E00720FAE7BE60FBE796
:10E5600020210020081501402DE9F843DFF86C90C8
:10E570000D461746D9F80810044649B344B3052D93
:10E5800002D20720BDE8F883606908B3607C0128E7
:10E5900020D0002602F03AFDD9F80810804601EBA1
:10E5A000C800694602F050FDB0B1012101700C496C
:10E5B000446009680830E2C0D9F808109DF80000EE
:10E5C00001EBC80148701420FEF786FF0020D9E750
:10E5D0000820D7E72E46DDE70420D3E720210020DE
:10E5E00004150140F8B5124E0446B168E1B1DCB142
:10E5F0006069C8B10027277402F008FD0546B068BD
:10E60000694600EBC50002F01FFD78B102210170E0
:10E610004460B06800EBC5019DF80000487014200C
:10E62000FEF75AFF3846F8BD0820F8BD0420F8BDB3
:10E630002021002010B5044609488268C1688088FE
:10E64000891A814206D10121064801F04BFD08B12B
:10E65000052010BD2146BDE810400148FFF703BF6B
:10E660006C270020E120002070B50446234888B0C4
:10E670001E460D00426035D0A888296882B2204825
:10E68000FFF7FCFE00282ED1A889A96882B21C4899
:10E690001030FFF7F3FE002825D1202219496846E3
:10E6A000FDF742FFA0680690207900B101208DF8A7
:10E6B00014008DF81C60607900B10E208DF81500F3
:10E6C000E0780290A0780390207801906078009024
:10E6D0000D49684601F0BCFC002804D19DF81D00DE
:10E6E00018B104E0072008B070BD01F03DFD0348FB
:10E6F0000121401C01F0F6FCF5E70000E0200020BD
:10E700006C270020B0110200110D020010B5014667
:10E710000948FFF7C3FE04000CD101F051FE48B9CF
:10E7200006490548FFF79FFE20B90121034801F083
:10E73000BFFD0446204610BD7C270020E0200020BD
:10E740002DE9F041044600781C4E012505FA00F041
:10E750003060206801F07BFE0021606801F06EFEF1
:10E7600017481849DFF85C80164A007F154F1C31A6
:10E7700008F108086432A0693B1D08F1040C086028
:10E78000607D217D08431060D4E900011860CCF859
:10E790000010207D01280ED10021A06801F04EFE5E
:10E7A000207B85403560E06801F051FED4E902101D
:10E7B0003860C8F80010BDE8F0810000080500507E
:10E7C000E42700200825004070B50D4692B01F21B7
:10E7D000ADF84010ADF84410002488B1C178490765
:10E7E00001D4072200E0002212B1104612B070BD21
:10E7F00010AA6946FFF78BFC0028F7D16E4602E0AD
:10E800000026ADF840406DB1E87800B1072000283F
:10E81000ECD111AA08A92846FFF779FC0028E5D118
:10E8200008AA02E00022ADF84440BDF84400C3B29B
:10E83000BDF84000C1B2304672DFD7E770B50D4673
:10E8400004991646040040D0F6B3414800224271B4
:10E85000C0E90331242231463E48FDF765FE00F051
:10E86000B7F83C493431A1F11000016020318160DA
:10E8700038215C38FDF771FE364920783839087048
:10E88000A0788870E078C87060784870D4E9040295
:10E89000C1E90402D4E90202C1E90202D4E9060294
:10E8A000C1E90602606AD0B101F1AC0000F10C02CE
:10E8B00048628260636A1B880380606A4B6A808852
:10E8C000988000204B6A07E0FFE70E2070BD666A63
:10E8D000B668365C1654401C9E888642F7D8A06AFB
:10E8E000D8B11C4AAC32A2F10C0082608862A36AE3
:10E8F0009B888380A06A8B6A0088188000208B6ABE
:10E9000004E0A66AB668365C1654401C9E888642AF
:10E91000F7D894F82C0081F82C00206A48B10C48F4
:10E9200014300862226A52884280206A0A6A00888B
:10E930001080606820B10648801D486060684860AB
:10E940002946BDE8704003483838FFF73DBF000056
:10E95000AC2000206426002010B501881B4C102933
:10E9600018D0002211291BD01B2918D1007A0028A9
:10E9700015D1607901281CD0022820D0032820D08E
:10E9800004280CD12271E1681046002907D0BDE8A7
:10E9900010400847817D012901D18088208110BD68
:10E9A0006270808821898842F9D1012002E02169C2
:10E9B000EBE7022000F03CF80028F8D110BD03205E
:10E9C000F8E7032020710420F4E70000AC200020C9
:10E9D000024800218161818381777047AC2000204B
:10E9E000114810B5007801281BD1104C6078C0B9CF
:10E9F000607910B174DF002814D10B4901206070D8
:10EA000038390620C870084800213838FFF7DCFE86
:10EA1000002807D1607900F00BF810B1216901B12D
:10EA20008847002010BD000064260020AC20002094
:10EA30002DE9F04F744C87B00026607106A8069649
:10EA400001F0F2FD0127082801D030B903E006A843
:10EA500000F090FE18B9069808B12770C0E0FFF7E3
:10EA6000B7FF6A4DDFF8A0814FF0020A687808F11D
:10EA700018084FF0030B10B16079012806D0A87870
:10EA800058B16079012801D002281FD1E16819B17D
:10EA9000E7700820884700E0E6706079012806D119
:10EAA000687840B108F1010001F09CFD18B160796F
:10EAB000022802D00AE084F805A0A87820B108F165
:10EAC000010001F08FFD08B984F805B0287B4FF0F4
:10EAD000040920B96079032801D184F80590287EC3
:10EAE00020B96079042801D166712671E16841B1CD
:10EAF0006079032801D0042803D1287808B1607810
:10EB0000C0B1A67018216846FDF727FD8DF800609A
:10EB100001968DF808600396607901280ED00228CE
:10EB200016D03A4E2436A6F15C0703281DD00428DF
:10EB30004CD13AE0A77007208847E3E7ADF81260B0
:10EB4000CDF804808DF80070ADF8106027713FE0BB
:10EB5000CDF804808DF800702889ADF81200A888DF
:10EB6000ADF8100084F804A032E0A88AADF81200D5
:10EB7000288AADF810002548243002F0E1FA18B1D7
:10EB8000287808B1607810B184F804B01EE01F48FE
:10EB90008DF808A0039687F8039000213838FFF716
:10EBA00013FE00281DD105202BE0A88BADF8100026
:10EBB000288CADF812001548243002F0C1FA18B1C3
:10EBC000287808B1607878B184F80490607918B139
:10EBD000684673DF002804D1E16809B120798847CD
:10EBE000002007B0BDE8F08F08488DF808A0039614
:10EBF00087F8039000213838FFF7E6FD0028F0D1B0
:10EC000006202071E2E70000AC20002064260020EE
:10EC100070B5064601461C220F48FDF785FC0F4CD7
:10EC200000252570306830B1016861604068A060DF
:10EC3000201D7ADF02E00948001D7BDF00280AD191
:10EC40004FF6FF7060806570BDE87040044A002197
:10EC50000448FFF731BC70BD50270020CC200020B5
:10EC6000AD0F02009C11020070B51E4C01880026F9
:10EC70001B4BE289102915D01B4D11291CD01229DC
:10EC800029D0502917D130F8061F914213D141895C
:10EC9000022910D1007B10F0010F11D0BDE87040A7
:10ECA00000F0C0BC818859808169D960C069186151
:10ECB0005E70002AF2D070BD4FF6FF7058805E7013
:10ECC0002868FFF78FFC0028F5D0A1690029F2D051
:10ECD000BDE8704008478168D960C0681861DDE709
:10ECE000CC200020502700209C1102007CB5054656
:10ECF00008880C460930904201D90C207CBD68463A
:10ED000071DF0028FAD121880820685420881B214F
:10ED1000401C80B2208029542088401C80B2208072
:10ED20002844DDF801100160BDF8051081802088BD
:10ED3000801D80B220809DF8001001B1012129546E
:10ED40002088401C208000207CBD000010B50446B7
:10ED5000FFF78AFF2146074800F044F8204601F0FB
:10ED600001FC2046FFF7F8FD2046BDE8104000F00A
:10ED7000E7B80000A425002030B5040018480D466F
:10ED800085B090E80E00C068CDE90012CDE90230F0
:10ED900023D015B34FF6FF70A0822868A061002031
:10EDA000A0752146684663DF002814D120788DF8CD
:10EDB00012000120ADF81000A21C04A9A0DF002859
:10EDC00009D12946204601F079FC002803D12946C3
:10EDD000204601F0B3FE05B030BD0E20FBE7000079
:10EDE000A011020000281ED000291CD00A88102A79
:10EDF00014D0112A14D0502A15D131F8062F038AC5
:10EE00009A4202D14B89022B0ED083889A420AD1B2
:10EE10008369002B07D04A890C311847898801E0A3
:10EE20004FF6FF7181827047097B11F0010100D01C
:10EE300001218175704707B584B068B1828AA2F557
:10EE40007F43FF3B0AD0827D42B1BDF81820142ACF
:10EE500006D9072007B000BD0E20FBE70820F9E720
:10EE6000002200920192029203928289039106A9E4
:10EE70000291ADF8002001218DF80210808A6946C8
:10EE8000A6DFE7E700B5154887B0002300680590C6
:10EE90004822134905A801F06DFD08B1FFF7D8FA23
:10EEA0006A460121002001F04FFD08B1FFF7D0FABA
:10EEB0000C4801F08DFC08B1FFF7CAFA684601F072
:10EEC00039FD08B1FFF7C4FA074801F029FD002811
:10EED00001D0FFF7BDFA07B000BD000050110200DD
:10EEE00080210020E81F00204DED01007CB50C00C2
:10EEF000124D01464FF00000296017D0694600F01E
:10EF0000BDF888B901A9012000F0B8F860B99DF8F2
:10EF10000410002009B1022103E09DF8001011B196
:10EF20000B21217000E02070002806D169680029BB
:10EF300003D1BDE87C40FFF704BA7CBDA0200020CF
:10EF400010B51B4C0188606810290ED011292DD1F5
:10EF5000401E60602AD1FFF7F4F9002826D021680E
:10EF6000002923D0BDE810400847E0B90021012264
:10EF7000084600F0B7F808B1072810D1072202218F
:10EF8000012000F0AFF808B1072808D104220221BF
:10EF9000002000F0A7F808B1072800D1002010B128
:10EFA000216801B188476068401C606010BD0000A6
:10EFB000A020002010B5032000F034FA08B1062884
:10EFC00000D1002010BD00002DE9F04706460025C5
:10EFD0002C46DFF89C80274802E0641C042C3AD2BF
:10EFE00050F82420B242F8D1042C34D2214BDFF85F
:10EFF0008090214F0C3B09F11409D9B1012902D0AD
:10F00000022928D123E004EB44003D5C07447878D2
:10F0100060B1D8F80400164A00EB80004100521C91
:10F020009868FFF7A1FA08B988F80160B97809F87B
:10F03000041010E09868FFF7D5FA04EB4400384458
:10F0400019F804108078814205D1054603E004EBED
:10F05000440038444578002D07D0D8F81010002916
:10F0600003D02846BDE8F0470847BDE8F087000018
:10F07000882000206C1102000026002004280CD2F9
:10F08000074A1268074B13F820300120984090433C
:10F0900000D001200870002070470020FAE700002F
:10F0A000100500506C11020010B5042807D0072885
:10F0B00010D00A2812D1BDE8104001F01ABC08484F
:10F0C0001321408876DF07E0002807D0BDE8104014
:10F0D000FFF7BEB9FFF784FC0828F5D110BD00008A
:10F0E0008020002030B503460020042B0DD2012AD9
:10F0F00002D101290BD000220A4D03EB430463190E
:10F1000069B1012907D0022907D0072030BD03F1DA
:10F110000D02D2B2F0E72A5530BD5A7030BD9A7058
:10F1200030BD000000260020054902460020097A73
:10F1300011F0110F02D0104600F058B870470000CF
:10F140008820002070B50E462249054600200A613D
:10F15000C1E9016515F00D0F1BD0002401221146F5
:10F160002046FFF7BFFF641C042C02D20028F5D014
:10F170000FE070B9720804211748FFF71FF940B972
:10F18000FFF70AF928B91448144A00211438FFF788
:10F1900093F915F0110F0AD0114A4FF4F0111160D4
:10F1A0000F4B00221B1D1A600D4A103211600028FF
:10F1B0000FD109480B4A00211C38FFF77DF90028C0
:10F1C00007D1BDE8704004480121074A1838FFF70D
:10F1D00073B970BD882000207C11020061F4010029
:10F1E00008050050C1F8010079E301002DE9F84F4E
:10F1F0008A4FDFF824A24FF4E012F96804468A43EC
:10F200000091002079680AF104052E1DDFF810C274
:10F210004FF400384FF4802B01EB810E8146182CFF
:10F2200016D2DFE804F00C17173C5062778A8C95F1
:10F230008C95F4A7A7A7A7A7D1D8E1E9F4F4009A81
:10F240004FF4F01191432960C6F8009087F80090C0
:10F25000BDE8F88F2A604846C6F80090DAF800202A
:10F2600082F4F01292030AD5C5F800803060022CB7
:10F2700002D14FF4E1600BE04FF47A6008E0C6F889
:10F2800000802860022C01D1C82001E04FF4C87032
:10F290006422B0FBF2F041433C70002262E02A603D
:10F2A0004846C6F80090DAF8002082F4F012920383
:10F2B00005D5C5F8008030604FF44870E8E7C6F81F
:10F2C00000802860E0E72A604846C6F80090DAF837
:10F2D000002082F4F012920303D5C5F8008030605C
:10F2E000CAE7C6F800802860D0E72A604846C6F81A
:10F2F0000090DAF8002082F4F012920303D5C5F8EA
:10F300000080306002E0C6F8008028603C704FEA60
:10F31000410126E02A604846C6F80090DAF800204D
:10F3200082F4F012920303D5C5F80080306002E049
:10F33000C6F8008028603C7013E02A604EE0DAF8DE
:10F3400000002BEA00022A6000F48020306008E010
:10F35000DAF800002BEA0001296000F48020306018
:10F3600071460022DCF80000BDE8F84FFFF7FCB85A
:10F3700029602EE0E046DCF80400FFF733F9D4F111
:10F38000110100D040B1F96801F4F0112960C6F80C
:10F390000090C7F80C905BE74FF40022FA60012957
:10F3A0000BD9C82041436420B1FBF0F178680022FA
:10F3B0004143D8F80400FFF7D7F8F96801F4F011D9
:10F3C0003160C5F8009043E74FF4F0112960C6F8AA
:10F3D00000903C703CE74FF4E01129604946C6F8C4
:10F3E0000090C6F80080C3E74FF4D0112960494669
:10F3F000C6F800905A4607E04FF4C011296049460C
:10F40000C6F800904FF4C0223260B1E7FFE74FF436
:10F41000F01131604946ABE7040500508820002018
:10F4200060110200F0B500210B4E0C4F012556F87B
:10F43000212007EB82031C6805FA01F2024000D08C
:10F44000032224F4403444EA02421A60491C04298D
:10F45000EDD30020F0BD00006C1102000007005049
:10F4600000780221FFF7B0BD05494FF0FF320828B0
:10F4700041F8202002D3084480F84820704700005B
:10F480008C270020F0B506464FF0FF30002A02D04E
:10F490004FF0000301E04FF0080302D04FF00805E1
:10F4A00001E04FF00C050B4C04E054F823707F1C76
:10F4B00003D05B1CAB42F8D3F0BDA51958B285F858
:10F4C000300044F82310002AF6D1E11881F8486092
:10F4D000F0BD00008C2700200249084490F930005C
:10F4E000704700008C2700202DE9F05F2649C8688E
:10F4F000F0B3DFF898B007688946DBF800400E6982
:10F50000A01B20F07F45C878ED1CB0B9DFF88080E3
:10F510004FF48030C8F84403C8F804031120FDF705
:10F52000C3FF1120FDF7CCFF4FF0010AC8F800A07F
:10F530002F20FCF76FFF89F803A0BD4200D23D46A3
:10F54000124AA8193C3220F07F401060DBF800100E
:10F550005B46091B21F07F41001BC91C20F07F4046
:10F5600081420FD9186810602F20FCF753FF00E08C
:10F5700004E0BDE8F05F1120FDF7AEBFBDE8F05F2D
:10F5800001F064B8BDE8F09F20210020041501407F
:10F59000001001402DE9F0410D4611880646881DF6
:10F5A0001446984202D90C20BDE8F0813088062824
:10F5B00014D34FF448674FF6FF73B84201D998420D
:10F5C0000CD17288062A09D3BA4201D99A4205D1D0
:10F5D000984205D09A4203D0904201D9072000E01A
:10F5E00000200028E0D10520685420881221401C0A
:10F5F00080B2208029542088401C80B2208041198C
:10F60000308801F0CDFC2188084480B22080411967
:10F61000708801F0C5FC2188084420800020C3E7E1
:10F62000FEF716BFF8B5134800F012F9114D002689
:10F63000114C0C3D30B16169B9B101208DF8000069
:10F64000684611E0287820B1616971B18DF80060D9
:10F65000F6E7687858B1A168084800220068FEF70C
:10F6600083FF10B1A16901B188472E70F8BD6168B0
:10F67000F2E70000D8200020502700209C11020053
:10F6800031B540F2E73404E0491E20460091FCF712
:10F69000FDFE00990029F7D138BDFCF7F7BE000048
:10F6A0002DE9F04100250126144F22E078683A69DF
:10F6B00000EBC504207806FA00F1114217D08A4306
:10F6C0003A6100F087FC02462078FB6806FA00F1F8
:10F6D000194002FA00F3994209D16178012901D059
:10F6E000012100E000215140626802B190476D1C89
:10F6F000EDB238788542D9D3BDE8F0810C210020E5
:10F700000E4A10B5517894780023A14212D0491CBA
:10F71000C9B25170022900D1537008495378183189
:10F7200051F8231001601069084420F07F401061F7
:10F73000012010BD0360002010BD0000202100202A
:10F74000826883881A4003689A5C0A708168491C41
:10F7500081607047C26883881A4003689954C16801
:10F76000491CC160704710B50446C0B2FEF7CEFF19
:10F77000204610BD20B10349496D0160002070474B
:10F7800003207047FC2800202DE9F041124E074667
:10F790000124BC403068FEF725FF002805D10F4D3D
:10F7A0002869204203D0A0432861BDE8F081384693
:10F7B00000F010FC0028E86801D0204300E0A043DE
:10F7C000E860286920432861A9683068BDE8F041F5
:10F7D0000022FEF7C9BE0000F01102000C2100203B
:10F7E000F8B51A4E307800282ED0306928B100259F
:10F7F000F06820B1002425B110E00125F8E70124CC
:10F80000F9E7684652DF052803D020B1FEF720FE55
:10F8100004E0012502E031690098884784B97088C6
:10F82000ADF800006946B06861DF052803D020B15B
:10F83000FEF70EFE04E0012402E0D6E9020188474B
:10F84000002DD8D0002CD6D0F8BD000044210020D7
:10F85000054940880A88904204D34988884201D8E3
:10F860000120704700207047D020002030B5148858
:10F87000E51C9D4201D90C2030BD02250D55138891
:10F880001C245B1C9BB21380CC5413885B1C9BB262
:10F890001380012807D0022807D0032807D00428A6
:10F8A00007D0072030BD002004E0012002E0CD5445
:10F8B00001E00320C8541088401C1080002030BD97
:10F8C0000448017A11F0110F02D00078FFF78EBCC6
:10F8D0007047000088200020F0B5294F4FF0000C41
:10F8E0003C78D7F80CE03EE0B86800EBC403197828
:10F8F00036E001EB41025868491C00EBC2009A78DF
:10F90000C9B28A4200D100210278022A03D0032A18
:10F9100026D1F86822E0FA6845681646104603E0EA
:10F92000A84203D00246C069D0B1F9E7C0B1824213
:10F9300008D1F569FD602DB9124E0125B560C7F8F3
:10F9400010C03D710568C069D06148B102682A44A1
:10F95000026005E080F810C0C069F8600028F9D1A5
:10F9600058788842C5D12000A4F10104E4B2BBD18B
:10F97000F868704501D00120F0BD0020F0BD000006
:10F9800020210020001001402DE9F04705463048B5
:10F99000002780460678D0F80C904BE0D8F8080095
:10F9A00000EBC60440E015B12846ED691EE0207862
:10F9B000616800EB4002401CC0B201EBC201207044
:10F9C000A278904200D127700A784868012A2DD188
:10F9D000027C5ABB8A684260CA6882600A69C26057
:10F9E0004969816198F8041001B147604168D8F80D
:10F9F0001020DFF860C08B1A23F07F43634502D2EA
:10FA00008168194406E0511A826821F07F418A42D8
:10FA100002D9511A016000E0076047600121876048
:10FA20000174C76101F016F8002DBCD1207861780F
:10FA30008842B8D13000A6F10106F6B2AED1D8F8AE
:10FA40000C10494502D00120BDE8F0870020FBE7FB
:10FA500020210020FFFF7F00A8B00023794A052164
:10FA60001846FEF73BFD08B1FEF7F2FC764A04AB00
:10FA7000121D07CA07C37548009075494FF480707E
:10FA8000CDE9010103900623724A694604A8FEF7F6
:10FA9000EBFD08B1FEF7DCFC6FA0FDF7C7FEFDF73C
:10FAA0003AFDFDF700FB70A0FDF7C0FE002172A239
:10FAB0000846FDF78DFB73A202210020FDF788FBAD
:10FAC00074A205210020FDF755FB75A20621002038
:10FAD000FDF750FB77A207210020FDF74BFBFDF758
:10FAE000E9F879A0FDF7A2FEFDF72CFC01467BA00A
:10FAF000FDF79CFEFDF7D4F97DA0FDF797FEFDF71D
:10FB0000FDF8C820FFF7BCFD7F4A40F6CD411D201F
:10FB1000FFF718FB08B1FEF79BFC69460020FFF7D2
:10FB2000E5F908B1FEF794FC9DF8000002287CD0AE
:10FB300000208DF89800FFF7A5F99DF8080073A143
:10FB400020F00F00401C20F0F00010308DF808006D
:10FB50000B2202A87CDF08B1FEF77AFC0024009497
:10FB60001020ADF800003C200194ADF80200ADF883
:10FB700004404FF4C870ADF8060068467ADF08B15B
:10FB8000FEF766FC6448009069466448FFF7F4F8A5
:10FB900008B1FEF75DFC382101A8FCF7DEFC02206D
:10FBA0008DF804008DF8064005208DF807003821F7
:10FBB0000FA8FCF7D2FC5A4801251490ADF84C5020
:10FBC00024211DA8FCF7C9FC40202190B4202290DC
:10FBD0008DF88050534B1DAA0FA9009401A8FEF781
:10FBE0002DFE08B1FEF734FC1C216846FCF7B5FC7D
:10FBF0004FF42030CDE900404FF4702002900320F4
:10FC00008DF80C004848059048480690ADF80E4025
:10FC10008DF810406846FEF7FBFF08B1FEF718FCB0
:10FC200043A0FDF703FE032000E002E0FEF700FF23
:10FC300002E001207DE748DF0028FCD0FEF708FC49
:10FC4000F9E70000DC23002050110200DC21002035
:10FC5000DC220020010C0200554152545F696E699C
:10FC6000745F6F6B210D0A004F4C45445F696E69EC
:10FC7000745F6F6B210D0A004E6F726469635F4F92
:10FC80004C4544006E52463532383332454B5F5056
:10FC9000524F0000494E464F524C494E4B00000017
:10FCA0004F4C45445F444953504C41595F4D4F447C
:10FCB000554C4500444953504C41595F44454D4FC4
:10FCC0005F434F44450000004773656E736F725F7A
:10FCD000696E69745F6F6B210D0A00004C495332E5
:10FCE000444831325F49443D25642E0D0A0000002E
:10FCF0004932435F6874753231645F696E69745F5D
:10FD00006F6B210D0A000000A9F001004E6F7264B4
:10FD100069635F64656D6F0019050200A42500200A
:10FD2000842000203F050200C905020021F60100E1
:10FD300053797374656D5F53746172742E2E2E0D3A
:10FD40000A00000070B5054680880E461446801CE7
:10FD50001188821C0A449A4201D8FE2801D90C203D
:10FD600070BD401C70542088FF21401C80B2208050
:10FD700031542088401C80B220808119288801F0ED
:10FD80000FF92188084480B22080AA8842B1A9686E
:10FD900041B13044FCF7C8FB2088A9880844208082
:10FDA000002070BD072070BDF8B50F4601781446DD
:10FDB0000546012901D1687830B12088821C9A4219
:10FDC0002DD8012902D006E00720F8BD697801444A
:10FDD000891C994223D8181A801E86B2ADF800609B
:10FDE0002188B81C084469467DDF0028EDD12978B8
:10FDF000022905D1BDF80000B04201D809200AE06F
:10FE00000820012905D16978B14202D8ADF8001067
:10FE100001E0ADF80060BDF80010FE2901D90C200A
:10FE2000F8BD2288491CB9542188491C89B2218017
:10FE300078542088401C2080BDF8001008442080A1
:10FE40000020F8BD4907090E002804DA0A4B00F02B
:10FE50000F021A4401E0094BC218117000F01F0292
:10FE60000121914042094FF0E02000EB8200C0F8F0
:10FE70008012C0F80011704714ED00E000E400E0CB
:10FE80002DE9F0410F46804600F0B6FB0125214EDA
:10FE90000028404618D0FFF71FFB304490F8480078
:10FEA0008009032802D001280CD005E01A48006818
:10FEB00005FA08F5284205D003214046BDE8F04187
:10FEC00000F0E2BA0221F8E700F0A2FB00281ED001
:10FED0004046FFF701FB04464FF4807000EB8400BE
:10FEE0000E4A81B202EB8400026842F00102026015
:10FEF000084600F0EFFA002F09D04046FFF7ECFA71
:10FF000056F82000002802D00548A5400560BDE84D
:10FF1000F08100008C270020100500501065004083
:10FF2000046300402DE9FC41DFF89880054608EBAA
:10FF30000500002790F930001346C0170C46401CFE
:10FF400001D008273AE0E27819462846FFF79AFAE6
:10FF50000646401C31D0A07838B11B4800EB850024
:10FF6000016821F00201016007E000216378284662
:10FF700000910A46019100F02BFAE078A0B11348F5
:10FF8000217800EB86000268114B1A4002604FF4A2
:10FF9000F8524FF4403302EA052203EA01410A43D2
:10FFA00001680A43026009E008EB0600227810F8B5
:10FFB000481F41EA8211017000E004273846BDE87D
:10FFC000FC8100008C2700200007005010650040D5
:10FFD000FFE0FCFF03490968C14011F0010000D0B7
:10FFE000012070471005005070B5124D95F854006F
:10FFF00008B1082070BD0020411E2A18401CC0B264
:020000040002F8
:1000000082F830102028F8D300242046FFF72CFA7D
:10001000641CE4B20C2CF8D306210846FFF712FF4B
:1000200005494FF000400860012085F85400002089
:1000300070BD00008C27002004630040034890F846
:100040005400002800D00120704700008C270020B9
:100050002DE9F0411D4D04460F46E87E10B1082001
:10006000BDE8F08104B91A4C607F28772046FEF77E
:1000700067FB6F602069286016480026B7B1217FB2
:100080002A7F4AB100F588700660066146614663C2
:10009000114AC0F8F42106E0C0F81C61C0F84461C0
:1000A0000E4AC0F804230220FFF7CCFE297F0C483B
:1000B00009B1082100E004210160EE752E76AE75CD
:1000C0000120E876AE760020CAE70000E427002091
:1000D000D011020000200040100302008000020046
:1000E000002500402DE9F0411D4D2B7F3BB14FF421
:1000F0000052B2EB104F02D01020BDE8F081194E33
:100100006C6800224FF404774FF4017C2CB113B1DA
:10011000C6F8087301E0C6F808C395F817E0BEF109
:10012000000F0ED02A7E42B12CB113B1C6F8047371
:1001300001E0C6F804C31120DFE728610122297617
:1001400004E0E9750024E8606C762C761BB1BDE80C
:10015000F04100F063B8BDE8F04100F015B80000D0
:10016000E42700200020004010B5064C207F002826
:1001700006D1A07E002803D100F01EFB0120A0764E
:1001800010BD0000E42700202DE9F05F214FB87E6C
:10019000104301D100F010FB1F4E786830B14FF4CE
:1001A0000170C6F804030020BDE8F09F4FF000097D
:1001B0004FF4A27AC6F844914FF4927B59463046E8
:1001C00000F09AF905464FF48471304600F094F936
:1001D00080465146304600F08FF9044648EA040153
:1001E0002943EBD055EA040005D100F04DFAF87D23
:1001F000797E8842E2D887F817900DB10320D3E7C3
:100200000CB10F20D0E7B97E012009B13060CAE7F8
:100210007060C8E7E4270020002000402DE9F05F6F
:10022000204E00274FF48873C6F810714FF4A27463
:10023000C6F844711C4D2860281D01608AB1D6F8AB
:10024000000240F02000C6F80002DFF86080D8F815
:10025000040048B14FF40470C6F804030020BDE860
:10026000F09F01203060F0E79A46A1464FF4927B60
:100270005146304600F04BF905464946304600F0FD
:1002800046F904465946304600F041F925430543F6
:10029000EED088F8177008B10320E0E7002CDDD01D
:1002A0000F20DCE70020004034250040E427002038
:1002B0002DE9F047204E0246307F38B14FF4005010
:1002C000B0EB124F02D01020BDE8F08700F078F8B4
:1002D00008B11120F8E7B1750023B260B382307F16
:1002E00028B3164F00244FF490709846C7F8203179
:1002F0004FF4AC73C7F85881114D2A602A1D116064
:100300000121B960716881B98246994651463846E3
:1003100000F0FDF805464946384600F0F8F8054378
:10032000F4D000B10F2486F816802046CCE7BDE853
:10033000F04700F007B80000E4270020002000404C
:10034000442500402DE9F0471B4E4FF000084FF4C4
:100350008E77C146C6F81C814FF0010AC6F808A086
:1003600000F0D8FB154CB515606868B120E039463F
:10037000304600F0C1F810B9A08AA842F7D1A08A8F
:10038000A84201D000F0C6FBA08AA17D8842EED32E
:10039000A08AA84202D14FF00F0807E03946304644
:1003A00000F0AAF80028F9D0C6F80CA084F816903E
:1003B0004046BDE8F087000000200040E427002010
:1003C0000248807D002800D001207047E4270020EB
:1003D00030B541EA4201DDE9034541EA8301044ABF
:1003E00041EA042141EA054142F8201030BD0000F5
:1003F0000007005030B541EA4201DDE9034541EA1A
:100400008301044A41EA042141EA054142F82010EF
:1004100030BD00000007005030B541EA4201DDE97F
:10042000034541EA8301044A41EA042141EA0541C6
:1004300042F8201030BD0000000700501CB500221B
:100440000B46009211460192FFF7D4FF1CBD1CB56C
:10045000002100910B46012201911146FFF7CAFFCE
:100460001CBD1CB5002100910B46012201911146D3
:10047000FFF7D2FF1CBD0000024A032142F8201002
:100480007047000000070050054A02EB8000026838
:1004900022F440320260026842EA01410160704782
:1004A00000070050012181400148016070470000B1
:1004B0000C05005001218140014801607047000097
:1004C000080500500121814001480160704700008B
:1004D00008050050034908B5084400210160006880
:1004E000009008BD0060004002494058012800D03B
:1004F00000207047006000404058002800D00120D4
:100500007047D0F80403084000D0012070474058DD
:10051000002800D00120704770B516460D46002413
:1005200005E0285DFEF7F2F80028FAD1641CB44219
:10053000F7D30A20FEF7EAF80028FAD170BD10B50B
:1005400050B103280CD10220FEF7EEFD002807D0A1
:10055000BDE81040FDF77CBFBDE8104000F0C9B910
:1005600010BD000070B50188164C0546102911D049
:10057000112917D02046132940881DD052291AD19D
:1005800000231A461946A9DF002814D0BDE87040A0
:10059000FDF75EBF0720FEF7C7FD08B1FDF758FF66
:1005A000A88807E00020FEF7BFFD08B1FDF750FF67
:1005B0004FF6FF70608070BD00231A4685217FDFF3
:1005C000E2E70000802000200078002807D10448DE
:1005D0003B21408876DF002801D0FDF739BF704706
:1005E000802000200021425C0AB101207047491C94
:1005F0000629F8D3002070470449084490F93000D8
:10060000082801DB01207047002070478C2700205C
:100610000449084490F93000082801D201207047AD
:10062000002070478C27002006490979490701D42A
:100630000820704720B104494978016000207047C4
:100640000E207047E82000200428002070B5012605
:100650000A48710400250160094C4810C4F8480399
:10066000C4F8080366602F20FBF7D4FEA660054C93
:100670002F202561FBF7CEFEE57070BD80E100E024
:100680000010014020210020094810B50949C47D0F
:100690000023094AC1F808313CB11168437EC268A1
:1006A000D154417E491C417610BD106810BD000038
:1006B000E4270020002000401825004030B58FB00E
:1006C000002405460D949DF834001C2120F00F00F5
:1006D000401C20F0F00010308DF834009DF83500FB
:1006E00020F00F00401C20F0F00010308DF8350095
:1006F0009DF8360020F00600801C8DF83600684614
:10070000FBF72BFF9DF80000019440F010008DF8DE
:1007100000000DA8CDE904400394069428788DF8D4
:100720003A000320ADF838000C949DF830001421F5
:1007300020F00F00401C20F0F00010308DF8300049
:100740009DF8310020F00F00401C20F0F000103028
:100750008DF831009DF8320020F00600801C20F05A
:10076000180040F001008DF8320007A8FBF7F5FEF5
:100770000EA807900CA808900120ADF824001420C2
:10078000ADF82640ADF82800688805F10C0307AAEB
:100790006946A2DF0FB030BD1FB501228DF80800F9
:1007A00004488DF800200191D0E900126846904776
:1007B0001FBD0000E427002004480021C0F82411D8
:1007C000C0F80811012101607047000000200040BE
:1007D00008B502490020009108BD000080200020DB
:1007E00010B50121202803DA1D4A8140114004E0A0
:1007F000402805DAA0F12002914001B1012131B178
:10080000002807DA174A00F00F01114404E042F211
:10081000010010BD144A811809784909082914D229
:1008200099B1012911D004290FD005290DD00F4B02
:100830009C6800F01F0201219140400944B153F827
:1008400020200A4343F8202008E042F2020010BDB5
:100850004FF0E02202EB8000C0F80011002010BD34
:10086000FC06FFBC14ED00E000E400E05429002089
:100870002DE9F0418046806A14460F46B0B3002649
:100880002EE0D8F8280006EB460100EB8105A88889
:10089000801CFE2802D90C20BDE8F0812188401C74
:1008A000785420881621401C80B22080395420883A
:1008B000401C80B22080C119288800F071FB21887B
:1008C000084480B22080AA8842B1A96871B1384436
:1008D000FBF72AFE2088A98808442080761CF6B2FF
:1008E00098F82C00B042CCD80020D5E7FFE70720CD
:1008F000D2E710B50020FEF717FC08B1FDF7A8FD00
:10090000FEF758FB08B1FDF7A3FDFCF701FE3CDF45
:10091000002803D0BDE81040FDF79ABD10BD0000CF
:1009200018B10349C860002070470E2070470000CE
:10093000442100201CB5034901910091694660DF04
:100940001CBD00008020002070B50E4605461446F0
:1009500014211046FBF701FE0121218000202061B7
:1009600020732672657205B1A172002070BDFDF77B
:100970005FBD000030B409B18C0702D0072030BC45
:100980007047074CA16062800649636010DF002851
:10099000F5D10120207030BC1620FFF721BF0000E8
:1009A000442100206F09020003480121007A8140A0
:1009B00002480160704700006421002008050050D3
:1009C00003480121007A814002480160704700001D
:1009D000642100200C0500502DE9F8431C4F002530
:1009E0006846D7E90396FEF78BFE8046FEF774FF54
:1009F00004465FEA0800A8461DD00021009816E0D2
:100A00002268824202D9101A206013E0801A114431
:100A1000C4F80080E269FA60E26823463AB106EB66
:100A2000010C2CF07F4CC4E901C2DD612546FC6855
:100A3000002CE5D101242846FEF7A6FF00B914B129
:100A40004846FEF751FD87F80480BDE8F8830000B2
:100A50002021002010B50D4CE16831B102680B680F
:100A60009A4204D89A1A0A60C161E06010BD0C462F
:100A700003E00C46C969D21A21B10B689342F8D33E
:100A80009B1A0B600260C161E06110BD2021002053
:100A90002DE9F0411D4FFC68002C35D01C48002684
:100AA00000683969B046401A20F07F452068A842A6
:100AB00015D822462D1A0644E469107C68B182F8E4
:100AC00010807B6933B1D2E90501984728B1FDF761
:100AD000BFFC02E0D2E905108847002CE6D1797806
:100AE000B878814206D1401CC0B2B870022801D14A
:100AF00087F802800548B978183040F82160BDE8D1
:100B0000F0411420FCF7E8BCBDE8F0812021002072
:100B1000041501400648002101600648828A816868
:100B2000895C828A521C82820348016070470000FF
:100B30001C210040E42700201C25004030B58FB068
:100B400005461C216846FBF708FD00249DF80000BF
:100B5000019440F00C008DF8000003940494059477
:100B6000069428788DF836000220ADF834000C94F5
:100B70009DF83000142120F00F00401C20F0F00000
:100B800010308DF830009DF8310020F00F00401C2F
:100B900020F0F00010308DF831009DF8320020F088
:100BA0000600801C20F0180040F001008DF8320093
:100BB00007A8FBF7D2FC0DA807900CA8089001200D
:100BC000ADF824001420ADF82640ADF82800688860
:100BD0002B1D07AA6946A2DF0FB030BD1FB500214B
:100BE0008DF8080005488DF8001082680192817523
:100BF000D0E90012684690471FBD0000E42700209E
:100C000030B52DED028B83B0017859B1012901D0A7
:100C1000022955D1406803B0BDEC028BBDE83040DD
:100C2000FDF716BC294C284D20782844FDF702FD1D
:100C30002078401CC2B2A818227010F8010C0A28B3
:100C400001D0142A0BD3204901F57770FEF7F3F891
:100C5000082802D008B1FDF7FBFB002020702078A7
:100C6000284410F8010C31282AD1FCF739F818482B
:100C70000068FBF796FD41EC180B16480068FBF77F
:100C800090FD41EC100B8DED008B53EC102B12A05E
:100C9000FCF7CCFD0020FCF73DFB85B20120FCF702
:100CA00039FB84B20220FCF735FB03B02246BDECD1
:100CB000028B2946BDE8304083B20CA0FCF7B6BDDC
:100CC00003B0BDEC028B30BDC82100208020002085
:100CD0005C21002058210020543D2530332E314620
:100CE0002C483D2530332E31460D0A0044415441F5
:100CF0005F583D256420444154415F593D2564209F
:100D000020444154415F5A3D25640D0A0000000013
:100D10007CB50178264C012909D002292CD0002964
:100D200029D121462348FDF79EFB80B334E040687B
:100D3000017820481038FDF7B1FB1E4D103D20B161
:100D400001218DF80010019007E0A868E968081AF1
:100D5000012805D100208DF80000616868468847A9
:100D6000A868E968081AA988884204D810480121AF
:100D7000401CFFF7B7F97CBD02218DF80010C06858
:100D800001900B480121401CFFF7ACF90CE0FFE794
:100D900001210748FFF78CFA06498868C968081AD4
:100DA000E9D103208DF800006168684688477CBD62
:100DB000E02000207C2700202DE9FF413E4E4FF42B
:100DC00000713046FFF79DFB01273C4D4FF4017841
:100DD0000024F8B14FF492713046FFF78DFBC8B193
:100DE000C6F82441C6F80883A87E00B97760344964
:100DF00002208DF80000086808600390E87D8DF8F7
:100E00000800E8680190EC752C76D5E90012684678
:100E1000904725E004213046FFF773FB00B34FF401
:100E200084713046FFF768FBD0B1FFF72DFCE87DF9
:100E3000697E884214D1287E40B16A7EE968E875EF
:100E40002869E8602C766C76104607E0A87E00B929
:100E50007760C6F80883EC75687EE968FFF79CFC4C
:100E60004FF48E713046FFF747FB58B1A98AA87D31
:100E7000814202D2FFF74EFE04E0C6F81C4108B1E1
:100E8000FFF7ACFE4FF4A2713046FFF735FB0028A8
:100E90000FD0C6F84441A87E00B13760E87D002835
:100EA00007D0EC75687EE96804B0BDE8F041FFF753
:100EB00073BCBDE8FF81000000200040E427002053
:100EC000802400402DE9FF41324E4FF492713046AC
:100ED000FFF71DFB304F314C0025A8B1C6F8245157
:100EE0002D490220BC398DF8000008680860039085
:100EF00038688DF80800E0680190E5752576D4E93A
:100F00000012684690471EE04FF488713046FFF7A4
:100F1000FEFAC0B1C6F810513868E17DC0B2814216
:100F200011D1227E5AB1E168D6F8003223F02003B5
:100F3000C6F80032E2752269E260257601E0E575C7
:100F4000E168FFF729FC4FF4A2713046FFF7DFFAA2
:100F500048B1C6F84451E07D28B1E5753868E168CC
:100F6000C0B2FFF719FC4FF490713046FFF7CFFA8B
:100F700000280DD0C6F82051A07D002808D00648D2
:100F80001030006804B0C0B2BDE8F041FFF726BEE3
:100F9000BDE8FF81002000403C250040E427002000
:100FA0000870000A487002207047000038B5154AE2
:100FB0005088A0F57F41FF3923D05178124C491C4D
:100FC000C9B25170237B8B420AD3111D75DF0028F3
:100FD00017D0A169002914D001B0BDE830400847FE
:100FE00000255570217C29B13B2176DF10B1A16924
:100FF00001B188476169002903D08DF80050684627
:10100000884738BDCC20002050270020EFF3058012
:10101000C005C00D0ED0103840B2002803DA00F031
:101020000F00074900E00749405C4009022803D04F
:10103000062803D002207047002070470120704727
:1010400014ED00E000E400E042788378521CD2B254
:10105000934200D100220378934201D100207047CF
:101060000A704168407800EB400001EBC000704717
:101070002DE9FC411646DDE90854CDE900541F4630
:101080008046022200F00CF8002807D1CDE9005478
:101090003B4610223146404600F002F8BDE8FC8194
:1010A0002DE9FC5F0026DDE90C4E1F4692468B467B
:1010B0008046B4F8009035462FE0D8F804000022AE
:1010C00000EB850069460068019001A865DF0028F3
:1010D00030D19DF8001051451ED10EB1002200E024
:1010E0000222208811444218724522D846B9401C79
:1010F00080B2208007F800B02088401C20800126A4
:1011000080B2C219694601A865DF002812D1208883
:101110009DF80010084420806D1CB8F80000A8421B
:10112000CBDC5EB12188A1EB0900401E80B2FF2814
:1011300002D90C20BDE8FC9F07F809000020F9E760
:10114000017911B9007B002800D001207047000010
:1011500001000007080607050000000000E0D701B5
:10116000C0250020E02500200C2600200D000000F6
:101170000E0000000F000000100000000D00030032
:10118000C9EF01000E000300C9EF01000F000300CA
:10119000C9EF010010000300C9EF01003027002053
:1011A0009ECADC240EE5A9E093F3A3B50000406ECF
:1011B0000600000008000000070000000500000015
:1011C00000000000000000000000D6010600000042
:1011D00006000000080000000700000005000000F5
:1011E00000000000000000000000D6010600000022
:1011F000DC280020030000001C0000001900000093
:101200001B0000001D0000001E0000001F00000069
:10121000000000400000000000000000002F00005F
:1012200000000700070000147F147F1400242A7FA9
:101230002A12006264081323003649552250000028
:101240000503000000001C224100000041221C0098
:101250000014083E08140008083E0808000000A01A
:101260006000000808080808000060600000002016
:1012700010080402003E5149453E0000427F4000F4
:10128000004261514946002141454B31001814127A
:101290007F10002745454539003C4A494930000147
:1012A0007109050300364949493600064949291E96
:1012B00000003636000000005636000000081422F8
:1012C00041000014141414140000412214080002F8
:1012D0000151090600324959513E007C1211127C1D
:1012E000007F49494936003E41414122007F41414A
:1012F000221C007F49494941007F09090901003E3C
:101300004149497A007F0808087F0000417F410079
:10131000002040413F01007F08142241007F4040EF
:101320004040007F020C027F007F0408107F003ED7
:101330004141413E007F09090906003E4151215EBD
:10134000007F091929460046494949310001017FBA
:101350000101003F4040403F001F2040201F003F50
:101360004038403F00631408146300070870080702
:1013700000615149454300007F41410000552A5515
:101380002A55000041417F00000402010204004090
:1013900040404040000001020400002054545478B2
:1013A000007F4844443800384444442000384444D2
:1013B000487F00385454541800087E090102001870
:1013C000A4A4A47C007F080404780000447D4000AD
:1013D000004080847D00007F102844000000417F91
:1013E0004000007C04180478007C0804047800386D
:1013F0004444443800FC242424180018242418FCF5
:10140000007C0804040800485454542000043F445D
:101410004020003C4040207C001C2040201C003C20
:101420004030403C004428102844001CA0A0A07C70
:10143000004464544C4414141414141400000000A8
:10144000000000000000000000000000000000F8A4
:1014500000000000000000333000000000100C0607
:10146000100C0600000000000000000040C07840A2
:10147000C0784000043F04043F040400007088FC6E
:1014800008300000001820FF211E0000F008F000C6
:10149000E018000000211C031E211E0000F0088837
:1014A000700000001E2123241927211010160E00A1
:1014B000000000000000000000000000000000E04C
:1014C0001804020000000007182040000002041861
:1014D000E00000000040201807000000404080F0BD
:1014E000804040000202010F01020200000000F0F3
:1014F000000000000101011F0101010000000000C7
:101500000000000080B0700000000000000000003B
:1015100000000000000101010101010100000000C4
:10152000000000000030300000000000000000005B
:1015300080601804006018060100000000E0100838
:101540000810E000000F102020100F00001010F80D
:10155000000000000020203F20200000007008084C
:1015600008887000003028242221300000300888CC
:10157000884830000018202020110E000000C020F4
:1015800010F8000000070424243F240000F8088815
:10159000880808000019212020110E0000E01088A2
:1015A00088180000000F112020110E0000380808D4
:1015B000C83808000000003F0000000000708808E4
:1015C00008887000001C222121221C0000E0100865
:1015D0000810E0000000312222110F00000000C0BE
:1015E000C00000000000003030000000000000805B
:1015F000000000000000806000000000000080404B
:101600002010080000010204081020004040404063
:1016100040404000040404040404040000081020B6
:1016200040800000002010080402010000704808FB
:101630000808F0000000003036010000C030C82863
:10164000E810E0000718272423140B000000C0381E
:10165000E0000000203C23020227382008F8888898
:1016600088700000203F202020110E00C0300808A4
:1016700008083800071820202010080008F808087B
:101680000810E000203F202020100F0008F8888874
:10169000E8081000203F20202320180008F8888840
:1016A000E8081000203F200003000000C0300808B8
:1016B0000838000007182020221E020008F8080041
:1016C0000008F808203F210101213F20000808F808
:1016D000080800000020203F20200000000008082B
:1016E000F8080800C08080807F00000008F888C0EB
:1016F00028180800203F20012638200008F808009C
:1017000000000000203F20202020300008F8F800D2
:10171000F8F80800203F003F003F200008F830C0E4
:101720000008F808203F200007183F00E0100808D4
:101730000810E0000F10202020100F0008F8080803
:101740000808F000203F210101010000E010080816
:101750000810E0000F18242438504F0008F888883B
:1017600088887000203F2000030C3020007088081B
:10177000080838000038202121221C00180808F829
:10178000080818000000203F2000000008F80800AA
:101790000008F808001F202020201F00087888007B
:1017A00000C83808000007380E010000F80800F8EB
:1017B0000008F800033C0700073C03000818688095
:1017C0008068180820302C03032C30200838C8000B
:1017D000C83808000000203F20000000100808085A
:1017E000C83808002038262120201800000000FEFC
:1017F000020202000000007F40404000000C30C0A8
:1018000000000000000000010638C00000020202D3
:10181000FE000000004040407F0000000000040285
:1018200002020400000000000000000000000000B0
:1018300000000000808080808080808000020204A0
:101840000000000000000000000000000000808098
:10185000808000000019242222223F2008F8008006
:1018600080000000003F112020110E0000000080C9
:1018700080800000000E1120202011000000008058
:101880008088F800000E112020103F20000080808A
:1018900080800000001F222222221300008080F09E
:1018A000888888180020203F2020000000008080C9
:1018B00080808000006B94949493600008F800800E
:1018C00080800000203F210000203F200080989869
:1018D000000000000020203F2020000000000080C9
:1018E0009898000000C08080807F000008F8000009
:1018F00080808000203F24022D302000000808F85E
:10190000000000000020203F202000008080808018
:1019100080808000203F20003F20003F80800080AA
:1019200080800000203F210000203F2000008080B8
:1019300080800000001F202020201F008080008069
:101940008000000080FFA12020110E000000008018
:1019500080808000000E112020A0FF808080800009
:101960008080800020203F21200001000000808036
:10197000808080000033242424241900008080E02B
:10198000808000000000001F2020000080800000F8
:1019900000808000001F202020103F2080808000D9
:1019A0000080808000010E300806010080800080E9
:1019B000008080800F300C030C300F00008080000E
:1019C000808080000020312E0E3120008080800039
:1019D0000080808080818E701806010000808080E9
:1019E000808080000021302C222130000000000087
:1019F000807C020200000000003F40400000000028
:101A0000FF00000000000000FF0000000002027C58
:101A1000800000000040403F00000000000601017F
:101A20000202040400000000000000004C1A020042
:101A300080200020000100004CD801004C1B020057
:101A400080210020E02700005CD801000000FFFF9B
:101A50000100020000000000000000000000000083
:101A60000000000000000000000000000000000076
:101A7000000000000090D003000000000000000003
:101A8000FFFF000000000000000000000000000058
:101A90000000000000000000000000000000000046
:101AA0000000000000000000000000000000000036
:101AB0000000000000000000000000000000000026
:101AC0000000000000000000000000000000000016
:101AD0000000000000000000000000000000000006
:101AE00000000000000000000000000000000000F6
:101AF00000000000000000000000000000000000E6
:101B000000000000000000000000000000000000D5
:101B100000000000000000000000000000000000C5
:101B200000000000000000000000000000000000B5
:101B3000FFFFFFFFFFFFFFFFFFFFFFFFFFFFFFFFB5
:0C1B4000FFFFFFFFFFFFFFFF0000004061
:040000050001C40131
:00000001FF
