:020000040000FA
:1000000010200020350400003D0400003F040000E3
:10001000410400004304000045040000000000000B
:100020000000000000000000000000004704000085
:1000300049040000000000004B0400004D040000D3
:100040004F0400004F040000590700004F04000057
:100050004F0400004F0400004F0400004F04000054
:100060004F0400004F0400004F0400004F04000044
:100070004F0400004F0400004F0400004F04000034
:100080004F0400004F0400004F0400004F04000024
:100090004F0400004F0400004F0400004F04000014
:1000A0004F0400004F0400004F0400004F04000004
:1000B0004F0400004F04000000000000000000009A
:1000C0004F0400004F0400004F0400004F040000E4
:1000D0004F0400004F0400004F0400000000000027
:1000E0000000000000000000000000000000000010
:1000F0000000000000000000000000000000000000
:1001000000000000000000000000000000000000EF
:1001100000000000000000000000000000000000DF
:10040000DFF80CD000F05AF800480047990A0000C5
:1004100010200020401E00BF00BF00BF00BF00BF73
:1004200000BF00BF00BF00BF00BF00BF00BFF1D1D1
:10043000704700000648804706480047FEE7FEE791
:10044000FEE7FEE7FEE7FEE7FEE7FEE7FEE7FEE784
:1004500055050000010400002DE9F05F054600206D
:1004600092469B4688460646814640241BE0284625
:1004700041464746224600F042F853465A46C01AC3
:10048000914110D311461846224600F029F82D1A42
:1004900067EB01084F4622460120002100F020F8BA
:1004A00017EB00094E41201EA4F10104DFDC484691
:1004B00031462A464346BDE8F09F0000064C074DF2
:1004C00006E0E06840F0010394E807009847103424
:1004D000AC42F6D3FFF798FF140C0000340C000078
:1004E000202A04DB203A00FA02F1002070479140F4
:1004F000C2F1200320FA03F3194390407047202AE9
:1005000004DB203A21FA02F00021704721FA02F3BD
:10051000D040C2F120029140084319467047102094
:100520000321820002F1A042C2F80017401C1B28E0
:10053000F7DD70470121814005480068044B21EA3E
:1005400000021B1D1A600840191D0860704700005A
:100550000405005070B576480023021D0178101D77
:100560000125062907D11478240704D10478C4F39F
:100570000314032C02D0062904D00FE06E4E6D4CFC
:1005800074670EE01478240708D10478C4F30314C8
:10059000032C06D0042C04D0052C02D0062909D047
:1005A00010E04FF08054D4F84442644EC4F3423417
:1005B000346002E01478240704D10478C4F30314EF
:1005C000032C02D0062906D011E05D4C266826F0E7
:1005D000807626600EE01478240708D10478C4F3EE
:1005E0000314032C06D0042C04D0052C02D00629B9
:1005F0000AD011E04FF08044C4F80C31C4F8103137
:100600004E4C241F236002E01478240704D10478A0
:10061000C4F30314032C02D0062905D00CE0474A8A
:100620000321643211600AE01478240704D10478AD
:10063000C4F30314032C02D006290DD06AE0414A0A
:10064000052111603F4978310D603E4908310B604A
:100650003F21121D116002E0117809075AD100787C
:10066000C0F30310052855D13748006837490860A2
:100670003548001D0068091D0860334808300068CF
:10068000091D086030480C300068091D08602E48BC
:1006900010300068091D08602B4814300068091DDF
:1006A0000860294818300068284920310860264829
:1006B0001C300068091D0860234820300068091DAF
:1006C0000860214824300068091D08601E48283051
:1006D0000068091D08601C482C300068091D08606E
:1006E00019483030006819494031086016483430E4
:1006F0000068091D0860144838300068091D08604A
:1007000011483C300068091D08600F4840300068FF
:10071000091D08600A487438016841F470010160DD
:10072000BFF34F8FBFF36F8F0A490948086070BD50
:10073000E00F00F00DF0ADBA00C007403C050040EE
:10074000FCED00E0105600400404001020C50040FD
:100750000090D0030400002010B500F039FA0449DD
:10076000087000F047FABDE810401720FFF7E2BE1E
:100770000000002008B5002000900C2307220D2166
:10078000052000F0E5F908BD0FB4054B10B503A92D
:10079000044A029800F018F810BC5DF814FB000041
:1007A000890A00000800002002E008C8121F08C1E2
:1007B000002AFAD170477047002001E001C1121FE2
:1007C000002AFBD1704700002DE9FF4F8DB09B46FA
:1007D0000F460446002606E025280BD05A460F99FE
:1007E0009047641C761C20780028F5D111B0304663
:1007F000BDE8F08F0025A8460122984900E0054396
:1008000014F8013F203B02FA03F00842F7D12078A8
:100810002E2817D114F8010F45F004052A280ED010
:100820006FF02F022078A0F1300109290AD808EBD7
:10083000880102EB410100EB0108641CF2E757F864
:10084000048B641C20786C280DD004DC4C2812D05A
:100850006A2811D104E074280DD07A280CD10AE05E
:1008600045F4001507E0617845F48015814202D116
:10087000641C05F58015641C2278692A45D008DCC3
:10088000002AB3D0582A69D0632A10D0642A08D12C
:100890003BE0702A67D0732A13D0752A5CD0782A7F
:1008A0005CD010465A460F999047761CD3E017F853
:1008B000040B8DF8000000208DF80100E9460120AE
:1008C00003E057F8049B4FF0FF3069074FF0000535
:1008D00001D40AE06D1C45450DDA8542FADB19F8B2
:1008E00005100029F6D106E06D1C8542FCDB19F8E5
:1008F00005100029F8D12E4404E019F8010B5A46DE
:100900000F9990476D1EF8D2A5E00A200021CDE98D
:100910000801C5F3025002280DD001CFC117031EF4
:1009200071F100030DDA4FF0000CD0EB0C006CEB12
:1009300001012D2308E0FF1D27F00707F7E802015A
:10094000EDE72B0504D52B238DF8283001233BE060
:10095000EB0739D02023F7E70A2000E01020002120
:10096000CDE9080107E01020002145F00405CDE99C
:1009700008014FF00808C5F3025002280FD001CF3C
:1009800000214FF0000A2B071FD5702A0DD0DDE99A
:1009900008C38CF0100C5CEA030C0CD015E0FF1DB2
:1009A00027F00707F7E80201EBE740228DF828203F
:1009B0004FF0010A0BE050EA010306D030238DF816
:1009C00028308DF8292002239A46582A04D024A2E0
:1009D0000DF120090B9209E026A2F9E7DDE90823D1
:1009E000FFF73AFD0B9B9B5C09F8013D50EA0102C1
:1009F000F4D1ADEB090020300890680701D44FF026
:100A000001080899884502DDA8EB010000E00020FC
:100A10008046002506E00AA85A46405D0F99904797
:100A20006D1C761C5545F6DB04E030205A460F99C4
:100A30009047761CB8F10001A8F10108F5DC05E04B
:100A400019F8010B5A460F999047761C0899481ED1
:100A500008900029F4DC641CC5E6000009280100A8
:100A60003031323334353637383961626364656624
:100A700000000000303132333435363738394142E6
:100A8000434445460000000010B50446C0B200F0E3
:100A9000B1F8204610BD0000FFF741FDFFF76AFEE8
:100AA0004FF08050046E456E4FF47A76214607A0D1
:100AB000FFF76AFE294609A0FFF766FE1720FFF739
:100AC00039FD304600F012F8F0E70000B4F2D3A18F
:100AD00069645F68A3BA256C780D0A00B4F2D3A1EB
:100AE00069645F6CA3BA256C780D0A0031B540F6D5
:100AF000E85404E0401E00902046FFF78BFC00986D
:100B00000028F7D138BD30B541EA4201DDE903459F
:100B100041EA8301800041EA042100F1A04041EA5A
:100B20000541C0F8001730BD1CB500220B460092ED
:100B300011460192FFF7E7FF1CBD1CB50021009193
:100B40000B46012201911146FFF7DDFF1CBD00009D
:100B50002DE9F04107461C4615460E460846DDF8CD
:100B60001880FFF7EAFF00212046FFF7DDFF154858
:100B700006601448083004600124B8F1000F0FD05B
:100B80003846FFF7DAFF00212846FFF7CDFF0D4872
:100B9000001D05600B48001F07600A4860300460B4
:100BA0000849094818310860064904200C390860D2
:100BB0000648846004600021C0F80811C0F81C11C8
:100BC000BDE8F0810C25004000E0D7010020004086
:100BD000064800BFD0F808110129FBD10021C0F858
:100BE000081103480068C0B27047000000200040B0
:100BF0001825004005490860054800BFD0F81C11C1
:100C00000129FBD10021C0F81C1170471C250040B0
:100C100000200040340C0000000000200C00000008
:100C2000A8070000400C00000C0000200420000079
:100C3000B8070000000000000090D0030000000092
:0400000500000401F2
:00000001FF
