:020000040000FA
:1000000068400020C1040000C9040000CB040000C7
:10001000CD040000CF040000D10400000000000067
:10002000000000000000000000000000D3040000F9
:10003000D504000000000000D7040000D90400002F
:10004000DB040000DB04000015080000DB040000F6
:10005000DB040000DB040000DB040000DB04000024
:10006000DB040000DB040000DB040000DB04000014
:10007000DB040000DB040000DB040000DB04000004
:10008000DB040000DB040000DB040000DB040000F4
:10009000DB040000DB040000DB040000DB040000E4
:1000A000DB040000DB040000DB040000DB040000D4
:1000B000DB040000DB040000000000000000000082
:1000C000DB040000DB040000DB040000DB040000B4
:1000D000DB040000DB040000DB0400000000000083
:1000E0000000000000000000000000000000000010
:1000F0000000000000000000000000000000000000
:1001000000000000000000000000000000000000EF
:1001100000000000000000000000000000000000DF
:1004000000F002F800F03CF80AA090E8000C8244EA
:100410008344AAF10107DA4501D100F031F8AFF2C7
:10042000090EBAE80F0013F0010F18BFFB1A43F0D2
:100430000103184798050000B8050000103A24BFD2
:1004400078C878C1FAD8520724BF30C830C144BF39
:1004500004680C607047000000230024002500267B
:10046000103A28BF78C1FBD8520728BF30C148BF17
:100470000B6070471FB500F0A4FA1FBD10B510BD8A
:1004800000F041F81146FFF7F5FF00F0DBF900F04E
:100490005FF803B4FFF7F2FF03BC00F063F800005D
:1004A000401E00BF00BF00BF00BF00BF00BF00BFB5
:1004B00000BF00BF00BF00BF00BFF1D17047000008
:1004C0000948804709480047FEE7FEE7FEE7FEE7E8
:1004D000FEE7FEE7FEE7FEE7FEE7FEE70448054924
:1004E000054A064B70470000A90500000104000002
:1004F000680000206840002068200020682000205C
:10050000704770477047754600F028F8AE46050002
:100510006946534620F00700854618B020B5FFF71E
:10052000DDFFBDE820404FF000064FF000074FF020
:1005300000084FF0000B21F00701AC46ACE8C00901
:10054000ACE8C009ACE8C009ACE8C0098D4670470A
:100550000446AFF300802046FFF79BFF004870473A
:100560000800002001491820ABBEFEE7260002006B
:10057000704716200321820002F1A042C2F8001742
:10058000401C1828F7DD70470121814005480068AC
:10059000044B21EA00021B1D1A600840191D086067
:1005A000704700000405005070B58D480023021DFF
:1005B0000178101D0124062907D115782D0704D1D3
:1005C0000578C5F30315032D02D0062904D00FE0EA
:1005D000854E844D75670EE015782D0708D1057896
:1005E000C5F30315032D06D0042D04D0052D02D02C
:1005F000062909D010E04FF08055D5F844527B4EC3
:10060000C5F34235356002E015782D0704D1057831
:10061000C5F30315032D02D0062906D011E0744D51
:100620002E6826F080762E600EE015782D0708D112
:100630000578C5F30315032D06D0042D04D0052D30
:1006400002D006290AD011E04FF08045C5F80C31E0
:10065000C5F81031654D2D1F2B6002E015782D0770
:1006600004D10578C5F30315032D02D0062905D062
:100670000CE05E4A0321643211600AE015782D0710
:1006800004D10578C5F30315032D02D006290DD03A
:100690006AE0584A05211160564978310C60554985
:1006A00008310B603F21121D116002E0117809072B
:1006B0005AD10078C0F30310052855D14E48006880
:1006C0004E4908604C48001D0068091D08604A48F2
:1006D00008300068091D086047480C300068091D93
:1006E0000860454810300068091D08604248143011
:1006F0000068091D08604048183000683F492031F3
:1007000008603D481C300068091D08603A482030E8
:100710000068091D0860384824300068091D086019
:10072000354828300068091D086033482C300068BF
:10073000091D086030483030006830494031086099
:100740002D4834300068091D08602B483830006897
:10075000091D086028483C300068091D08602648CB
:1007600040300068091D086021487438016841F470
:1007700070010160BFF34F8FBFF36F8F4FF01021F7
:10078000D1F80002002803DBD1F80402002822DAA5
:100790001B4A14601B480468002CFCD01524C1F8C7
:1007A00000420568002DFCD0C1F804420168002910
:1007B000FCD0136001680029FCD0BFF34F8F0C48B8
:1007C000F0380168104A01F4E06111430160BFF3A1
:1007D0004F8F00BFFDE70E490C48086070BD000058
:1007E000E00F00F00DF0ADBA00C007403C0500403E
:1007F000FCED00E0105600400404001020C500404D
:1008000004E5014000E401400400FA050090D00333
:100810000400002010B500F0A5F80449087000F0AD
:10082000B3F8BDE810401720FFF7AEBE000000206F
:1008300008B500200090082307220621052000F0BB
:1008400051F808BDFFF795FEFFF7F2FF4FF4FA7479
:100850001720FFF799FE03A000F0A6F8204600F04D
:100860000FF8F5E720323031362E30362E31352074
:10087000D0C7BBE3BFC6BCBCA3A10D0A00000000EB
:1008800031B540F6E85404E0401E00902046FFF7E2
:1008900007FE00980028F7D138BD30B541EA420183
:1008A000DDE9034541EA8301800041EA042100F1CA
:1008B000A04041EA0541C0F8001730BD1CB5002238
:1008C0000B46009211460192FFF7E7FF1CBD1CB5D5
:1008D000002100910B46012201911146FFF7DDFF37
:1008E0001CBD00002DE9F04107461C4615460E468A
:1008F0000846DDF81880FFF7EAFF00212046FFF7E1
:10090000DDFF154806601448083004600124B8F182
:10091000000F0FD03846FFF7DAFF00212846FFF717
:10092000CDFF0D48001D05600B48001F07600A48F9
:1009300060300460084909481831086006490420FD
:100940000C3908600648846004600021C0F8081172
:10095000C0F81C11BDE8F0810C25004000E0D70173
:1009600000200040064800BFD0F808110129FBD143
:100970000021C0F8081103480068C0B270470000A9
:10098000002000401825004005490860054800BFC8
:10099000D0F81C110129FBD10021C0F81C117047AF
:1009A0001C2500400020004000B5034600780122CD
:1009B00004E000BFFFF7E8FF985C521C0028F9D163
:1009C00000BD4FF04070E1EE100A7047EC090000E6
:1009D00000000020080000003C040000F4090000B2
:1009E00008000020604000005804000000000000E3
:0409F0000090D003A0
:0400000500000401F2
:00000001FF
