:020000040000FA
:1000000068400020A1040000A9040000AB04000027
:10001000AD040000AF040000B104000000000000C7
:10002000000000000000000000000000B304000019
:10003000B504000000000000B7040000B90400008F
:10004000BB040000BB040000BB040000BB040000B4
:10005000BB040000BB04000089050000BB040000D5
:10006000BB040000BB040000BB040000BB04000094
:10007000BB040000BB040000BB040000BB04000084
:10008000BB040000BB040000BB040000BB04000074
:10009000BB040000BB040000BB040000BB04000064
:1000A000BB040000BB040000BB040000BB04000054
:1000B000BB040000BB0400000000000000000000C2
:1000C000BB040000BB040000BB040000BB04000034
:1000D000BB040000BB040000BB04000000000000E3
:1000E0000000000000000000000000000000000010
:1000F0000000000000000000000000000000000000
:1001000000000000000000000000000000000000EF
:1001100000000000000000000000000000000000DF
:1004000000F002F800F03CF80AA090E8000C8244EA
:100410008344AAF10107DA4501D100F031F8AFF2C7
:10042000090EBAE80F0013F0010F18BFFB1A43F0D2
:1004300001031847E003000000040000103A24BF45
:1004400078C878C1FAD8520724BF30C830C144BF39
:1004500004680C607047000000230024002500267B
:10046000103A28BF78C1FBD8520728BF30C148BF17
:100470000B6070471FB500F0C7F91FBD10B510BD68
:1004800000F031F81146FFF7F5FF00F0B5F900F084
:100490004FF803B4FFF7F2FF03BC00F053F800007D
:1004A0000948804709480047FEE7FEE7FEE7FEE708
:1004B000FEE7FEE7FEE7FEE7FEE7FEE70448054944
:1004C000054A064B70470000F505000001040000D6
:1004D000680000206840002068200020682000207C
:1004E000704770477047754600F028F8AE46050023
:1004F0006946534620F00700854618B020B5FFF73F
:10050000DDFFBDE820404FF000064FF000074FF040
:1005100000084FF0000B21F00701AC46ACE8C00921
:10052000ACE8C009ACE8C009ACE8C0098D4670472A
:100530000446AFF300802046FFF7ABFF004870474A
:100540000400002001491820ABBEFEE7260002008F
:100550007047000008490C20C1F8000701204FF047
:10056000E0224021C2F80011054A04491160054902
:10057000C1F80403704700000C00005001030200A2
:1005800010650040006000400748D0F800110129C4
:1005900006D1D0F80413C90702D00021C0F8001119
:1005A000162000F017B8000000600040162003215C
:1005B000820002F1A042C2F80017401C1828F7DDA3
:1005C0007047000001218140014801607047000030
:1005D000080500500121814005480068044B21EACC
:1005E00000021B1D1A600840191D086070470000BA
:1005F0000405005070B576480023021D0178101DD7
:100600000125062907D11478240704D10478C4F3FE
:100610000314032C02D0062904D00FE06E4E6D4C5B
:1006200074670EE01478240708D10478C4F3031427
:10063000032C06D0042C04D0052C02D0062909D0A6
:1006400010E04FF08054D4F84442644EC4F3423476
:10065000346002E01478240704D10478C4F303144E
:10066000032C02D0062906D011E05D4C266826F046
:10067000807626600EE01478240708D10478C4F34D
:100680000314032C06D0042C04D0052C02D0062918
:100690000AD011E04FF08044C4F80C31C4F8103196
:1006A0004E4C241F236002E01478240704D1047800
:1006B000C4F30314032C02D0062905D00CE0474AEA
:1006C0000321643211600AE01478240704D104780D
:1006D000C4F30314032C02D006290DD06AE0414A6A
:1006E000052111603F4978310D603E4908310B60AA
:1006F0003F21121D116002E0117809075AD10078DC
:10070000C0F30310052855D1374800683749086001
:100710003548001D0068091D08603348083000682E
:10072000091D086030480C300068091D08602E481B
:1007300010300068091D08602B4814300068091D3E
:100740000860294818300068284920310860264888
:100750001C300068091D0860234820300068091D0E
:100760000860214824300068091D08601E482830B0
:100770000068091D08601C482C300068091D0860CD
:100780001948303000681949403108601648343043
:100790000068091D0860144838300068091D0860A9
:1007A00011483C300068091D08600F48403000685F
:1007B000091D08600A487438016841F4700101603D
:1007C000BFF34F8FBFF36F8F0A490948086070BDB0
:1007D000E00F00F00DF0ADBA00C007403C0500404E
:1007E000FCED00E0105600400404001020C500405D
:1007F0000090D00300000020FFF7D8FE1620FFF77E
:10080000E1FEFFF7A7FEFEE74FF04070E1EE100AB1
:1008100070470000340800000000002004000000C1
:100820003C04000038080000040000206440000080
:08083000580400000090D00301
:0400000500000401F2
:00000001FF
